:100000003AC1000069C1000067C1000065C100007D
:1000100063C1000061C100005FC100005DC100005C
:100020005BC1000059C1000057C1000055C100006C
:1000300053C1000051C100004FC100004DC100007C
:100040004BC1000049C1000047C1000045C100008C
:1000500043C1000041C100003FC100000C940420D6
:100060003BC100000C94331F0C940A1F35C10000E3
:1000700033C1000031C100002FC100002DC10000BC
:100080002BC1000029C1000027C1000025C10000CC
:1000900023C1000021C100001FC100001DC10000DC
:1000A0001BC1000019C1000017C1000015C10000EC
:1000B00013C1000011C100000FC100000DC10000FC
:1000C0000BC1000009C1000007C1000005C100000C
:1000D00003C1000001C10000FFC00000FDC000001E
:1000E000FBC000007F1D821D711D751D7B1DB91D8C
:1000F000861D8A1D901D941D981D9E1DA21DA61D66
:10010000B91DAC1DB01DB41D646973636F6E6E655F
:100110006374696E672E0054696D656F7574004372
:100120006F6E6E656374696F6E3A20636C6F736592
:100130000D0A00636F6E6E656374656400666169C5
:100140006C656400636F6E6E656374696E672E2EF6
:100150002E00000020002300260029002C002F0084
:1001600032000001000003010601090100000A0B32
:1001700002090C0D0E080703040100000000000036
:10018000000000000000000000000000000000006F
:10019000000000000000000012111000000000002C
:1001A000000000000000000000000000000000004F
:1001B000000000002200250028002B002E00310046
:1001C000340002010000050108010B0100002100BC
:1001D000240027002A002D00300033000101000018
:1001E000040107010A0105050505070508080808B7
:1001F000020202020A0A08080404040401010101BF
:1002000001010101030303030303030304070707B9
:100210000C0C0C0C0C0C0C0C02020202060606065E
:10022000060606060B0B0B0B0B0B0B0B010210202B
:10023000200808102040102040800201020108041C
:1002400002010102040810204080804020100804B0
:100250000201800402018040201008040201080409
:10026000020101020408102040800102040810204D
:100270004080B028942811241FBECFEFD1E2DEBF0A
:10028000CDBF00E00CBF15E0A0E0B2E0ECE4F3E687
:1002900000E00BBF02C007900D92A831B107D9F75B
:1002A00029E0A8E1B5E001C01D92A731B207E1F74E
:1002B00011E0CAE3D1E000E006C021970109802FD8
:1002C000FE010E94072BC933D10780E00807A9F778
:1002D0000E9407270C94953193CE2F923F924F9214
:1002E0005F926F927F928F929F92AF92BF92CF92C6
:1002F000DF92EF92FF920F931F93CF93DF93CDB7CF
:10030000DEB7C251D1400FB6F894DEBF0FBECDBFED
:1003100020900002309001020E94F81FC09020053A
:10032000D0902105E0902205F09023058B019C01DF
:100330000C191D092E093F0980912405909125056E
:10034000A0912605B0912705083E134021053105EF
:10035000D0F00196A11DB11D809324059093250531
:10036000A0932605B0932705B701A60148515C4F1D
:100370006F4F7F4F409320055093210560932205D6
:1003800070932305C9CF40911C0550911D056091C4
:100390001E0570911F0584179507A607B70708F477
:1003A00056C0E0911A05F0911B05309709F44FC033
:1003B0001995611571058105910539F16093240541
:1003C000709325058093260590932705DC01CB01CA
:1003D000845D9E4FAF4FBF4F80931C0590931D05CA
:1003E000A0931E05B0931F0582E090E0909319053D
:1003F000809318050E94F81F6093200570932105D3
:10040000809322059093230522C08091240590912A
:100410002505A0912605B0912705845D9E4FAF4F1D
:10042000BF4F80931C0590931D05A0931E05B093AC
:100430001F0581E090E02091180530911905232BCC
:1004400011F480E090E09093190580931805809056
:10045000240590902505A0902605B0902705809151
:10046000280590912905A0912A05B0912B058816A1
:100470009906AA06BB0609F4C2C0ECE3CE2ED12C25
:10048000E12CF12CC501B401A70196010E94643151
:1004900060932C05CA01B901A70196010E9464313D
:1004A00060932D05CA01B90128E130E040E050E039
:1004B0000E94643169017A0160932E05CA01B90175
:1004C0006C5F7F4F8F4F9F4F27E030E040E050E060
:1004D0000E9464316F5F60932F05412C512C3201D3
:1004E00040E000E911E0242F30E02E54384FF901AC
:1004F000E370FF27309791F4C90164E670E00E9431
:10050000F42A892B31F4C901B8010E94F42A892BFD
:1005100029F48EE691E0A0E0B0E004C08DE691E021
:10052000A0E0B0E0480E591E6A1E7B1ED301C20136
:10053000AA27BB27C816D906EA06FB0610F04F5FAC
:10054000D2CF40933205309799F4C90164E670E048
:100550000E94F42A892B39F4C90160E971E00E94F4
:10056000F42A892B29F48EE691E0A0E0B0E004C0E3
:100570008DE691E0A0E0B0E0481A590A6A0A7B0AC9
:10058000C418D508E608F708C90164E670E00E94BF
:10059000F42A8C01C90160E971E00E94F42AA2E208
:1005A000B2E020E0213041F4309751F401151105FB
:1005B00029F4009729F402C04C9103C04DE101C019
:1005C0004CE150E060E070E0C416D506E606F706A0
:1005D00040F0C41AD50AE60AF70A2F5F11962C30AC
:1005E00009F72F5F20933105C394C09230058092A4
:1005F000280590922905A0922A05B0922B0580919A
:100600002C0590E02816390609F05CC380910002A1
:10061000909101028733910511F0059602C085E0A3
:1006200090E090930102809300021E821D82188642
:100630001F8219861A861B861C868E01035F1F4F38
:1006400060E4F62EF8012F2D11922A95E9F71A820F
:1006500019821C821B828AED92E062969FAF8EAF58
:10066000629766961CAE1DAE1EAE1FAE669760E129
:1006700070E080916F080E9428126FEF80916F08E0
:100680000E940D2643E060E070E080916F080E94B8
:10069000A82541E064E170E080916F080E94A825E0
:1006A00060E070E080916F080E94FE2561E070E0DC
:1006B00080916F080E94281280916E0891E0980F37
:1006C00090936E0820916D0830E0CA55DF4F398352
:1006D0002883C65AD04090E0C855DF4F998388835D
:1006E000C85AD0400E94F81FC655DF4F68837983EF
:1006F0008A839B83CA5AD040E1E7F8E0A2EAB0E0DF
:10070000AC0FBD1F1C9601900D92FA94E1F788E0A2
:10071000CE55DF4F8883C25AD040CD55DF4F188267
:10072000C35AD04020E038E0C855DF4F4881598196
:10073000C85AD040CA55DF4F88819981C65AD040E7
:10074000480F591FC455DF4F68817981CC5AD0407A
:10075000C655DF4F88819981CA5AD040860F971FAE
:10076000A0E0B0E0840F951FA11DB11D820F931F63
:10077000A11DB11D72EAE72EF12CEC0EFD1E3DE02D
:10078000E30EF11CAE0141515F4FB7016150710999
:10079000F7012081FB013081820F931FA11DB11D44
:1007A000F2E0EF0EF11CE416F50679F7AD016627CD
:1007B0007727AA27BB27840F951FA61FB71FAD0158
:1007C00066277727840F951FA61FB71F80959095E2
:1007D000CC55DF4F99838883C45AD040109270085B
:1007E00056E5C52ED12CCC0EDD1E28E0C20ED11C44
:1007F000809170088111F5C18091C508C251DF4F09
:100800008883CE5ED0408091C608C151DF4F888377
:10081000CF5ED0408091C708C051DF4F8883C05F52
:10082000D0408091C808CF50DF4F8883C15FD0404F
:10083000BE0162517F4F80916F080E94F62540E80B
:1008400066E170E080916F080E94A82560E070E08A
:1008500080916F080E94E725CE55DF4F8881C25AEC
:10086000D04067968FAF6797CD55DF4F8881C35AC9
:10087000D04068968FAF6897CC55DF4F88819981BB
:10088000C45AD0409827892798276A969FAF8EAF81
:100890006A97CA55DF4F88819981C65AD0409827F8
:1008A000892798276C969FAF8EAF6C97C855DF4FFE
:1008B00088819981C85AD0409827892798276E96B1
:1008C0009FAF8EAF6E97C655DF4F688179818A8161
:1008D0009B81CA5AD0400E940F2BA2966CAF7DAF6D
:1008E0008EAF9FAFA29780E4E2EAF0E0EC0FFD1F2D
:1008F0003C96A6E5B0E0AC0FBD1F1C9601900D9292
:100900008A95E1F72CE430E0AE014A5A5F4F60E08F
:1009100070E080916F080E949A1260E270E080910E
:100920006F080E94281262E070E080916F080E94B8
:10093000B12584FD10C062E070E080916F080E94D4
:10094000B12583FFF0CF68E180916F080E940D26EA
:1009500081E090E007C060E180916F080E940D2661
:1009600080E090E060969FAF8EAF6097892B09F092
:1009700032C10E94F81F2B013C0190E4992E26E51C
:10098000A22EB12CAC0EBD1E3CE0A30EB11C0E94E9
:10099000F81FDC01CB0184199509A609B709883E27
:1009A0009340A105B10508F010C180916F080E9425
:1009B0007E12892B61F380916F080E94D1257C0102
:1009C000BC01772726E030E0AE0142515F4F8091B5
:1009D0006F080E94381246E0E40EC251DF4F888152
:1009E000CE5ED04063968FAF6397C151DF4F888151
:1009F000CF5ED04064968FAF6497C051DF4F88813F
:100A0000C05FD04065968FAF6597CF50DF4F88812C
:100A1000C15FD04066968FAF6697CD50DF4FF880AC
:100A2000C35FD0408CE48F1510F48CE4F82E2F2D8A
:100A300030E06E2D70E0AE014A5A5F4F80916F0832
:100A40000E94381267962FAD6797298368968FADFD
:100A500068978A836A968EAD9FAD6A979827892793
:100A600098279C838B836C968EAD9FAD6C9798274F
:100A7000892798279E838D836E968EAD9FAD6E9746
:100A800098278927982798878F832B3071F0A29613
:100A90006CAD7DAD8EAD9FADA2970E940F2B698787
:100AA0007A878B879C87F50101C0F601D801892DD3
:100AB00001900D928A95E1F7EF0CF0906F0840E0FD
:100AC00068E270E08F2D0E94A8254E2D69E270E04B
:100AD0008F2D0E94A82560E470E080916F080E942D
:100AE000281266E170E080916F080E94B1252E9671
:100AF0008FAF2E978981882319F08B30F1F047CF83
:100B00002D813E81CA55DF4F88819981C65AD040D8
:100B10002817390709F03BCF2F813885C855DF4F9B
:100B200088819981C85AD0402817390709F02FCFFA
:100B300060961FAE1EAE60974EC0ED85EF7094E0DC
:100B4000E99FF0011124A1E0B0E0AC0FBD1FAE0F92
:100B5000BF1F18964D915D916D917C911B9780916F
:100B6000C5089091C608A091C708B091C808481759
:100B700059076A077B0709F00ACF3C9621E030E06D
:100B80002C0F3D1FE20FF31F868197812481358151
:100B9000322723273227CA55DF4F48815981C65A49
:100BA000D0402417350709F0F2CE982789279827D7
:100BB000C855DF4F28813981C85AD0408217930722
:100BC00009F0E5CE83E090E002C082E090E060961C
:100BD0009FAF8EAF609760968EAD9FAD6097892B6B
:100BE00021F560E170E080916F080E9428126FEF9C
:100BF00080916F080E940D2660968EAD9FAD609724
:100C00000097C9F41F921F9285EE92E09F938F93F5
:100C100083E395E09F938F930E948C2D0F900F900C
:100C20000F900F900F900F902FC0809170088F5FE2
:100C300080937008DDCD8230910509F51F9282E026
:100C40008F9380E093E09F938F9383E395E09F934E
:100C50008F930E948C2D85E00E94691F0F900F904A
:100C60000F900F900F900F90892B71F46CE173E04F
:100C700088E697E00E94C51E0E94152605C09F9336
:100C80008F9385E293E0DFCF63E375E088E697E03A
:100C90000E94C51E4091000250910102052E000CD9
:100CA000660B770B77FF05C088E697E00E94521E1F
:100CB00005C02AE088E697E00E940A1E88E697E0D1
:100CC0000E94C21E8CEF93E00E94132690E0909346
:100CD0003406809333060A9739F486E10E94691F2F
:100CE000019759F061E006C086E10E94691F892BD7
:100CF00021F060E086E10E94911F00913E06109174
:100D00003F0682E00E94691F0817190751F50091FC
:100D100042061091430684E00E94691F08171907D4
:100D200001F5009144061091450685E00E94691F77
:100D300008171907B1F4009146061091470686E09E
:100D40000E94691F0817190761F4009102071091AA
:100D5000030786E10E94691F0817190711F40C9414
:100D60008A1081E090E0909339068093380684E001
:100D70000E94691F0091400610914106892B69F479
:100D800082E00E94691F0817190749F081E090E08E
:100D9000909339068093380602C083E0F2CF82E058
:100DA0000E94691F90933F0680933E0684E00E9454
:100DB000691F892B11F482E001C083E00E94691F42
:100DC000909341068093400684E00E94691F9093AF
:100DD00043068093420685E00E94691F9093450672
:100DE0008093440686E00E94691F90934706809393
:100DF000460686E10E94691F9093030780930207CD
:100E00006BEF74E0CE018A5F9E4F0E94F51D82E079
:100E1000CE55DF4F8883C25AD04086E2CE5EDE4F89
:100E20008883C251D1408CE10E94E711682F6F770F
:100E30008CE10E94B21187E067968FAF6797E12C33
:100E40008E010A5A1F4F9E012E553F4FAE014F5F34
:100E50005F4F61E0CE018E5E9E4F0E940C148111A7
:100E60000DC0CE55DF4F8881C25AD040823041F448
:100E700067968FAD6797811103C00AC0823041F039
:100E80006BEF74E0CE018A5F9E4F0E94761588C199
:100E90008CE10E94E711682F6F778CE10E94B211FC
:100EA000AA24A394B12C83E98983DD24D394C12C93
:100EB000A7E07A2EF12C60E7662E73E0572E40E211
:100EC000F41221C06A829C818B8189279D818927A8
:100ED0009E8189278F83AE01485F5F4F67E0CE0117
:100EE00001960E94D8138111EDC0CE55DF4F1882B4
:100EF000C25AD04067965FAE6797CE0107964C0105
:100F000049E0442E2EC08F2D877887FF03C0815083
:100F1000886F8F5FCE55DF4F8883C25AD0409F2D98
:100F2000F7FE02C097E09F0D95959595959522E067
:100F3000290F382FE0E12E9F300D11243A8331E044
:100F4000811101C030E0432E420E88248394912CFD
:100F50008C0E9D1E820E911C872D891B67968FAF6C
:100F60006797CE55DF4FE880C25AD0406E2D62950C
:100F7000607F6E0D8AE10E94B2118E010E551F4FE7
:100F80009E012A5A3F4FA401642DCE0101960E9472
:100F90000C14823089F58CE10E94E71185FD70CF39
:100FA0008F7109F480E2282F30E04F2DFF0C550B94
:100FB000421753070CF064CFF82EC90101978770D0
:100FC000992725952595259531E0320F21E0009749
:100FD00009F420E0230FE1E0F0E0EC0FFD1FE20F49
:100FE000F11D950102C0220F331F8A95E2F7C90156
:100FF0009081892B808363CF811164C030E2F31626
:1010000019F050E2F52E5ECF8B81883819F032E06E
:1010100024E002C033E023E080E090E06C2D70E03B
:10102000FC01E60FF71FEB52F74F432F480FA1E0EB
:10103000B0E0AC0FBD1FA40FB11D4C9141830196D0
:10104000821770F367968FAD6797833009F018CFDA
:10105000CE55DF4F8881C25AD040811111CFAE01E9
:101060004D5F5F4F61E0C4010E94D81381112AC017
:101070009B81F4018181981303CF9C818281981315
:10108000FFCE808182FF15C0D394F2E0DF1205C04D
:1010900085E98983F3E0CF2E0DCF23E0D21205C07E
:1010A00087E98983E6E0CE2E05CF31E0D312E8CE82
:1010B000FACE8093E0088D2D880FD80ED394D0926D
:1010C000D50802C08111DCCE10E08091D508181738
:1010D00008F050C0812F90E0FC01EB52F74F7F01E8
:1010E0008181803118F067EF74E002C062EE72E037
:1010F000CE0101960E94F51D4D815E8169817A8144
:10110000CE018A5F9E4F0E940915CE0101960E9472
:10111000A015F701818168961FAE1EAE68976A968A
:101120001FAE1EAE6A976C961FAE1EAE6C9740E166
:10113000BE016F5F7F4F90E00E94F930BE016F5F8C
:101140007F4FCE018A5A9F4F0E9476156C964EAD06
:101150005FAD6C9768966EAD7FAD6897CE018A5F84
:101160009E4F0E940915CE018A5A9F4F0E94A015DA
:101170001F5FABCFCA5FDE4F08811981C650D140D7
:101180000115110569F0F8018081882349F0082EC6
:10119000000C990B0E943F2DF80181938F01F3CF32
:1011A00065E378E08FE298E00E948B15BE016A5FEC
:1011B0007E4F85E398E00E948B15C65FDE4F288145
:1011C0003981CA50D1408091390890913A08232B37
:1011D00049F0CA5FDE4FE881F981C650D1402081D5
:1011E00021111EC0009739F0E0913508F0913608C2
:1011F0002081211115C02091330830913408232B10
:1012000039F0E0912F08F09130082081211108C0B9
:101210006BEF74E0CE018A5F9E4F0E94761524C06A
:10122000892B71F0E0913508F09136088081882390
:1012300039F065E378E0CE018A5F9E4F0E948B15FE
:101240008091330890913408892B71F0E0912F0838
:10125000F09130088081882339F06FE278E0CE0188
:101260008A5F9E4F0E948B1520913F083091400865
:10127000C65FDE4F88819981CA50D140281739074F
:1012800059F580913B0890913C08009749F0CA5F5E
:10129000DE4F68817981C650D14061157105C1F476
:1012A000CA5FDE4FE881F981C650D140309741F0E6
:1012B000232BC9F0808190E09195819591090AC016
:1012C000009789F0232B79F0FC01808190E002C027
:1012D0000E94622D892B39F081E090E090933706CF
:1012E0008093360604C0109237061092360680911D
:1012F000380690913906019709F070C160913E0659
:1013000070913F064AE0CE0193950E94A515609129
:101310004006709141064AE0CE0186509F4F0E94E0
:10132000A51560914206709143064AE0CE018C50AB
:101330009F4F0E94A51560914406709145064AE0B2
:10134000CE0182519F4F0E94A51560914606709173
:1013500047064AE0CE018E559F4F0E94A515609129
:101360000207709103074AE0CE018A5A9F4F0E94FC
:10137000A51566E373E0CE01845F9E4F0E94F51DC4
:101380006FEC78E0CE01845F9E4F0E9446150E946C
:101390003615BE0173950E9446150E943615BE0192
:1013A00066507F4F0E9446150E943615BE016C5054
:1013B0007F4F0E9446150E943615BE0162517F4F35
:1013C0000E9446150E943615BE016E557F4F0E9441
:1013D00046150E943615BE016A5A7F4F0E94461577
:1013E000BC01CE0101960E94D015CE01845F9E4FB4
:1013F0000E94A01519810A81612F702F88E697E05D
:101400000E94C51E1F921F920F931F9384E097E0C6
:101410009F938F930E948C2D6BE473E088E697E096
:101420000E94C51E0AED12E0C45FDE4F19830883D7
:10143000CC50D1408091150890911608A0911708C2
:10144000B0911808C25FDE4F88839983AA83BB835B
:10145000CE50D1406CEA71EECE01845F9E4F0E9467
:10146000FF120F900F900F900F900F900F9081111F
:101470008EC067E573E088E697E00E94C51EC45FF2
:10148000DE4F19830883CC50D1408091150890918C
:101490001608A0911708B0911808C25FDE4F888324
:1014A0009983AA83BB83CE50D1406CEA71EECE0102
:1014B000845F9E4F0E94FF12811169C063E673E052
:1014C00088E697E00E94C51EC45FDE4F198308833B
:1014D000CC50D1408091150890911608A091170822
:1014E000B0911808C25FDE4F88839983AA83BB83BB
:1014F000CE50D1406CEA71EECE01845F9E4F0E94C7
:10150000FF12811144C06FE673E088E697E00E9405
:10151000C51EC45FDE4F19830883CC50D140809133
:10152000150890911608A0911708B0911808C25F8D
:10153000DE4F88839983AA83BB83CE50D1406CEA67
:1015400071EECE01845F9E4F0E94FF1281111FC079
:10155000C45FDE4F19830883CC50D14080911508B9
:1015600090911608A0911708B0911808C25FDE4F3D
:1015700088839983AA83BB83CE50D1406CEA71EEF5
:10158000CE01845F9E4F0E94FF120E9415266BE7DA
:1015900073E088E697E00E94C51ECE0101960E9486
:1015A000A015CE018A5A9F4F0E94A015CE018E55DC
:1015B0009F4F0E94A015CE0182519F4F0E94A015FF
:1015C000CE018C509F4F0E94A015CE0186509F4F98
:1015D0000E94A015CE0193950E94A0158091360619
:1015E00090913706019709F0ACC1BE016A5F7E4F4A
:1015F0008BE398E00E948B15C65FDE4F888199814E
:10160000CA50D140892B49F0CA5FDE4FE881F98189
:10161000C650D1408081811108C063EE72E0CE01D6
:101620008A5F9E4F0E94761597C0BE016A5F7E4F0B
:10163000CE0101960E94D01580E090E04FE52D810B
:101640003E8169817A8182179307E0F46115710503
:1016500029F410923506E5E3F6E003C0FB01E80F3C
:10166000F91F2081203261F46115710529F410926F
:101670003506E5E3F6E003C0FB01E80FF91F408300
:101680000196DDCF68967FAF6EAF68978B819C81A6
:101690006A969FAF8EAF6A976C963FAF2EAF6C97EE
:1016A0001A8219821C821B821E821D82CA5FDE4F33
:1016B00088819981C650D1400097D9F06115710594
:1016C000B1F0C85FDE4F48815981C850D140421700
:1016D000530768F00E946B2D6C968EAD9FAD6C9792
:1016E000C65FDE4F99838883CA50D14028C00E94CC
:1016F000BF2B68968EAD9FAD6897CA5FDE4F99830A
:101700008883C650D1406A968EAD9FAD6A97C85FF8
:10171000DE4F99838883C850D1406C968EAD9FADC3
:101720006C97C65FDE4F99838883CA50D140689614
:101730001FAE1EAE68976A961FAE1EAE6A976C9675
:101740001FAE1EAE6C97CE018A5A9F4F0E94A01505
:10175000CE0101960E94A0156DE873E0CE018A5A71
:101760009F4F0E94F51D6FEC78E0CE018A5A9F4F83
:101770000E9446150E943615BE016A5F7E4F0E9488
:101780004615BC01CE0101960E94D015CE018A5AA1
:101790009F4F0E94A01519810A81612F702F88E642
:1017A00097E00E94C51E1F921F920F931F9384E023
:1017B00097E09F938F930E948C2D6BE473E088E6F3
:1017C00097E00E94C51E0AED12E068961FAF0EAFAB
:1017D00068978091150890911608A0911708B0910C
:1017E00018086C968CAF9DAFAEAFBFAF6C976CEA2C
:1017F00071EECE018A5A9F4F02D70F900F900F9033
:101800000F900F900F90811192C064EF71E080E013
:1018100090E00E94C01F67E573E088E697E00E94B1
:10182000C51E68961FAF0EAF6897809115089091FE
:101830001608A0911708B09118086C968CAF9DAF50
:10184000AEAFBFAF6C976CEA71EECE018A5A9F4F74
:10185000D6D681116CC064EF71E080E090E00E9408
:10186000C01F63E673E088E697E00E94C51E689695
:101870001FAF0EAF68978091150890911608A09140
:101880001708B09118086C968CAF9DAFAEAFBFAF84
:101890006C976CEA71EECE018A5A9F4FB0D68111D7
:1018A00046C064EF71E080E090E00E94C01F6FE6E8
:1018B00073E088E697E00E94C51E68961FAF0EAFE2
:1018C00068978091150890911608A0911708B0911B
:1018D00018086C968CAF9DAFAEAFBFAF6C976CEA3B
:1018E00071EECE018A5A9F4F8AD6811120C064EFD3
:1018F00071E080E090E00E94C01F68961FAF0EAFBD
:1019000068978091150890911608A0911708B091DA
:1019100018086C968CAF9DAFAEAFBFAF6C976CEAFA
:1019200071EECE018A5A9F4F6AD60E94152660EA50
:1019300073E088E697E00E94C51ECE0101960E94E2
:10194000A015BE016A5F7E4FCE018E559F4F0E944B
:10195000D01587E698E00E942D1A84E5E82E87E0EE
:10196000F82E10E098EE892E93E0992EA12CB12C40
:101970002AE9C22E22E0D22E1C821B828D829E82F8
:10198000AF82B886DA82C9821D87F7012191319131
:101990007F0180916B0890916C082817390799F5A1
:1019A000CE0101960E945018873111F08C3159F503
:1019B000CE0101960E94A316892B29F18B819C816F
:1019C0006A969FAF8EAF6A978D819E81AF81B885F1
:1019D0006E968CAF9DAFAEAFBFAF6E9789859A857F
:1019E000AB85BC85A2968CAF9DAFAEAFBFAFA297C3
:1019F0008AE992E068969FAF8EAF68978D85A3962F
:101A00008FAFA3971BC01F5F143009F0B5CF6A9644
:101A10001FAE1EAE6A9788EE93E0A0E0B0E06E962F
:101A20008CAF9DAFAEAFBFAF6E978AE992E068967C
:101A30009FAF8EAF6897A3961FAFA397A3968FAD66
:101A4000A397843009F444C361EB73E088E697E020
:101A50000E94C51ECA55DF4F48815981C65AD040E1
:101A6000CE55DF4F68817981C25AD04088E697E031
:101A70000E94421C88E697E00E94C21E11E0CE013F
:101A80008A5A9F4F0E945818882309F41CC3CE011C
:101A90008A5A9F4F0E94A316892B89F3CE018A5A36
:101AA0009F4F0E948916082F809145089091460803
:101AB0008436910550F409831A8241E050E0BE015A
:101AC0006F5F7F4F81E498E0A4D7809145089091A3
:101AD0004608892B79F0E0904108F09042086FE3C6
:101AE00070E0C7010E94572D009721F08E199F09C1
:101AF00097FF0FC00E3649F4112309F4BFCFCE0172
:101B00008A5A9F4F0E94C21EDEC2023709F4B7CF25
:101B100010E00A3009F0B3CF6EEB73E0CE0101960E
:101B20000E94F51DCE0101961DD67C01CE010196C5
:101B30000E94A0151E141F040CF0CDC165EC73E0CB
:101B400088E697E00E94C51E6EEC73E0CE018A5ACB
:101B50009F4F0E94C51E6EED73E0CE018A5A9F4FC3
:101B60000E94C51E66EF73E0CE018A5A9F4F0E9405
:101B7000C51ECE018A5A9F4F0E94C21E68E074E0C3
:101B8000CE018A5A9F4F0E94C51E6EE074E0CE01BE
:101B90008A5A9F4F0E94D51ECA55DF4F48815981EE
:101BA000C65AD040CE55DF4F68817981C25AD040A5
:101BB000CE018A5A9F4F0E94A41A65E174E0CE01BB
:101BC0008A5A9F4F0E94D51E6DE174E0CE018A5A59
:101BD0009F4F0E94C51E65E274E0CE018A5A9F4F56
:101BE0000E94D51E6AE274E0CE018A5A9F4F0E947D
:101BF000D51E6CE274E0CE018A5A9F4F0E94D51E1A
:101C000067EF74E0CE018A5A9F4F0E94D51E62E3AF
:101C100074E0CE018A5A9F4F0E94D51E82E00E9436
:101C2000691FBC01CE018A5A9F4FB8D56BE374E09F
:101C3000CE018A5A9F4F0E94D51E65E474E0CE0102
:101C40008A5A9F4F0E94C51E6DE174E0CE018A5AE8
:101C50009F4F0E94C51E65E274E0CE018A5A9F4FD5
:101C60000E94D51E6EE474E0CE018A5A9F4F0E94F6
:101C7000D51E6CE274E0CE018A5A9F4F0E94D51E99
:101C800067EF74E0CE018A5A9F4F0E94D51E62E32F
:101C900074E0CE018A5A9F4F0E94D51E83E00E94B5
:101CA000691FBC01CE018A5A9F4F78D56BE374E05F
:101CB000CE018A5A9F4F0E94D51E65E474E0CE0182
:101CC0008A5A9F4F0E94C51E6DE174E0CE018A5A68
:101CD0009F4F0E94C51E65E274E0CE018A5A9F4F55
:101CE0000E94D51E60E574E0CE018A5A9F4F0E9483
:101CF000D51E6CE274E0CE018A5A9F4F0E94D51E19
:101D000067EF74E0CE018A5A9F4F0E94D51E62E3AE
:101D100074E0CE018A5A9F4F0E94D51E84E00E9433
:101D2000691FBC01CE018A5A9F4F38D56BE374E01E
:101D3000CE018A5A9F4F0E94D51E65E474E0CE0101
:101D40008A5A9F4F0E94C51E6DE174E0CE018A5AE7
:101D50009F4F0E94C51E65E274E0CE018A5A9F4FD4
:101D60000E94D51E62E574E0CE018A5A9F4F0E9400
:101D7000D51E6CE274E0CE018A5A9F4F0E94D51E98
:101D800067EF74E0CE018A5A9F4F0E94D51E62E32E
:101D900074E0CE018A5A9F4F0E94D51E85E00E94B2
:101DA000691FBC01CE018A5A9F4FF8D46BE374E0DF
:101DB000CE018A5A9F4F0E94D51E65E474E0CE0181
:101DC0008A5A9F4F0E94C51E6DE174E0CE018A5A67
:101DD0009F4F0E94C51E65E274E0CE018A5A9F4F54
:101DE0000E94D51E68E075E0CE018A5A9F4F0E947E
:101DF000D51E6CE274E0CE018A5A9F4F0E94D51E18
:101E000067EF74E0CE018A5A9F4F0E94D51E62E3AD
:101E100074E0CE018A5A9F4F0E94D51E86E00E9430
:101E2000691FBC01CE018A5A9F4FB8D46BE374E09E
:101E3000CE018A5A9F4F0E94D51E65E474E0CE0100
:101E40008A5A9F4F0E94C51E6DE174E0CE018A5AE6
:101E50009F4F0E94C51E65E274E0CE018A5A9F4FD3
:101E60000E94D51E64E574E0CE018A5A9F4F0E94FD
:101E7000D51E6CE274E0CE018A5A9F4F0E94D51E97
:101E800067EF74E0CE018A5A9F4F0E94D51E62E32D
:101E900074E0CE018A5A9F4F0E94D51E86E10E94AF
:101EA000691FBC01CE018A5A9F4F78D46BE374E05E
:101EB000CE018A5A9F4F0E94D51E65E474E0CE0180
:101EC0008A5A9F4F0E94C51E68E574E0CE018A5A67
:101ED0009F4F0E94C51E6FE574E0CE0101960E94DF
:101EE000F51DCE0101963ED47C01CE01019628D687
:101EF0001E141F04D4F461E086E10E94911F65E680
:101F000074E088E697E00E94C51E68EE73E080E00A
:101F100090E00E94C01F60E086E10E94911F6CE685
:101F200074E088E697E00E94C51E64E774E0CE0185
:101F300001960E94F51DCE01019614D47C01CE01BC
:101F40000196FED51E141F0414F40E9415266AE79C
:101F500074E0CE0101960E94F51DCE01019602D4D7
:101F60007C01CE010196ECD51E141F040CF04AC072
:101F700061E086E10E94911F61E874E088E697E0E5
:101F80000E94C51E88E697E00E94C21E8CEF93E077
:101F90000E941326682F70E060577B4F88E697E019
:101FA0000E94C51E88E697E00E94C21E86E10E943C
:101FB000691F019741F48CEF93E00E9413268A3049
:101FC00069F06AE007C08CEF93E00E941326843129
:101FD00029F064E18CEF93E00E94112688E697E0F7
:101FE0000E94C21E8CEF93E00E941326682F70E0BF
:101FF0006D567B4F88E697E00E94C51E88E697E005
:102000000E94C21E66E974E0CE0101960E94F51D91
:10201000CE010196A7D37C01CE01019691D51E1465
:102020001F040CF04AC060E086E10E94911F6CE939
:1020300074E088E697E00E94C51E88E697E00E945B
:10204000C21E8CEF93E00E941326682F70E0605749
:102050007B4F88E697E00E94C51E88E697E00E94C5
:10206000C21E86E10E94691F019741F48CEF93E044
:102070000E9413268A3069F06AE007C08CEF93E073
:102080000E941326843129F064E18CEF93E00E94D2
:10209000112688E697E00E94C21E8CEF93E00E9412
:1020A0001326682F70E06D567B4F88E697E00E94FC
:1020B000C51E88E697E00E94C21E6BEF74E081E4C3
:1020C00098E014D5DCCCCE018A5A9F4F0E94D119DA
:1020D000CE018E559F4F34D5CE018A5F9E4F30D5AD
:1020E000CE5EDE4F0FB6F894DEBF0FBECDBFDF91E0
:1020F000CF911F910F91FF90EF90DF90CF90BF9005
:10210000AF909F908F907F906F905F904F903F9097
:102110002F90089510923906109238060C94B70645
:102120008F929F92AF92BF92CF92DF92EF92FF92E7
:102130000F93CF93DF931F921F92CDB7DEB74C0161
:102140005B016A0179016CE271E080E090E00E943D
:10215000C01F0E947925249A00E021E040E059E068
:102160006DE370E0CE0101960E94E52289819A819B
:10217000C3D760E880E090E00E94D82065E58BE15D
:1021800090E00E94D82065E58AE190E00E94D82086
:10219000B2D7E4E4F7E080E090E49183808380E0CC
:1021A00090E69187808780E098E49383828380E043
:1021B00098E69387828780E090E59583848380E02A
:1021C00090E79587848780E098E59783868380E011
:1021D00098E79787868721E040E059E06DE370E05B
:1021E000CE0101960E94E52289819A8185D746E039
:1021F00050E060E172E089E090E00E94AF20B4011D
:102200006E5F7F4F44E050E08FE090E00E94AF208F
:10221000B6016E5F7F4F44E050E081E090E00E94A5
:10222000AF20B7016E5F7F4F44E050E085E090E063
:102230000E94AF2060D7F50182819381A481B5818E
:102240008093070890930808A0930908B0930A08A0
:102250000F900F90DF91CF910F91FF90EF90DF9053
:10226000CF90BF90AF909F908F900895CF92DF92C4
:10227000EF92FF920F931F93CF93DF931F921F92C2
:10228000CDB7DEB7E82EF62EC72E00E021E040E005
:1022900050E0BA01CE0101960E94E52289819A811F
:1022A0002BD760E08091E1080E94911F82E10E949B
:1022B0007E20DF2C0F2D1C2D802F8D198E1530F4D4
:1022C000F80181918F010E947E20F6CF61E080911C
:1022D000E1080E94911F0FD70F900F90DF91CF91CF
:1022E0001F910F91FF90EF90DF90CF9008950E9483
:1022F0003B2D0F931F93CF93DF93EC01888199813E
:10230000009729F02A813B812617370788F48B0133
:102310006F5F7F4F0E94572C009761F099838883ED
:102320001B830A832C813D81232B11F4FC01108235
:1023300081E001C080E0DF91CF911F910F9108955E
:10234000CF93DF93EC0188819981009711F00E946F
:10235000BF2B198218821D821C821B821A82DF9178
:10236000CF910895EF92FF920F931F93CF93DF9336
:102370001F921F92CDB7DEB7E82EF62E00E021E0C7
:1023800040E050E0BA01CE0101960E94E522898129
:102390009A81B2D605ED18E060E0F80184850E94CC
:1023A000911F8E2D8E770E947E208F2D0E947E2081
:1023B00061E0F80184850E94911F9DD60F900F90D7
:1023C000DF91CF911F910F91FF90EF900895EF92C1
:1023D000FF920F931F93CF93DF931F921F92CDB75E
:1023E000DEB7182F00E021E040E050E0BA01CE0156
:1023F00001960E94E52289819A817ED685EDE82E9C
:1024000088E0F82E60E0F70184850E94911F812FFB
:102410008E7780680E947E2080E00E947E20182FA8
:1024200061E0F70184850E94911F65D6812F0F908E
:102430000F90DF91CF911F910F91FF90EF90089532
:10244000CF93C82FC4DF682F60688C2FCF918ACFBD
:10245000CF93C82F462F61E070E00E94A82561E06D
:1024600070E08C2F0E94B1258111F9CFCF91089592
:10247000AF92BF92CF92DF92EF92FF920F931F9392
:10248000CF93DF931F921F92CDB7DEB77A83698314
:10249000BA01A901E981FA81F770082F10E0000F55
:1024A000111F045B184FD8018D919C918E0F9F1FB7
:1024B0002E0F3F1F2130384098F07A015B0120E059
:1024C00038E06901CE1ADF0AA6010E948520A70123
:1024D0004C195D09B5016C0D7D1DF801808191815C
:1024E0000F900F90DF91CF911F910F91FF90EF9080
:1024F000DF90CF90BF90AF900C948520FF920F9308
:102500001F93CF93DF93F82EC0E0D0E08F2D0E9471
:1025100052208C01892B21F08F2D0E945220EC013A
:10252000C017D10799F7CE01DF91CF911F910F917D
:10253000FF9008959F92AF92BF92CF92DF92EF9259
:10254000FF920F931F93CF93DF93982E8B015A0125
:10255000690164E270E00E94B125E82EF12C65E289
:1025600070E0892D0E94B125FE2CEE24E82AE701B7
:10257000C00FD11F9E013770E92CF12CC701880FC5
:10258000991FAC014C5B584F7A01FA01808191810F
:10259000820F931FA9014C0D5D1D4130584090F0F2
:1025A00000E018E0021B130BA801B5010E94AF2048
:1025B000A601401B510BB501600F711FF70180810F
:1025C000918102C0A601B5010E94AF20CC0DDD1D96
:1025D0004D2F64E270E0892D0E94A8254C2F65E202
:1025E00070E0892DDF91CF911F910F91FF90EF90B7
:1025F000DF90CF90BF90AF909F900C94A825EF9262
:10260000FF920F931F93CF93DF93CDB7DEB7C058E0
:10261000D1090FB6F894DEBF0FBECDBF7C018B0190
:1026200064E471E088E697E00E94D61E8AED92E0AD
:102630009A838983F70182819381A481B5818B83F9
:102640009C83AD83BE83A8018E010F5F1F4FB8012D
:102650008AE598E00E94A81B019709F06EC063E329
:1026600071E088E697E00E94FA1E84E097E09F936D
:102670008F938EEA94E09F938F931F930F930E9402
:102680008C2DB8018AE598E00E94C51E82E092E098
:102690009F938F938EEB94E09F938F931F930F9351
:1026A0000E948C2DB8018AE598E00E94C51E6FE15A
:1026B00071E08AE598E00E94FA1E0FB6F894DEBF3A
:1026C0000FBECDBF00E010E08AE598E0F1D488238A
:1026D00029F18AE598E037D3892B31F08AE598E033
:1026E00018D300E010E0F5CF0F5F1F4F093893E1DA
:1026F00019076CF088E697E00E94C21E67E171E05E
:1027000088E697E00E94FA1E8AE598E04AD661E0E2
:1027100070E080E090E00E94C01FD6CF88E697E08E
:102720000E94C21E68E071E088E697E00E94FA1EEF
:102730008AE598E036D681E007C06DE371E088E66F
:1027400097E00E94FA1E80E0C058DF4F0FB6F89461
:10275000DEBF0FBECDBFDF91CF911F910F91FF90D4
:10276000EF900895CF93DF9320914508309146086C
:10277000232B79F0FC01C0914108D091420860817F
:102780007181CE010E94722D009719F08C1B9D0B58
:1027900002C08FEF9FEFDF91CF910895AB01770FCC
:1027A000660B770B77FD0C94521E2AE00C940A1EE0
:1027B000EF92FF920F931F93CF93DF937C01C62F6D
:1027C0008A0160E082E0CEDD64E08AE0CBDD84E176
:1027D00037DEB7018C2F4ADD63E082E0C3DDC8E855
:1027E000D3E18AE0F4DD82FD04C02197D1F783E0D4
:1027F0000CC060E082E0B6DD84E4E9DDF8018083AE
:1028000082E4E5DDF801818380E0DF91CF911F91C3
:102810000F91FF90EF9008955F926F927F928F9249
:102820009F92AF92BF92CF92DF92EF92FF920F935F
:102830001F93CF93DF931F921F92CDB7DEB73C015A
:10284000F62E6A01490158010115110519F0F80128
:10285000908101C090E0192FF0E1EF9E100D11243E
:1028600060E082E07FDD6FE788E07CDD84E1E8DD29
:10287000B3018F2DFBDC612F8AE174DD6CE082E017
:1028800071DD8AE1DDDD00ED17E088E0A0DD982F45
:10289000907331F480FD7DC001501109B1F779C00A
:1028A0008CE095DDF82E837109F075C0C114D10458
:1028B00009F46BC08114910409F467C084E187DDD9
:1028C000182FF4018081811708F467C01083112349
:1028D00009F453C000E021E040E050E0BA01CE012D
:1028E00001960E94E52289819A8106D460E0809158
:1028F000E1080E94911F0FEF010F82E90E947E20E4
:102900005C2C360188248394912C862D85198017A0
:1029100038F581111CC0EE20D1F09E2D10E09830CA
:1029200048F49401092E01C0220F0A94EAF7122BF1
:102930009F5FF5CF82E90E947E20212F2095F6012E
:10294000908192238123192F182B108305C082E9CF
:102950000E947E20F3018083FFEF6F1A7F0AD5CF9C
:10296000C00ED11C80E00E947E20F601808361E0D1
:102970008091E1080E94911FBED388E128DD877015
:10298000A114B10411F0F5018083F3FC08C080E0CC
:1029900007C083E005C081E003C084E001C082E09D
:1029A0000F900F90DF91CF911F910F91FF90EF90BB
:1029B000DF90CF90BF90AF909F908F907F906F905F
:1029C0005F900895FF920F931F93CF93DF93F82E9C
:1029D000C0E0D0E08F2D0E9468208C01892B21F06F
:1029E0008F2D0E946820EC01C017D10799F7CE0106
:1029F000DF91CF911F910F91FF900895FC0180818D
:102A00009181009711F00C94AA3060E070E0CB0146
:102A10000895EF92FF920F931F93CF93DF93FC01E2
:102A2000248135816115710511F480E018C04115CC
:102A30005105A1F07B01EC018A01020F131FB801BF
:102A400058DC882391F3288139818C819D81B701DD
:102A5000820F931F0E946B2D1D830C8381E0DF91F9
:102A6000CF911F910F91FF90EF900895CF93DF9337
:102A7000EC0141E050E06EE973E0CBDF811102C070
:102A8000CE015EDCCE01DF91CF910895CF93DF932D
:102A9000EC01FB014481558160817181BADF8111B4
:102AA00002C0CE014DDCCE01DF91CF910895EF92AF
:102AB000FF920F931F93CF93DF93EC017B018A0169
:102AC000BA0117DC811103C0CE013ADC07C01D83B7
:102AD0000C83B701888199810E946B2DCE01DF9113
:102AE000CF911F910F91FF90EF900895CF93DF93B7
:102AF000EC016115710551F0FB0101900020E9F72F
:102B00003197AF01461B570BD2DF01C019DCCE0154
:102B1000DF91CF910895CF93DF93EC01FB018617EE
:102B2000970751F0608171816115710521F0448131
:102B30005581BDDF01C004DCCE01DF91CF91089546
:102B4000FC01808191810C94BF2B0F931F93CF9335
:102B5000DF93CDB7DEB762970FB6F894DEBF0FBE36
:102B6000CDBF8C01CB01F801118210821382128239
:102B70001582148250E0BE016F5F7F4F0E94D030FB
:102B8000BE016F5F7F4FC801B1DF62960FB6F89448
:102B9000DEBF0FBECDBFDF91CF911F910F91089582
:102BA000FC01118210821382128215821482B3CF2B
:102BB000CF93DF931F92CDB7DEB76983DC01ED9130
:102BC000FC910280F381E02D41E050E0BE016F5F97
:102BD0007F4F19950F90DF91CF910895FC01818D62
:102BE000928D0895FC018489958908952AED32E03B
:102BF000FC0131832083FB014089518962897389FB
:102C0000FC0142835383648375830895DC01ED9155
:102C1000FC91008CF18DE02D1994CF93DF931F92DE
:102C2000CDB7DEB76983DC01ED91FC910280F381C1
:102C3000E02D41E050E0BE016F5F7F4F19950F908E
:102C4000DF91CF910895FC019485FB018485981351
:102C500003C081E0943009F480E0089521E0FC0194
:102C60008485843009F420E0822F08950895CF935D
:102C7000DF931F92CDB7DEB76983DC01ED91FC9144
:102C80000280F381E02D41E050E0BE016F5F7F4F95
:102C900019950F90DF91CF910895DC01ED91FC9192
:102CA000048CF58DE02D199591E089270895862FE4
:102CB000089581E0862708950F931F93CF93DF93A4
:102CC0001F92CDB7DEB7FC01218D328D232B61F031
:102CD0008C0141E050E0BE016F5F7F4F808D0E940C
:102CE0006421181619061CF08FEF9FEF08C0F80139
:102CF000818D928D0197928F818F898190E00F90C5
:102D0000DF91CF911F910F910895FC0184850C9460
:102D10006421CF93DF931F92CDB7DEB741E050E03F
:102D2000BE016F5F7F4FFC0184850E9464211816ED
:102D300019061CF4898190E002C08FEF9FEF0F907D
:102D4000DF91CF910895FC018485843011F00C94BB
:102D50003C2180E090E008950F931F93CF93DF9381
:102D6000CDB7DEB728970FB6F894DEBF0FBECDBF44
:102D70008C01F801818D928D892B49F0D801ED915C
:102D8000FC910680F781E02DC8011995F2CF808D66
:102D90000E943C21181619065CF548E050E0BE017F
:102DA0006F5F7F4FD80158968C910E9464219C01DF
:102DB00018161906DCF489819A81AB81BC81F8016F
:102DC000808B918BA28BB38B8D8190E0982F88277D
:102DD0002E81820F911D958B848B2F8130E0322FB5
:102DE00022278885280F311D328F218FC90102C00B
:102DF00080E090E028960FB6F894DEBF0FBECDBFFE
:102E0000DF91CF911F910F910895CF92DF92EF92B2
:102E1000FF920F931F93CF93DF93CDB7DEB7AF979A
:102E20000FB6F894DEBF0FBECDBF7C016A010AED7C
:102E300012E01A8309831C861B8688EE93E0A0E0CB
:102E4000B0E08D879E87AF87B88B82E392E09A8748
:102E50008987188F0F8B198E1A8E1B8E1C8E84E01B
:102E600089A31DA30CA31EA21FA218A619A68091B8
:102E7000070890910808A0910908B0910A088CA74A
:102E80009DA7AEA7BFA78B839C83AD83BE83188607
:102E90001F82AE014C5D5F4FCE0101960E940A2356
:102EA00081309105B1F4D701ED91FC910088F18951
:102EB000E02D1BA70AA78EA19FA1A8A5B9A58CA745
:102EC0009DA7AEA7BFA7A601BE01665D7F4FC70144
:102ED0001995AF960FB6F894DEBF0FBECDBFDF9148
:102EE000CF911F910F91FF90EF90DF90CF900895B9
:102EF000CF92DF92EF92FF920F931F93CF93DF93C6
:102F0000CDB7DEB7AF970FB6F894DEBF0FBECDBF1B
:102F10007C016A010AED12E01A8309831C861B8674
:102F200088EE93E0A0E0B0E08D879E87AF87B88BF6
:102F300082E392E09A878987188F0F8B198E1A8EF9
:102F40001B8E1C8E84E089A31DA30CA31EA21FA2AE
:102F500018A619A68091070890910808A091090861
:102F6000B0910A088CA79DA7AEA7BFA78B839C83AF
:102F7000AD83BE8318861F82AE014C5D5F4FCE01CC
:102F800001960E940A2381309105B1F4D701ED9199
:102F9000FC910484F585E02D1BA70AA78EA19FA1B3
:102FA000A8A5B9A58CA79DA7AEA7BFA7A601BE01DE
:102FB000665D7F4FC7011995AF960FB6F894DEBFD7
:102FC0000FBECDBFDF91CF911F910F91FF90EF907A
:102FD000DF90CF900895CF93DF93EC01888D8430FC
:102FE00061F00E94E721E88DF0E0EE0FFF1FEC5A40
:102FF000F84F1182108284E0888FDF91CF9108957D
:10300000EF92FF921F93CF93DF93FC01208D24302A
:1030100011F080E01CC07B01EC0110E0812F0E94C8
:10302000C022811102C0188F05C08831E1F31F5FF3
:103030001430A1F7888D843061F3FD86EC861A8EFA
:10304000198E20E0A70162E00E940E2281E0DF914C
:10305000CF911F91FF90EF9008950F931F93CF93FF
:10306000DF931F92CDB7DEB78C01DC01ED91FC91AF
:103070000480F581E02D1995892B51F0BE016F5F19
:103080007F4FF80184850E94F520898190E002C07D
:103090008FEF9FEF0F90DF91CF911F910F910895C8
:1030A000FC018485843011F00C94C02280E00895E6
:1030B000CF93DF93FC0124852430C9F0EC01F0DFCD
:1030C000843181F0882371F0883161F08C3161F4B2
:1030D000E881F9810480F581E02DCE01199521E088
:1030E000892B19F420E001C021E0822F01C080E08B
:1030F000DF91CF91089508958CBD9DBD08958F9265
:103100009F92AF92BF92CF92DF92EF92FF920F9376
:103110001F93CF93DF931F921F92CDB7DEB76C0141
:103120004B017A01FC01A688B788108D00E021E0F0
:1031300040E059E06DE370E0CE0101960E94E52287
:1031400089819A81D9DF812F3DDC8E159F0518F486
:10315000812F38DC7C019701A401B501812FEAD9C8
:10316000F601868997898E0D9F1D978B868BC701E7
:103170000F900F90DF91CF911F910F91FF90EF90E3
:10318000DF90CF90BF90AF909F908F9008950F9356
:103190001F93CF93DF931F921F92CDB7DEB7FC0131
:1031A000108D00E021E040E059E06DE370E0CE01D9
:1031B00001960E94E52289819A819EDF60E270E09B
:1031C000812F46D962E070E0812F0E94B12584FDF5
:1031D0001CC062E070E0812F0E94B12583FF07C010
:1031E00068E1812F0E940D2680E090E014C000E08D
:1031F00021E040E059E06DE370E0CE0101960E94CD
:10320000E52289819A8178DFDDCF60E1812F0E94FC
:103210000D2681E090E00F900F90DF91CF911F91EC
:103220000F910895CF92DF92EF92FF920F931F9329
:10323000CF93DF931F921F92CDB7DEB7FB01DC0166
:1032400057961C921E92569758961C918281811116
:1032500009C08381811106C08481811103C08581E9
:103260008823F9F041155105E1F06A017F0100E082
:1032700021E040E059E06DE370E0CE0101960E944C
:10328000E52289819A8138DFB7016E5F7F4F812FF8
:103290000E94F625B601812F0E94E72581E090E08B
:1032A00002C080E090E00F900F90DF91CF911F91CE
:1032B0000F91FF90EF90DF90CF9008958F929F92A3
:1032C000AF92BF92CF92DF92EF92FF920F931F9334
:1032D000CF93DF93CDB7DEB72F970FB6F894DEBF4D
:1032E0000FBECDBF6C01E12CF12C38EE832E33E004
:1032F000932EA12CB12C0AE912E01C821B828D8234
:103300009E82AF82B8861A830983ED86CE0101962C
:10331000C7DE81112BC0F6014481558120E061E0B8
:103320008E2D0E940E2200E021E040E059E06DE386
:1033300070E0CE010E960E94E5228E859F85DCDE30
:1033400063E070E08E2D0E94B125833121F462E0AC
:1033500070E08E2D7DD8F60184819581F701EE0F06
:10336000FF1FEC5AF84F9183808308C0FFEFEF1ADC
:10337000FF0A84E0E816F10409F0BFCF2F960FB6DC
:10338000F894DEBF0FBECDBFDF91CF911F910F919B
:10339000FF90EF90DF90CF90BF90AF909F908F9075
:1033A00008958F929F92AF92BF92EF92FF920F93E8
:1033B0001F93CF93DF931F921F92CDB7DEB7DC012F
:1033C0001C961C91143009F43BC07C0100E021E004
:1033D00040E059E06DE370E0CE0101960E94E522E5
:1033E00089819A8189DE68E070E0812F31D800D62A
:1033F0004B015C01C70154DE8823A1F061E070E05D
:1034000080E090E0BDD5F4D5DC01CB0188199909A5
:10341000AA09BB09883E9340A105B10558F3F701FD
:103420008485D5D7D7011C96EC911C97F0E0EE0F60
:10343000FF1FEC5AF84F1182108284E01C968C9387
:103440000F900F90DF91CF911F910F91FF90EF9010
:10345000BF90AF909F908F9008954F925F926F9220
:103460007F928F929F92AF92BF92CF92DF92EF9214
:10347000FF921F93CF93DF93CDB7DEB72D970FB693
:10348000F894DEBF0FBECDBF7C0194E5A92E97E076
:10349000B92E10E0C12CD12C28EE422E23E0522E62
:1034A000612C712C3AE9832E32E0932E1C821B8210
:1034B0004D825E826F8278869A8289821D87D501CD
:1034C0002D913D915D01F701848195812817390780
:1034D00099F4CE010196E4DD843159F0CE010196D4
:1034E000DFDD8C3149F4CE0101962DDC892B91F082
:1034F00003C0CC24C394D12C1F5F1430B9F6CD285F
:1035000069F4D701ED91FC910480F581E02DC701AC
:10351000199504C0CE01019644DFEECF2D960FB66B
:10352000F894DEBF0FBECDBFDF91CF911F91FF900A
:10353000EF90DF90CF90BF90AF909F908F907F9053
:103540006F905F904F9008956F927F928F929F92AD
:10355000AF92BF92CF92DF92EF92FF920F931F93A1
:10356000CF93DF931F921F92CDB7DEB75C014B0163
:103570006A01FC011485143041F481E090E0F5010A
:103580009383828380E090E064C07A0141305840A8
:1035900018F0E12C88E0F82E00E021E040E059E04E
:1035A0006DE370E0CE0101960E94E52289819A8147
:1035B000A3DD812F07DA3C0163E070E0812F0E94D8
:1035C000B125873111F08C3121F46E147F0420F382
:1035D00002C0E12CF12C00E021E040E059E06DE375
:1035E00070E0CE010196F1D789819A8185DD97013E
:1035F000A40160E070E0812F0E949A1260E270E006
:10360000812F0E94281262E070E0812F0E94B12574
:1036100084FD17C063E070E0812F0E94B125811105
:1036200003C0812FD4D6A9CF00E021E040E059E0CB
:103630006DE370E0CE010196C8D789819A815CDD87
:10364000E2CF60E1812F0E940D26EF2809F495CF8B
:10365000C6010F900F90DF91CF911F910F91FF90B6
:10366000EF90DF90CF90BF90AF909F908F907F9022
:103670006F9008952F923F924F925F926F927F9238
:103680008F929F92AF92BF92CF92DF92EF92FF9272
:103690000F931F93CF93DF93CDB7DEB72E970FB65F
:1036A000F894DEBF0FBECDBF7C016B015A01D5DEA1
:1036B00004E517E020E0612C712C88EE282E83E0D1
:1036C000382E412C512C9AE9892E92E0992E1C8299
:1036D0001B822D823E824F8258869A8289822D8754
:1036E000F801419151918F01F7018481958148172B
:1036F000590739F4CE0101962E87D2DC2E85873109
:10370000E9F02F5F243019F7C3012E960FB6F89415
:10371000DEBF0FBECDBFDF91CF911F910F91FF9004
:10372000EF90DF90CF90BF90AF909F908F907F9061
:103730006F905F904F903F902F900895A501B60134
:10374000CE0101962E8700DF680E791E2E85D9CF17
:10375000AF92BF92CF92DF92EF92FF920F931F939F
:10376000CF93DF931F921F92CDB7DEB7FC01248564
:10377000243009F074C05A017B016C0110E0812FE4
:10378000FFD6811103C0F601148706C08B7F8831F4
:10379000D1F31F5F143099F7F6018485843009F462
:1037A0005EC020911602309117022F5F3F4F11F437
:1037B00020E030EC3093170220931602409116025D
:1037C0005091170220E061E029D6F6011485F70137
:1037D00082818F3F51F483818F3F99F484818F3FA1
:1037E00081F485818F3F69F437C081110AC0F701E8
:1037F0008381811106C08481811103C08581882362
:1038000059F1A114B10441F100E021E040E059E098
:103810006DE370E0CE010196D8D689819A816CDC87
:10382000B7016E5F7F4F812F0E94F625B501812F72
:103830000E94E72564E070E0812F0E942812C601F3
:103840002FDC873179F061E070E080E090E098D380
:10385000C60126DC8111F3CF84E0F601848780E085
:1038600090E002C081E090E00F900F90DF91CF9147
:103870001F910F91FF90EF90DF90CF90BF90AF908E
:1038800008950895CF92DF92EF92FF920F931F93C6
:10389000CF93DF936C017A018B01C0E0D0E0CE15AD
:1038A000DF0589F0D8016D918D01D601ED91FC9174
:1038B0000190F081E02DC6011995892B11F47E014C
:1038C00002C02196ECCFC701DF91CF911F910F91DC
:1038D000FF90EF90DF90CF900895FC01918D828D45
:1038E000981761F0828DDF01A80FB11D5D968C9154
:1038F000928D9F5F9F73928F90E008958FEF9FEF5F
:103900000895FC01918D828D981731F0828DE80F1A
:10391000F11D858D90E008958FEF9FEF0895FC01D4
:10392000918D228D892F90E0805C9F4F821B9109A1
:103930008F739927089588E697E0F1DF21E0892BBE
:1039400009F420E0822F0895FC01848DDF01A80F87
:10395000B11DA35ABF4F2C91848D90E001968F73B7
:103960009927848FA689B7892C93A089B1898C91D6
:1039700080648C93938D848D981306C00288F3899C
:10398000E02D80818F7D80830895EF92FF920F93C9
:103990001F93CF93DF93EC0181E0888F9B8D8C8DFB
:1039A000981305C0E889F989808185FD23C0F62E2A
:1039B0000B8D10E00F5F1F4F0F731127E02E8C8DC2
:1039C000E8120BC00FB607FCFACFE889F9898081AD
:1039D00085FFF5CFCE01B8DFF2CF8B8DFE01E80F6A
:1039E000F11DE35AFF4FF0820B8FEA89FB8980813A
:1039F000806207C0EE89FF896083E889F989808148
:103A00008064808381E090E0DF91CF911F910F91DE
:103A1000FF90EF900895CF93DF93EC01888D88237A
:103A2000C1F0EA89FB89808185FD05C0A889B98933
:103A30008C9186FD0EC00FB607FCF5CF808185FF07
:103A4000F2CFA889B9898C9185FFEDCFCE017CDFBB
:103A5000E8CFDF91CF91089580E090E0892B19F0B5
:103A60006ADF811125C080E090E0892B41F080E081
:103A700090E0892B21F00E94000081111CC080E0A1
:103A800090E0892B41F080E090E0892B21F00E94AA
:103A90000000811113C080E090E0892BA1F080E04C
:103AA00090E0892B81F00E94000081110AC00895E6
:103AB0000E940000D8CF0E940000E1CF0E940000C9
:103AC000EACF0C940000089590E0FC013197E231B8
:103AD000F10508F04EC08827EE58FF4F8F4F0C9429
:103AE000072B809180008F7703C0809180008F7DAD
:103AF00080938000089580918000877FF9CF84B5FE
:103B00008F7702C084B58F7D84BD08958091B00009
:103B10008F7703C08091B0008F7D8093B0000895AF
:103B2000809190008F7707C0809190008F7D03C0B7
:103B300080919000877F8093900008958091A000ED
:103B40008F7707C08091A0008F7D03C08091A00077
:103B5000877F8093A0000895809120018F7707C010
:103B6000809120018F7D03C080912001877F809309
:103B7000200108953FB7F8948091630790916407FE
:103B8000A0916507B091660726B5A89B05C02F3F99
:103B900019F00196A11DB11D3FBFBA2FA92F982F73
:103BA0008827820F911DA11DB11DBC01CD0142E0EE
:103BB000660F771F881F991F4A95D1F708950895BA
:103BC0006115710579F0FB0101900020E9F731974B
:103BD000AF01461B570BDC01ED91FC910280F38194
:103BE000E02D199480E090E00895FC01118210828C
:103BF00013821282158214826115710551F0FB0146
:103C000001900020E9F73197AF01461B570B0C9448
:103C1000571508954F925F926F927F92EF92FF92A5
:103C20000F931F93CF93DF93CDB7DEB7A1970FB656
:103C3000F894DEBF0FBECDBF7C01FA01CB0119A203
:103C4000223008F42AE08E010F5D1F4F422E512CC6
:103C5000612C712CBF01A30192010E946431F90112
:103C6000CA01015011096A3014F4605D01C0695C39
:103C7000D8016C93232B242B252B61F7B801C701A6
:103C80009FDFA1960FB6F894DEBF0FBECDBFDF91C8
:103C9000CF911F910F91FF90EF907F906F905F9069
:103CA0004F900895CF92DF92EF92FF920F931F9360
:103CB000CF93DF93EC016A017B01E881F9810190E8
:103CC000F081E02D6DE219958C0144275527BA014A
:103CD0004C195D096E097F092AE0CE019BDF800F38
:103CE000911FDF91CF911F910F91FF90EF90DF9087
:103CF000CF9008958F929F92AF92BF92CF92DF9212
:103D0000EF92FF920F931F93CF93DF937C01EB0110
:103D10006C0182E0C80ED11C4701E5E08E0E911CBB
:103D200000E010E0F60141916F0150E060E070E0CA
:103D30002AE0CE016FDF5C01E881F9810190F0811A
:103D4000E02D6EE2CE0119958A0D9B1D080F191FFB
:103D5000C814D90439F7F701458150E060E070E0FC
:103D60002AE0CE0157DF800F911FDF91CF911F9185
:103D70000F91FF90EF90DF90CF90BF90AF909F900A
:103D80008F90089569EF74E01BCF0F931F93CF932B
:103D9000DF93EC0115DF8C01CE01F4DF800F911F62
:103DA000DF91CF911F910F9108950ACFEF92FF926B
:103DB0000F931F93CF93DF938C017B01C0E0D0E082
:103DC000F701EC0FFD1F6491662361F0D801ED91BE
:103DD000FC910190F081E02DC8011995892B11F01B
:103DE0002196EECFCE01DF91CF911F910F91FF90E1
:103DF000EF9008950F931F93CF93DF93EC01D6DFDD
:103E00008C01CE01BFDF800F911FDF91CF911F91F9
:103E10000F9108951F920F920FB60F9211240BB6B7
:103E20000F922F933F934F935F936F937F938F9353
:103E30009F93AF93BF93EF93FF9388E697E084DD62
:103E4000FF91EF91BF91AF919F918F917F916F9172
:103E50005F914F913F912F910F900BBE0F900FBE2E
:103E60000F901F9018951F920F920FB60F9211246A
:103E70000BB60F922F938F939F93EF93FF93E09145
:103E80007807F09179078081E0917E07F0917F07B4
:103E900082FD12C09081809181078F5F8F73209186
:103EA0008207821751F0E0918107F0E0E859F84F5E
:103EB000958F8093810701C08081FF91EF919F9141
:103EC0008F912F910F900BBE0F900FBE0F901F90F0
:103ED0001895CF93DF93282F30E0F901E459FE4F76
:103EE0008491F901E45DFD4FD491F901EA51FE4F4F
:103EF000C491CC2389F08111E7DDEC2FF0E0EE0FC7
:103F0000FF1FEE5AFE4FA591B491EC91ED2381E095
:103F100090E021F480E002C080E090E0DF91CF915A
:103F200008951F93CF93DF93282F30E0F901E459D0
:103F3000FE4F8491F901E45DFD4FD491F901EA51FE
:103F4000FE4FC491CC23C1F0162F8111BDDDEC2FA3
:103F5000F0E0EE0FFF1FEE54FE4FA591B4918FB726
:103F6000F894111105C09C91ED2FE095E92302C052
:103F7000EC91ED2BEC938FBFDF91CF911F910895C2
:103F80008F929F92AF92BF92CF92DF92EF92FF9269
:103F90006B017C01EFDD4B015C01C114D104E10434
:103FA000F104E9F0E7DDDC01CB0188199909AA09E0
:103FB000BB09883E9340A105B10578F321E0C21A00
:103FC000D108E108F10888EE880E83E0981EA11C54
:103FD000B11CC114D104E104F10421F7DECFFF903C
:103FE000EF90DF90CF90BF90AF909F908F9008950B
:103FF0002FB7F89460915F07709160078091610717
:10400000909162072FBF08951F920F920FB60F92E3
:1040100011242F933F938F939F93AF93BF938091DE
:104020005F0790916007A0916107B091620730919E
:104030005E0723E0230F2D3720F40196A11DB11D4B
:1040400005C026E8230F0296A11DB11D20935E072F
:1040500080935F0790936007A0936107B093620716
:104060008091630790916407A0916507B0916607FE
:104070000196A11DB11D8093630790936407A093DF
:104080006507B0936607BF91AF919F918F913F9164
:104090002F910F900FBE0F901F9018952C9A089596
:1040A0002C9808951F93CF93DF93182F66E270E04A
:1040B00058D5C82FD0E067E270E0812F52D5DC2FB1
:1040C000CC279E01282BC901DF91CF911F91089524
:1040D0001F93CF93DF93182F60E270E042D5C82F73
:1040E000D0E061E270E0812F3CD5DC2FCC279E012F
:1040F000282BC901DF91CF911F9108958EBD00003B
:104100000DB407FEFDCF8EB50895CF92DF92EF92EA
:10411000FF920F931F93CF93DF93EC017A018B01F2
:104120006C01C40ED51ECC15DD0579F0B9DF8FE02A
:10413000E5DF8D2FE3DF8C2FE1DF219680E0DEDFEE
:10414000F80181938F01AADFEECFC701DF91CF91F4
:104150001F910F91FF90EF90DF90CF900895CF9235
:10416000DF92EF92FF920F931F93CF93DF93EC01B7
:104170007A018B016C01C40ED51ECC15DD0571F0E2
:104180008FDF80EFBBDF8D2FB9DF8C2FB7DF21965C
:10419000F80181918F01B2DF81DFEFCFC701DF919D
:1041A000CF911F910F91FF90EF90DF90CF900895E6
:1041B0001F93CF93DF931F921F92CDB7DEB7182FB7
:1041C0006A8399836DDF80EF99DF9981892F96DF6C
:1041D000812F94DF6A81862F91DF60DF81E00F906D
:1041E0000F90DF91CF911F910895EF92FF920F935F
:1041F0001F93CF93DF931F921F92CDB7DEB7182F77
:104200007B0100E021E040E059E06DE370E0CE0189
:104210000196DBD189819A810E947C18812FC1D4BB
:1042200021E030E0A701BC01812F0E9438120E94DA
:104230007B1881E090E00F900F90DF91CF911F915C
:104240000F91FF90EF900895CF93DF931F92CDB71A
:10425000DEB7FC01218D328D232B41F0BE016F5F53
:104260007F4F808DC2DF898190E002C08FEF9FEF8A
:104270000F90DF91CF9108950F931F93CF93DF930A
:1042800000D01F92CDB7DEB7182F00E021E040E04C
:1042900059E06DE370E0CE01019697D189819A8152
:1042A0000E947C18812F0E947E128B839C830E9427
:1042B0007B188B819C810F900F900F900F90DF9156
:1042C000CF911F910F910895AF92BF92CF92DF923D
:1042D000FF920F931F93CF93DF931F921F92CDB73F
:1042E000DEB7F82E5B016A0100E021E040E059E012
:1042F0006DE370E0CE01019668D189819A810E94B8
:104300007C188F2D0E947E128C01009791F463E03F
:1043100070E08F2D26D4843169F1882359F101E0B2
:1043200010E08C3111F400E010E0119501951109B5
:1043300021C0C816D9060CF4860110161106D4F453
:104340008F2D2FD46C019801A501BC018F2D0E94E7
:104350003812C00ED11E4D2D68E270E08F2DF8D3BB
:104360004C2D69E270E08F2DF3D360E470E08F2D67
:104370000E9428120E947B18C8010F900F90DF91B5
:10438000CF911F910F91FF90DF90CF90BF90AF9092
:104390000895CF93DF93FC01218D328D21153105D6
:1043A00019F48FEF9FEF10C0EC014217530708F08C
:1043B000A901888D89DF181619069CF7298D3A8D79
:1043C000281B390B3A8F298FDF91CF9108950F93D6
:1043D0001F93CF93DF931F921F92CDB7DEB7182F95
:1043E00000E021E040E059E06DE370E0CE0101968D
:1043F000ECD089819A810E947C1860E170E0812F65
:104400000E9428126FEF812F08D40E947B180F9012
:104410000F90DF91CF911F910F910895CF92DF926E
:10442000EF92FF920F931F93CF93DF931F921F92F0
:10443000CDB7DEB7182FE62E6A01F22EC8DF00E0F6
:1044400021E040E059E06DE370E0CE010196BDD07F
:1044500089819A810E947C184E2D4F2960E070E07E
:10446000812F76D3C114D10411F0B6010AC0609136
:104470005C0770915D076F5F7F4F70935D0760937E
:104480005C07812FBBD361E070E0812F0E9428126E
:104490000E947B1881E00F900F90DF91CF911F91C8
:1044A0000F91FF90EF90DF90CF900895BF92CF9241
:1044B000DF92EF92FF920F931F93CF93DF9300D081
:1044C00000D0CDB7DEB7FC01208D243009F047C005
:1044D0006A017B018C01B12C63E070E08B2D41D32C
:1044E000811103C0F801B08E06C08831D9F3B394AE
:1044F000F4E0BF12F1CFF801808D843081F196E0B5
:10450000E4E5F2E0DE01119601900D929A95E1F753
:10451000F70193819F779C8394819D8395819E83EE
:10452000B7016E5F7F4F62D3B601F801808D4FD324
:10453000F801808D90E0982F882746E050E0BE017A
:104540006F5F7F4F8A5F9B4F0ADEF801128E118EDC
:1045500020E8A60162E0808D61DF81E001C080E09B
:1045600026960FB6F894DEBF0FBECDBFDF91CF9178
:104570001F910F91FF90EF90DF90CF90BF90089523
:104580000F931F93CF93DF9300D0CDB7DEB7182FD3
:1045900000E021E040E059E06DE370E0CE010196DB
:1045A00014D089819A810E947C1863E070E0812F89
:1045B000D8D28B830E947B188B810F900F900F9025
:1045C000DF91CF911F910F9108950F93FC0130E07F
:1045D00080E092E1AAE7B0E0481759076A077B0735
:1045E00040F4B695A795979587953F5F3630A1F72C
:1045F00037E091E09327222311F020E501C020E766
:10460000892F86950C70082B022B00839170918363
:104610000F9108952F923F924F925F926F927F92E7
:104620008F929F92AF92BF92CF92DF92EF92FF92C2
:104630000F931F93CF93DF93CDB7DEB765970FB678
:10464000F894DEBF0FBECDBF7C016B013A01FB01C8
:1046500020E080E090E06AE03191332309F140ED01
:10466000430F4A3080F4689FA001699F500D1124C8
:10467000CA01C097830F911D37FD9A958F3F910511
:1046800059F350F313C03E3289F4233079F0D3014B
:10469000A20FB11D12968C932F5F80E090E0DCCFCB
:1046A000233021F4F301858381E020C0F7014281AA
:1046B00053816481758180910F0890911008A091B9
:1046C0001108B0911208481759076A077B0709F4C7
:1046D00093C18EDC8701085F1F4F6F7077277C5F67
:1046E000C8010E940018813019F080E090E0E8C114
:1046F0008AED92E09A838983F70182819381A48174
:10470000B5818B839C83AD83BE8345E350E0BE01BE
:104710006F5F7F4FC8010E941219892B19F4C12CB9
:10472000D12C65C165DCF70177836683762767271F
:1047300076277A83698342E050E0BE016F5F7F4F46
:10474000C8010E947F1881E090E09E878D8742E03B
:1047500050E0BE01635F7F4FC8010E947F1880E078
:1047600091E09E878D8742E050E0BE01635F7F4FFE
:10477000C8010E947F181E861D8642E050E0BE01DF
:10478000635F7F4FC8010E947F1842E050E0BE0186
:10479000635F7F4FC8010E947F1842E050E0BE0176
:1047A000635F7F4FC8010E947F185601F501808129
:1047B000882311F1F6015F018191811115C0450136
:1047C0008C189D081814190494F48F8641E050E069
:1047D000BE01615F7F4FC8010E947F18A401B6012E
:1047E000C8010E947F1803C08E3229F7E8CF650107
:1047F000FFEFCF1ADF0ADACF1F8641E050E0BE019B
:10480000615F7F4FC8010E947F18C12CDD24D394C3
:10481000DE86CD8642E050E0BE01635F7F4FC80177
:104820000E947F18DE86CD8642E050E0BE01635FC5
:104830007F4FC8010E947F18C8010E94C718892BAA
:1048400009F46DCF63E0A62EB12CF2E06F0E711C5F
:10485000CFDB1B012C01C8010E94AC1618161906EB
:1048600094F0C6DBDC01CB0182199309A409B509D8
:1048700089389341A105B105C8F462E370E080E096
:1048800090E07EDBE8CFF70142815381648175813E
:10489000808D918DA28DB38D481759076A077B07CC
:1048A00041F4848D958DC59721F406C02FEF3FEF1D
:1048B00094C02EEF3FEF91C0F70181A192A10C9718
:1048C0000CF4A0C04CE050E0BE016F5F7F4FC80108
:1048D00060DD8B8190E0982F88272C81822B9A8B2A
:1048E000898B298130E0322F22274A81242BF7013E
:1048F000468157814217530709F081C097FF7FC057
:104900008F709270892B09F0D8C0CF80D12CDC2C0D
:10491000CC248885C82AC114D10409F4CBC0812CC9
:10492000912C8D8190E0982F88272E81822B8816DC
:10493000990608F46AC0812C912C41E050E0BE0138
:104940006D5E7F4FC80125DD8B89982F907C09F023
:104950008EC0811181C08B898111EFCF42E050E080
:10496000BE01615F7F4FC80114DD42E050E0BE012F
:10497000635F7F4FC8010DDDC8010E945C16C8014E
:104980000E945C16C8010E945C16C8010E945C1659
:1049900042E050E0BE016F5E7F4FC801FADC8F85B8
:1049A00098898115914009F067C02D853E85322791
:1049B000232732272130310509F05EC089899A8981
:1049C0008115944009F073C044E050E0B301C80180
:1049D0002C8B3D8BDEDC2C893D896901F1E0AF1A1F
:1049E000B10829F02FEFC216D20609F431CFC80161
:1049F0000E94EB17C60164C08EEF9FEF61C02CEFE1
:104A00003FEFEBCF2DEF3FEFE8CF41E050E0BE01AD
:104A1000635F7F4FC801BDDC8D85811113C08D851B
:104A20008111F3CFC8010E945C16C8010E945C1678
:104A3000C8010E945C16C8010E945C16FFEF8F1A25
:104A40009F0A6FCF8D859FEF980F9D87882339F33D
:104A5000C8010E945C16F6CF8B899FEF980F9B8B45
:104A6000882309F478CFC8010E945C16F5CFC801ED
:104A70000E945C161B8A6FCF412C512C89899A8920
:104A80009827892798274816590638F4C8010E94A4
:104A90005C168FEF481A580AF1CFEFEF8E1A9E0A74
:104AA0008C149D0409F049CF26EF3FEF96CF27EFF6
:104AB0003FEF93CF2AEF3FEF90CF2BEF3FEF8DCF1C
:104AC00065960FB6F894DEBF0FBECDBFDF91CF91D4
:104AD0001F910F91FF90EF90DF90CF90BF90AF901C
:104AE0009F908F907F906F905F904F903F902F900E
:104AF0000895CF93CFB7F89480916707811120C0B4
:104B0000EBE1F2E08491E1E6F2E09491E82FF0E04D
:104B1000EE0FFF1FE453FE4FA591B491EC91E923F2
:104B200019F461E085E3FDD985E3BBD08CB58061E4
:104B30008CBD8CB580648CBD84E3B3D083E3B1D0ED
:104B4000809167078F5F80936707CFBFCF910895EC
:104B50009B0190E00496982F8827642F820F931F63
:104B600027CB0F931F93CF93DF931F92CDB7DEB761
:104B700090E00496982F88278C01060F171F90DA73
:104B80008FE0BCDA812FBADA802FB8DA80E0B6DAAB
:104B9000898384DA89810F90DF91CF911F910F91E2
:104BA00008951F93CF93DF93182F68E270E0D9DF49
:104BB000C82FD0E069E270E0812FD3DFDC2FCC2753
:104BC0009E01282BC901DF91CF911F910895CF93AA
:104BD000DF93C82FD62F472F60E170E0B9DF4D2F4C
:104BE00061E170E08C2FDF91CF91B2CF90E0982FF0
:104BF000882744E050E0845F9B4FB1CACF93DF9396
:104C0000C82FD62F472F64E070E0A2DF4D2F65E05C
:104C100070E08C2FDF91CF919BCF462F62E070E048
:104C200097CF0C942A310C94223188E697E0AAD8C9
:104C30008CEF93E0F8DF682F70E060577B4F88E6D9
:104C400097E0A3D886E145D9019751F48CEF93E022
:104C5000EADF8A3079F06AE08CEF93E0E2DF0AC0A5
:104C60008CEF93E0E0DF843129F064E18CEF93E096
:104C70000E942A318CEF93E0D6DF682F70E06D56EA
:104C80007B4F88E697E081D888E697E07BD868EE8E
:104C900073E080E090E074D988E003D060E088E0C1
:104CA00040C990E0FC01E45DFD4F2491FC01EA5114
:104CB000FE4F8491882399F090E0880F991FFC01A2
:104CC000E453FE4FA591B491FC01EE54FE4F859143
:104CD00094918FB7F894EC91E22BEC938FBF0895E9
:104CE0005F926F927F928F929F92AF92BF92CF927C
:104CF000DF92EF92FF920F931F93CF93DF937C018C
:104D00008B01542EDB011496CD90DC901597E601B3
:104D1000219780E090E0EFEFFFEFA12CB12C60E055
:104D200070E0582F992EC817D9079CF1261737071E
:104D300044F18C159D0558F4D8016D907C90611458
:104D4000710429F0D301A80FB91F8C9001C0812CE8
:104D5000DC011196851431F08C179D0719F05E2F38
:104D60009F2E0BC06F5F7F4F5F014FEFA41AB40AF5
:104D70008C179D0711F45A2F9B2ECD01E52FF92D8D
:104D8000D0CFEF016501EA15FB0560F46F01E50185
:104D900009C026173707ACF36BEF74E0C7010E9418
:104DA000F51D24C06BEF74E0C7010E94F51DF801EA
:104DB00084819581C816D906C8F48C179D0708F41C
:104DC000EC01D801ED91FC911197EC0FFD1FB08023
:104DD00010826D917C916C0D7D1DC7010E9476152E
:104DE000D801ED91FC91CE0FDF1FB882C701DF9192
:104DF000CF911F910F91FF90EF90DF90CF90BF90D8
:104E0000AF909F908F907F906F905F900895CF9319
:104E1000DF93CDB7DEB768970FB6F894DEBF0FBE4D
:104E2000CDBF789484B5826084BD84B5816084BD33
:104E300085B5826085BD85B5816085BD80916E0038
:104E4000816080936E001092810080918100826069
:104E500080938100809181008160809381008091A6
:104E600080008160809380008091B1008460809395
:104E7000B1008091B00081608093B000809191007A
:104E80008260809391008091910081608093910075
:104E9000809190008160809390008091A100826059
:104EA0008093A1008091A10081608093A1008091F6
:104EB000A00081608093A000809121018260809396
:104EC0002101809121018160809321018091200145
:104ED00081608093200180917A00846080937A00C1
:104EE00080917A00826080937A0080917A0081605C
:104EF00080937A0080917A00806880937A00109283
:104F0000C10086E1CEDE61E086E10BD887E1C9DE33
:104F100061E087E106D8E0917807F091790782E0B7
:104F20008083E0917407F09175071082E091760715
:104F3000F09177078FEC808310928007E0917C07D7
:104F4000F0917D0786E08083E0917A07F0917B07FE
:104F5000808180618083E0917A07F0917B07808176
:104F600088608083E0917A07F0917B078081806878
:104F70008083E0917A07F0917B0780818F7D808329
:104F8000B8DD8091E1088DDE61E08091E1080E944A
:104F9000911F8091E20885DE8091E2080E94691FDE
:104FA000892B61F461E08091E2080E94911F62E325
:104FB00070E080E090E00E94C01F0FC06FE082E0D0
:104FC0000E94B21162E370E080E090E00E94C01F96
:104FD00082E00E94E71184FDFBCF60E884E50E9437
:104FE000B21169EA86E50E94B21163E088E50E9489
:104FF000B21168EE8AE50E94B21160E48AE20E9472
:10500000B2116DE382E20E94B21188E20E94E711C0
:10501000982F9370933029F0682F636088E20E9484
:10502000B21167EC74E088E697E00E94C51E88E63E
:1050300097E00E94C21E0AED12E01A830983809154
:10504000B3089091B408A091B508B091B6088B83CD
:105050009C83AD83BE8318870F838091B90890919C
:10506000BA08A091BB08B091BC0889879A87AB8722
:10507000BC871E870D878091BF089091C008A091C2
:10508000C108B091C2088F87988BA98BBA8B1C8BF3
:105090000B8B8091230890912408A0912508B09152
:1050A00026088D8B9E8BAF8BB88F9E012F5F3F4F55
:1050B000AE01495F5F4FBE01635F7F4FCE014396F4
:1050C0000E94901066EE74E088E697E00E94D51E7C
:1050D0001A8309831B821C821D821E8200E021E04C
:1050E00040E059E06DE370E0CE0107966EDA8F8103
:1050F00098850E947C1844E050E0BE016D5F7F4FB0
:105100008FE090E002D80E947B1868E677E0CE013D
:1051100001960E947A1E88E697E00E94C21E0E94B5
:105120006D010E942C1DFBCF8FE298E00E94A0151C
:1051300085E398E00E94A0158BE398E00E94A015FB
:1051400081E498E00E94A01587E498E00E94A015F1
:1051500089EC98E00E94A0158FEC98E00C94A015C3
:10516000AF92BF92CF92DF92EF92FF920F931F9375
:10517000CF93DF93CDB7DEB72C970FB6F894DEBF91
:105180000FBECDBFE9EEF8E00AED12E01183008317
:105190001282138214821582E8E6F7E013821282EB
:1051A00088EEC82E83E0D82EE12CF12CC482D58263
:1051B000E682F7828EE592E09183808385EC90E031
:1051C0009587848784EC90E09787868780EC90E0D1
:1051D000918B808B81EC90E0938B828B82EC90E0C2
:1051E000958B848B86EC90E0978B868B118E128E3C
:1051F000138E148EEFEEF8E0118300831282138277
:1052000014821582E5EFF8E0118300831282138285
:1052100014821582EBEFF8E011830083128213826F
:1052200014821582E1E0F9E0118300831282138277
:1052300014821582E5E0F8E0118300831282138264
:1052400014821582EDE0F8E011830083128213824C
:1052500014821582E7E0F9E0118300831282138241
:1052600014821582EDE0F9E011830083128213822B
:1052700014821582E3EEF8E0118300831282138218
:1052800014821582E5EDF8E085E3848789E285875D
:105290006CEF74E08FEC98E00E94F51D6AE075E019
:1052A00089EC98E00E94F51DE3ECF8E0118300839F
:1052B00088E08283838384838583EDEBF8E0118328
:1052C00000839FEF9283938394831582E7EBF8E04A
:1052D0001183008390EC928398EA9383148291E087
:1052E0009583E1EBF8E011830083828383838483D9
:1052F000858324D72DE6A22E28E0B22E2FEF30E0B2
:1053000040E050E0B5D7F5016083118283E08283ED
:10531000138240E450E06AE170E081E798E0C0D396
:10532000E7E6F8E0138212828EEB92E091838083AD
:1053300080E590E095838483EAE5F8E013821282A9
:10534000C482D582E682F7822AE932E03183208363
:1053500084E08487EDE4F8E013821282C482D5826F
:10536000E682F7823183208384876BEF74E087E4E1
:1053700098E00E94F51D6BEF74E081E498E00E94D4
:10538000F51D6BEF74E08BE398E00E94F51D6BEF69
:1053900074E085E398E00E94F51D6BEF74E08FE206
:1053A00098E00E94F51D6FEC78E0CE0101960E9416
:1053B000D01520E030E04CE2BE016F5F7F4FCE01A0
:1053C00007968EDCCE0107960E94FE14C62EC09270
:1053D0002D0870932E08CE0107960E94A015CE01CD
:1053E00001960E94A0156FEC78E0CE0101960E9414
:1053F000D01521E030E04CE2BE016F5F7F4FCE015F
:1054000007966EDCCE0107960E94FE14D62ED0922F
:105410002B0870932C08CE0107960E94A015CE0190
:1054200001960E94A0156FEC78E0CE0101960E94D3
:10543000D01522E030E04CE2BE016F5F7F4FCE011D
:1054400007964EDCCE0107960E94FE14E62EE092EF
:10545000290870932A08CE0107960E94A015CE0154
:1054600001960E94A0156FEC78E0CE0101960E9493
:10547000D01523E030E04CE2BE016F5F7F4FCE01DC
:1054800007962EDCCE0107960E94FE14F62EF092AF
:10549000270870932808CE0107960E94A015CE0118
:1054A00001960E94A015E1E2F8E011830083C28218
:1054B000D382E482F58269EC78E0CE0101960E9405
:1054C000D01520E030E04EE2BE016F5F7F4FCE018D
:1054D000079606DCCE0107960E94FE14C62EC092E7
:1054E0001F0870932008CE0107960E94A015CE01D8
:1054F00001960E94A01569EC78E0CE0101960E9409
:10550000D01521E030E04EE2BE016F5F7F4FCE014B
:105510000796E6DBCE0107960E94FE14D62ED092A7
:105520001D0870931E08CE0107960E94A015CE019B
:1055300001960E94A01569EC78E0CE0101960E94C8
:10554000D01522E030E04EE2BE016F5F7F4FCE010A
:105550000796C6DBCE0107960E94FE14E62EE09267
:105560001B0870931C08CE0107960E94A015CE015F
:1055700001960E94A01569EC78E0CE0101960E9488
:10558000D01523E030E04EE2BE016F5F7F4FCE01C9
:105590000796A6DBCE0107960E94FE14F62EF09227
:1055A000190870931A08CE0107960E94A015CE0123
:1055B00001960E94A015E3E1F8E011830083C28206
:1055C000D382E482F5822C960FB6F894DEBF0FBE2C
:1055D000CDBFDF91CF911F910F91FF90EF90DF90A2
:1055E000CF90BF90AF90089597FB072E16F40094CC
:1055F00006D077FD08D01AD007FC05D03EF4909570
:1056000081959F4F0895709561957F4F0895EE0F96
:10561000FF1F881F8BBF0790F691E02D1994692713
:10562000962769277827872778270895AA1BBB1B09
:1056300051E107C0AA1FBB1FA617B70710F0A61B92
:10564000B70B881F991F5A95A9F780959095BC01B3
:10565000CD010895CF93DF938230910510F482E05D
:1056600090E0E0911509F091160920E030E0C0E0EB
:10567000D0E0309711F14081518148175907C0F0AF
:105680004817590761F482819381209719F09B8311
:105690008A832BC0909316098093150926C0211583
:1056A000310519F04217530718F49A01BE01DF01C2
:1056B000EF010280F381E02DDCCF2115310509F1E6
:1056C000281B390B2430310590F412968D919C9152
:1056D00013976115710521F0FB019383828304C048
:1056E0009093160980931509FD01329644C0FD017F
:1056F000E20FF31F81939193225031092D933C9334
:105700003AC02091130930911409232B41F42091C0
:105710001A0230911B02309314092093130920912F
:105720001802309119022115310541F42DB73EB709
:1057300040911C0250911D02241B350BE09113096E
:10574000F0911409E217F307A0F42E1B3F0B281762
:10575000390778F0AC014E5F5F4F2417350748F0EA
:105760004E0F5F1F50931409409313098193919337
:1057700002C0E0E0F0E0CF01DF91CF9108950F93F8
:105780001F93CF93DF93009709F48CC0FC013297ED
:105790001382128200911509109116090115110545
:1057A00081F420813181820F931F20911309309160
:1057B00014092817390779F5F0931409E0931309B0
:1057C00071C0D80140E050E0AE17BF0750F4129608
:1057D0002D913C911397AD012115310509F1D901A6
:1057E000F3CF9D01DA013383228360817181860FBB
:1057F000971F8217930769F4EC0128813981260FDE
:10580000371F2E5F3F4F318320838A819B81938393
:105810008283452B29F4F0931609E093150942C0C1
:105820001396FC93EE931297ED01499159919E01C5
:10583000240F351FE217F30771F480819181840FE3
:10584000951F029611969C938E9382819381139655
:105850009C938E931297E0E0F0E0D80112968D9120
:105860009C911397009719F0F8018C01F6CF8D9158
:105870009C9198012E5F3F4F820F931F2091130937
:10588000309114092817390769F4309729F41092D8
:1058900016091092150902C013821282109314097E
:1058A00000931309DF91CF911F910F9108956F928B
:1058B0007F928F929F92AF92BF92CF92DF92EF92A0
:1058C000FF920F931F93CF93DF93EC01009781F426
:1058D000CB01DF91CF911F910F91FF90EF90DF905F
:1058E000CF90BF90AF909F908F907F906F90B2CEEF
:1058F000FC01E60FF71F9C0122503109E217F30764
:1059000008F4A8C0D9010D911C911197061717072B
:10591000A8F00530110508F49BC0C801049786174C
:10592000970708F495C002501109061B170B019345
:1059300011936D937C93CF0122DF8AC05B01A01A83
:10594000B10A4C01800E911EA0911509B091160963
:1059500040E050E0E12CF12C109709F44AC0A81562
:10596000B905D1F56D907C901197630182E0C80E66
:10597000D11CCA14DB0480F1A3014A195B096A0136
:1059800082E0C80ED11C1296BC9012971396AC916F
:10599000B5E0CB16D10440F0B282A383518340839B
:1059A000D9016D937C930AC00E5F1F4FC301800F16
:1059B000911FF90191838083EB2DFA2FE114F104FB
:1059C00031F0D7011396FC93EE93129741C0F093F8
:1059D0001609E09315093CC08D919C9111974817C9
:1059E000590708F4AC017D0112960D90BC91A02DD1
:1059F000B3CF809113099091140988159905E1F4AA
:105A000046175707C8F48091180290911902009721
:105A100041F48DB79EB740911C0250911D02841B2A
:105A2000950BE817F907B0F4F0931409E093130904
:105A3000F901718360830CC0CB010CDE7C010097FF
:105A400049F0A801BE0123D0CE0199DEC70104C0F0
:105A5000CE0102C080E090E0DF91CF911F910F91C5
:105A6000FF90EF90DF90CF90BF90AF909F908F907E
:105A70007F906F90089581E090E0F89456C4911162
:105A8000089581568A5108F4805285580895FB0183
:105A9000DC0102C001900D9241505040D8F70895AA
:105AA000DC0101C06D9341505040E0F70895FC01C6
:105AB0008191861721F08823D9F799270895319786
:105AC000CF010895FB01DC018D9101908019011037
:105AD000D9F3990B0895FB01DC0101900D92002090
