:100000003AC1000069C1000067C1000065C100007D
:1000100063C1000061C100005FC100005DC100005C
:100020005BC1000059C1000057C1000055C100006C
:1000300053C1000051C100004FC100004DC100007C
:100040004BC1000049C1000047C1000045C100008C
:1000500043C1000041C100003FC100000C940B20CF
:100060003BC100000C943A1F0C94111F35C10000D5
:1000700033C1000031C100002FC100002DC10000BC
:100080002BC1000029C1000027C1000025C10000CC
:1000900023C1000021C100001FC100001DC10000DC
:1000A0001BC1000019C1000017C1000015C10000EC
:1000B00013C1000011C100000FC100000DC10000FC
:1000C0000BC1000009C1000007C1000005C100000C
:1000D00003C1000001C10000FFC00000FDC000001E
:1000E000FBC00000861D891D781D7C1D821DC01D62
:1000F0008D1D911D971D9B1D9F1DA51DA91DAD1D2E
:10010000C01DB31DB71DBB1D646973636F6E6E6543
:100110006374696E672E0054696D656F7574004372
:100120006F6E6E656374696F6E3A20636C6F736592
:100130000D0A00636F6E6E656374656400666169C5
:100140006C656400636F6E6E656374696E672E2EF6
:100150002E00000020002300260029002C002F0084
:1001600032000001000003010601090100000A0B32
:1001700002090C0D0E080703040100000000000036
:10018000000000000000000000000000000000006F
:10019000000000000000000012111000000000002C
:1001A000000000000000000000000000000000004F
:1001B000000000002200250028002B002E00310046
:1001C000340002010000050108010B0100002100BC
:1001D000240027002A002D00300033000101000018
:1001E000040107010A0105050505070508080808B7
:1001F000020202020A0A08080404040401010101BF
:1002000001010101030303030303030304070707B9
:100210000C0C0C0C0C0C0C0C02020202060606065E
:10022000060606060B0B0B0B0B0B0B0B010210202B
:10023000200808102040102040800201020108041C
:1002400002010102040810204080804020100804B0
:100250000201800402018040201008040201080409
:10026000020101020408102040800102040810204D
:100270004080B7289B2811241FBECFEFD1E2DEBFFC
:10028000CDBF00E00CBF15E0A0E0B2E0ECE5F3E686
:1002900000E00BBF02C007900D92A832B107D9F75A
:1002A00029E0A8E2B5E001C01D92A732B207E1F74C
:1002B00011E0CAE3D1E000E006C021970109802FD8
:1002C000FE010E940F2BC933D10780E00807A9F770
:1002D0000E940E270C949D3193CE2F923F924F9205
:1002E0005F926F927F928F929F92AF92BF92CF92C6
:1002F000DF92EF92FF920F931F93CF93DF93CDB7CF
:10030000DEB7C251D1400FB6F894DEBF0FBECDBFED
:1003100020900002309001020E94FF1FC090300523
:10032000D0903105E0903205F09033058B019C01AF
:100330000C191D092E093F0980913405909135054E
:10034000A0913605B0913705083E134021053105CF
:10035000D0F00196A11DB11D809334059093350511
:10036000A0933605B0933705B701A60148515C4FFD
:100370006F4F7F4F409330055093310560933205A6
:1003800070933305C9CF40912C0550912D05609194
:100390002E0570912F0584179507A607B70708F457
:1003A00056C0E0912A05F0912B05309709F44FC013
:1003B0001995611571058105910539F16093340531
:1003C000709335058093360590933705DC01CB019A
:1003D000845D9E4FAF4FBF4F80932C0590932D05AA
:1003E000A0932E05B0932F0582E090E0909329050D
:1003F000809328050E94FF1F60933005709331059C
:10040000809332059093330522C0809134059091FA
:100410003505A0913605B0913705845D9E4FAF4FED
:10042000BF4F80932C0590932D05A0932E05B0937C
:100430002F0581E090E02091280530912905232B9C
:1004400011F480E090E09093290580932805809036
:10045000340590903505A0903605B0903705809111
:10046000380590913905A0913A05B0913B05881661
:100470009906AA06BB0609F4C2C0ECE3CE2ED12C25
:10048000E12CF12CC501B401A70196010E946C3149
:1004900060933C05CA01B901A70196010E946C3125
:1004A00060933D05CA01B90128E130E040E050E029
:1004B0000E946C3169017A0160933E05CA01B9015D
:1004C0006C5F7F4F8F4F9F4F27E030E040E050E060
:1004D0000E946C316F5F60933F05412C512C3201BB
:1004E00040E000E911E0242F30E02E54384FF901AC
:1004F000E370FF27309791F4C90164E670E00E9431
:10050000FC2A892B31F4C901B8010E94FC2A892BED
:1005100029F48EE691E0A0E0B0E004C08DE691E021
:10052000A0E0B0E0480E591E6A1E7B1ED301C20136
:10053000AA27BB27C816D906EA06FB0610F04F5FAC
:10054000D2CF40934205309799F4C90164E670E038
:100550000E94FC2A892B39F4C90160E971E00E94EC
:10056000FC2A892B29F48EE691E0A0E0B0E004C0DB
:100570008DE691E0A0E0B0E0481A590A6A0A7B0AC9
:10058000C418D508E608F708C90164E670E00E94BF
:10059000FC2A8C01C90160E971E00E94FC2AA2E2F8
:1005A000B2E020E0213041F4309751F401151105FB
:1005B00029F4009729F402C04C9103C04DE101C019
:1005C0004CE150E060E070E0C416D506E606F706A0
:1005D00040F0C41AD50AE60AF70A2F5F11962C30AC
:1005E00009F72F5F20934105C394C0924005809284
:1005F000380590923905A0923A05B0923B0580915A
:100600003C0590E02816390609F05CC38091000291
:10061000909101028733910511F0059602C085E0A3
:1006200090E090930102809300021E821D82188642
:100630001F8219861A861B861C868E01035F1F4F38
:1006400060E4F62EF8012F2D11922A95E9F71A820F
:1006500019821C821B828AED92E062969FAF8EAF58
:10066000629766961CAE1DAE1EAE1FAE669760E129
:1006700070E080917F080E942F126FEF80917F08B9
:100680000E94142643E060E070E080917F080E94A1
:10069000AF2541E064E170E080917F080E94AF25C2
:1006A00060E070E080917F080E94052661E070E0C4
:1006B00080917F080E942F1280917E0891E0980F10
:1006C00090937E0820917D0830E0CA55DF4F398332
:1006D0002883C65AD04090E0C855DF4F998388835D
:1006E000C85AD0400E94FF1FC655DF4F68837983E8
:1006F0008A839B83CA5AD040E1E8F8E0A2EAB0E0DE
:10070000AC0FBD1F1C9601900D92FA94E1F788E0A2
:10071000CE55DF4F8883C25AD040CD55DF4F188267
:10072000C35AD04020E038E0C855DF4F4881598196
:10073000C85AD040CA55DF4F88819981C65AD040E7
:10074000480F591FC455DF4F68817981CC5AD0407A
:10075000C655DF4F88819981CA5AD040860F971FAE
:10076000A0E0B0E0840F951FA11DB11D820F931F63
:10077000A11DB11D72EAE72EF12CEC0EFD1E3DE02D
:10078000E30EF11CAE0141515F4FB7016150710999
:10079000F7012081FB013081820F931FA11DB11D44
:1007A000F2E0EF0EF11CE416F50679F7AD016627CD
:1007B0007727AA27BB27840F951FA61FB71FAD0158
:1007C00066277727840F951FA61FB71F80959095E2
:1007D000CC55DF4F99838883C45AD040109280084B
:1007E00056E5C52ED12CCC0EDD1E28E0C20ED11C44
:1007F000809180088111F5C18091D508C251DF4FE9
:100800008883CE5ED0408091D608C151DF4F888367
:10081000CF5ED0408091D708C051DF4F8883C05F42
:10082000D0408091D808CF50DF4F8883C15FD0403F
:10083000BE0162517F4F80917F080E94FD2540E8F4
:1008400066E170E080917F080E94AF2560E070E073
:1008500080917F080E94EE25CE55DF4F8881C25AD5
:10086000D04067968FAF6797CD55DF4F8881C35AC9
:10087000D04068968FAF6897CC55DF4F88819981BB
:10088000C45AD0409827892798276A969FAF8EAF81
:100890006A97CA55DF4F88819981C65AD0409827F8
:1008A000892798276C969FAF8EAF6C97C855DF4FFE
:1008B00088819981C85AD0409827892798276E96B1
:1008C0009FAF8EAF6E97C655DF4F688179818A8161
:1008D0009B81CA5AD0400E94172BA2966CAF7DAF65
:1008E0008EAF9FAFA29780E4E2EAF0E0EC0FFD1F2D
:1008F0003C96A6E5B0E0AC0FBD1F1C9601900D9292
:100900008A95E1F72CE430E0AE014A5A5F4F60E08F
:1009100070E080917F080E94A11260E270E08091F7
:100920007F080E942F1262E070E080917F080E9491
:10093000B82584FD10C062E070E080917F080E94BD
:10094000B82583FFF0CF68E180917F080E941426CC
:1009500081E090E007C060E180917F080E9414264A
:1009600080E090E060969FAF8EAF6097892B09F092
:1009700032C10E94FF1F2B013C0190E4992E26E515
:10098000A22EB12CAC0EBD1E3CE0A30EB11C0E94E9
:10099000FF1FDC01CB0184199509A609B709883E20
:1009A0009340A105B10508F010C180917F080E9415
:1009B0008512892B61F380917F080E94D8257C01E4
:1009C000BC01772726E030E0AE0142515F4F8091B5
:1009D0007F080E943F1246E0E40EC251DF4F88813B
:1009E000CE5ED04063968FAF6397C151DF4F888151
:1009F000CF5ED04064968FAF6497C051DF4F88813F
:100A0000C05FD04065968FAF6597CF50DF4F88812C
:100A1000C15FD04066968FAF6697CD50DF4FF880AC
:100A2000C35FD0408CE48F1510F48CE4F82E2F2D8A
:100A300030E06E2D70E0AE014A5A5F4F80917F0822
:100A40000E943F1267962FAD6797298368968FADF6
:100A500068978A836A968EAD9FAD6A979827892793
:100A600098279C838B836C968EAD9FAD6C9798274F
:100A7000892798279E838D836E968EAD9FAD6E9746
:100A800098278927982798878F832B3071F0A29613
:100A90006CAD7DAD8EAD9FADA2970E94172B69877F
:100AA0007A878B879C87F50101C0F601D801892DD3
:100AB00001900D928A95E1F7EF0CF0907F0840E0ED
:100AC00068E270E08F2D0E94AF254E2D69E270E044
:100AD0008F2D0E94AF2560E470E080917F080E9416
:100AE0002F1266E170E080917F080E94B8252E9653
:100AF0008FAF2E978981882319F08B30F1F047CF83
:100B00002D813E81CA55DF4F88819981C65AD040D8
:100B10002817390709F03BCF2F813885C855DF4F9B
:100B200088819981C85AD0402817390709F02FCFFA
:100B300060961FAE1EAE60974EC0ED85EF7094E0DC
:100B4000E99FF0011124A1E0B0E0AC0FBD1FAE0F92
:100B5000BF1F18964D915D916D917C911B9780916F
:100B6000D5089091D608A091D708B091D808481719
:100B700059076A077B0709F00ACF3C9621E030E06D
:100B80002C0F3D1FE20FF31F868197812481358151
:100B9000322723273227CA55DF4F48815981C65A49
:100BA000D0402417350709F0F2CE982789279827D7
:100BB000C855DF4F28813981C85AD0408217930722
:100BC00009F0E5CE83E090E002C082E090E060961C
:100BD0009FAF8EAF609760968EAD9FAD6097892B6B
:100BE00021F560E170E080917F080E942F126FEF85
:100BF00080917F080E94142660968EAD9FAD60970D
:100C00000097C9F41F921F9285EE92E09F938F93F5
:100C100083E495E09F938F930E94942D0F900F9003
:100C20000F900F900F900F902FC0809180088F5FD2
:100C300080938008DDCD8230910509F51F9282E016
:100C40008F9380E093E09F938F9383E495E09F934D
:100C50008F930E94942D85E00E94701F0F900F903B
:100C60000F900F900F900F90892B71F46CE173E04F
:100C700088E797E00E94CC1E0E941C2605C09F9327
:100C80008F9385E293E0DFCF63E475E088E797E038
:100C90000E94CC1E4091000250910102052E000CD2
:100CA000660B770B77FF05C088E797E00E94591E17
:100CB00005C02AE088E797E00E94111E88E797E0C8
:100CC0000E94C91E8CEF93E00E941A2690E0909338
:100CD0004406809343060A9739F486E10E94701F08
:100CE000019759F061E006C086E10E94701F892BD0
:100CF00021F060E086E10E94981F00914E0610915D
:100D00004F0682E00E94701F0817190751F50091E5
:100D100052061091530687E00E94701F08171907AA
:100D200001F5009154061091550685E00E94701F50
:100D300008171907B1F4009156061091570686E07E
:100D40000E94701F0817190761F400911207109193
:100D5000130786E10E94701F0817190711F40C94FD
:100D6000911081E090E0909349068093480687E0D7
:100D70000E94701F0091500610915106892B69F452
:100D800082E00E94701F0817190749F081E090E087
:100D9000909349068093480602C083E0F2CF82E038
:100DA0000E94701F90934F0680934E0687E00E942A
:100DB000701F892B11F482E001C083E00E94701F34
:100DC000909351068093500687E00E94701F909385
:100DD00053068093520685E00E94701F909355063B
:100DE0008093540686E00E94701F9093570680936C
:100DF000560686E10E94701F909313078093120796
:100E000069E075E0CE018A5F9E4F0E94FC1D82E082
:100E1000CE55DF4F8883C25AD04086E2CE5EDE4F89
:100E20008883C251D1408CE10E94EE11682F6F7708
:100E30008CE10E94B91187E067968FAF6797E12C2C
:100E40008E010A5A1F4F9E012E553F4FAE014F5F34
:100E50005F4F61E0CE018E5E9E4F0E9413148111A0
:100E60000DC0CE55DF4F8881C25AD040823041F448
:100E700067968FAD6797811103C00AC0823041F039
:100E800069E075E0CE018A5F9E4F0E947D1588C1A2
:100E90008CE10E94EE11682F6F778CE10E94B911EE
:100EA000AA24A394B12C83E98983DD24D394C12C93
:100EB000A7E07A2EF12C60E7662E73E0572E40E211
:100EC000F41221C06A829C818B8189279D818927A8
:100ED0009E8189278F83AE01485F5F4F67E0CE0117
:100EE00001960E94DF138111EDC0CE55DF4F1882AD
:100EF000C25AD04067965FAE6797CE0107964C0105
:100F000049E0442E2EC08F2D877887FF03C0815083
:100F1000886F8F5FCE55DF4F8883C25AD0409F2D98
:100F2000F7FE02C097E09F0D95959595959522E067
:100F3000290F382FE0E12E9F300D11243A8331E044
:100F4000811101C030E0432E420E88248394912CFD
:100F50008C0E9D1E820E911C872D891B67968FAF6C
:100F60006797CE55DF4FE880C25AD0406E2D62950C
:100F7000607F6E0D8AE10E94B9118E010E551F4FE0
:100F80009E012A5A3F4FA401642DCE0101960E9472
:100F90001314823089F58CE10E94EE1185FD70CF2B
:100FA0008F7109F480E2282F30E04F2DFF0C550B94
:100FB000421753070CF064CFF82EC90101978770D0
:100FC000992725952595259531E0320F21E0009749
:100FD00009F420E0230FE1E0F0E0EC0FFD1FE20F49
:100FE000F11D950102C0220F331F8A95E2F7C90156
:100FF0009081892B808363CF811164C030E2F31626
:1010000019F050E2F52E5ECF8B81883819F032E06E
:1010100024E002C033E023E080E090E06C2D70E03B
:10102000FC01E60FF71FEB51F74F432F480FA1E0EC
:10103000B0E0AC0FBD1FA40FB11D4C9141830196D0
:10104000821770F367968FAD6797833009F018CFDA
:10105000CE55DF4F8881C25AD040811111CFAE01E9
:101060004D5F5F4F61E0C4010E94DF1381112AC010
:101070009B81F4018181981303CF9C818281981315
:10108000FFCE808182FF15C0D394F2E0DF1205C04D
:1010900085E98983F3E0CF2E0DCF23E0D21205C07E
:1010A00087E98983E6E0CE2E05CF31E0D312E8CE82
:1010B000FACE8093F0088D2D880FD80ED394D0925D
:1010C000E50802C08111DCCE10E08091E508181718
:1010D00008F050C0812F90E0FC01EB51F74F7F01E9
:1010E0008181803118F065E075E002C062EE72E047
:1010F000CE0101960E94FC1D4D815E8169817A813D
:10110000CE018A5F9E4F0E941015CE0101960E946B
:10111000A715F701818168961FAE1EAE68976A9683
:101120001FAE1EAE6A976C961FAE1EAE6C9740E166
:10113000BE016F5F7F4F90E00E940131BE016F5F83
:101140007F4FCE018A5A9F4F0E947D156C964EADFF
:101150005FAD6C9768966EAD7FAD6897CE018A5F84
:101160009E4F0E941015CE018A5A9F4F0E94A715CC
:101170001F5FABCFCA5FDE4F08811981C650D140D7
:101180000115110569F0F8018081882349F0082EC6
:10119000000C990B0E94472DF80181938F01F3CF2A
:1011A00065E478E08FE398E00E949215BE016A5FE3
:1011B0007E4F85E498E00E949215C65FDE4F28813D
:1011C0003981CA50D1408091490890914A08232B17
:1011D00049F0CA5FDE4FE881F981C650D1402081D5
:1011E00021111EC0009739F0E0914508F0914608A2
:1011F0002081211115C02091430830914408232BF0
:1012000039F0E0913F08F09140082081211108C099
:1012100069E075E0CE018A5F9E4F0E947D1524C073
:10122000892B71F0E0914508F09146088081882370
:1012300039F065E478E0CE018A5F9E4F0E949215F6
:101240008091430890914408892B71F0E0913F0808
:10125000F09140088081882339F06FE378E0CE0177
:101260008A5F9E4F0E94921520914F08309150083E
:10127000C65FDE4F88819981CA50D140281739074F
:1012800059F580914B0890914C08009749F0CA5F3E
:10129000DE4F68817981C650D14061157105C1F476
:1012A000CA5FDE4FE881F981C650D140309741F0E6
:1012B000232BC9F0808190E09195819591090AC016
:1012C000009789F0232B79F0FC01808190E002C027
:1012D0000E946A2D892B39F081E090E090934706B7
:1012E0008093460604C010924706109246068091ED
:1012F000480690914906019709F070C160914E0629
:1013000070914F064AE0CE0193950E94AC15609112
:101310005006709151064AE0CE0186509F4F0E94C0
:10132000AC1560915206709153064AE0CE018C5084
:101330009F4F0E94AC1560915406709155064AE08B
:10134000CE0182519F4F0E94AC156091560670915C
:1013500057064AE0CE018E559F4F0E94AC15609112
:101360001207709113074AE0CE018A5A9F4F0E94DC
:10137000AC1566E373E0CE01845F9E4F0E94FC1DB6
:101380006FED78E0CE01845F9E4F0E944D150E9464
:101390003D15BE0173950E944D150E943D15BE017D
:1013A00066507F4F0E944D150E943D15BE016C5046
:1013B0007F4F0E944D150E943D15BE0162517F4F27
:1013C0000E944D150E943D15BE016E557F4F0E9433
:1013D0004D150E943D15BE016A5A7F4F0E944D1562
:1013E000BC01CE0101960E94D715CE01845F9E4FAD
:1013F0000E94A71519810A81612F702F88E797E055
:101400000E94CC1E1F921F920F931F9384E197E0BE
:101410009F938F930E94942D6BE473E088E797E08D
:101420000E94CC1E0AED12E0C45FDE4F19830883D0
:10143000CC50D1408091250890912608A091270892
:10144000B0912808C25FDE4F88839983AA83BB834B
:10145000CE50D1406CEA71EECE01845F9E4F0E9467
:1014600006130F900F900F900F900F900F90811117
:101470008EC067E573E088E797E00E94CC1EC45FEA
:10148000DE4F19830883CC50D1408091250890917C
:101490002608A0912708B0912808C25FDE4F8883F4
:1014A0009983AA83BB83CE50D1406CEA71EECE0102
:1014B000845F9E4F0E940613811169C063E673E04A
:1014C00088E797E00E94CC1EC45FDE4F1983088333
:1014D000CC50D1408091250890912608A0912708F2
:1014E000B0912808C25FDE4F88839983AA83BB83AB
:1014F000CE50D1406CEA71EECE01845F9E4F0E94C7
:101500000613811144C06FE673E088E797E00E94FC
:10151000CC1EC45FDE4F19830883CC50D14080912C
:10152000250890912608A0912708B0912808C25F4D
:10153000DE4F88839983AA83BB83CE50D1406CEA67
:1015400071EECE01845F9E4F0E94061381111FC071
:10155000C45FDE4F19830883CC50D14080912508A9
:1015600090912608A0912708B0912808C25FDE4F0D
:1015700088839983AA83BB83CE50D1406CEA71EEF5
:10158000CE01845F9E4F0E9406130E941C266BE7CB
:1015900073E088E797E00E94CC1ECE0101960E947E
:1015A000A715CE018A5A9F4F0E94A715CE018E55CE
:1015B0009F4F0E94A715CE0182519F4F0E94A715F1
:1015C000CE018C509F4F0E94A715CE0186509F4F91
:1015D0000E94A715CE0193950E94A71580914606FB
:1015E00090914706019709F0ACC1BE016A5F7E4F3A
:1015F0008BE498E00E949215C65FDE4F8881998146
:10160000CA50D140892B49F0CA5FDE4FE881F98189
:10161000C650D1408081811108C063EE72E0CE01D6
:101620008A5F9E4F0E947D1597C0BE016A5F7E4F04
:10163000CE0101960E94D71580E090E04FE52D8104
:101640003E8169817A8182179307E0F46115710503
:1016500029F410924506E5E4F6E003C0FB01E80F2B
:10166000F91F2081203261F46115710529F410926F
:101670004506E5E4F6E003C0FB01E80FF91F4083EF
:101680000196DDCF68967FAF6EAF68978B819C81A6
:101690006A969FAF8EAF6A976C963FAF2EAF6C97EE
:1016A0001A8219821C821B821E821D82CA5FDE4F33
:1016B00088819981C650D1400097D9F06115710594
:1016C000B1F0C85FDE4F48815981C850D140421700
:1016D000530768F00E94732D6C968EAD9FAD6C978A
:1016E000C65FDE4F99838883CA50D14028C00E94CC
:1016F000C72B68968EAD9FAD6897CA5FDE4F998302
:101700008883C650D1406A968EAD9FAD6A97C85FF8
:10171000DE4F99838883C850D1406C968EAD9FADC3
:101720006C97C65FDE4F99838883CA50D140689614
:101730001FAE1EAE68976A961FAE1EAE6A976C9675
:101740001FAE1EAE6C97CE018A5A9F4F0E94A715FE
:10175000CE0101960E94A7156DE873E0CE018A5A6A
:101760009F4F0E94FC1D6FED78E0CE018A5A9F4F7B
:101770000E944D150E943D15BE016A5F7E4F0E947A
:101780004D15BC01CE0101960E94D715CE018A5A93
:101790009F4F0E94A71519810A81612F702F88E73A
:1017A00097E00E94CC1E1F921F920F931F9384E11B
:1017B00097E09F938F930E94942D6BE473E088E7EA
:1017C00097E00E94CC1E0AED12E068961FAF0EAFA4
:1017D00068978091250890912608A0912708B091DC
:1017E00028086C968CAF9DAFAEAFBFAF6C976CEA1C
:1017F00071EECE018A5A9F4F09D70F900F900F902C
:101800000F900F900F90811192C064EF71E080E013
:1018100090E00E94C71F67E573E088E797E00E94A9
:10182000CC1E68961FAF0EAF6897809125089091E7
:101830002608A0912708B09128086C968CAF9DAF20
:10184000AEAFBFAF6C976CEA71EECE018A5A9F4F74
:10185000DDD681116CC064EF71E080E090E00E9401
:10186000C71F63E673E088E797E00E94CC1E689686
:101870001FAF0EAF68978091250890912608A09120
:101880002708B09128086C968CAF9DAFAEAFBFAF64
:101890006C976CEA71EECE018A5A9F4FB7D68111D0
:1018A00046C064EF71E080E090E00E94C71F6FE6E1
:1018B00073E088E797E00E94CC1E68961FAF0EAFDA
:1018C00068978091250890912608A0912708B091EB
:1018D00028086C968CAF9DAFAEAFBFAF6C976CEA2B
:1018E00071EECE018A5A9F4F91D6811120C064EFCC
:1018F00071E080E090E00E94C71F68961FAF0EAFB6
:1019000068978091250890912608A0912708B091AA
:1019100028086C968CAF9DAFAEAFBFAF6C976CEAEA
:1019200071EECE018A5A9F4F71D60E941C2660EA42
:1019300073E088E797E00E94CC1ECE0101960E94DA
:10194000A715BE016A5F7E4FCE018E559F4F0E9444
:10195000D71587E798E00E94341A84E6E82E87E0DE
:10196000F82E10E098EE892E93E0992EA12CB12C40
:101970002AE9C22E22E0D22E1C821B828D829E82F8
:10198000AF82B886DA82C9821D87F7012191319131
:101990007F0180917B0890917C082817390799F581
:1019A000CE0101960E945718873111F08C3159F5FC
:1019B000CE0101960E94AA16892B29F18B819C8168
:1019C0006A969FAF8EAF6A978D819E81AF81B885F1
:1019D0006E968CAF9DAFAEAFBFAF6E9789859A857F
:1019E000AB85BC85A2968CAF9DAFAEAFBFAFA297C3
:1019F0008AE992E068969FAF8EAF68978D85A3962F
:101A00008FAFA3971BC01F5F143009F0B5CF6A9644
:101A10001FAE1EAE6A9788EE93E0A0E0B0E06E962F
:101A20008CAF9DAFAEAFBFAF6E978AE992E068967C
:101A30009FAF8EAF6897A3961FAFA397A3968FAD66
:101A4000A397843009F44BC361EB73E088E797E018
:101A50000E94CC1ECA55DF4F48815981C65AD040DA
:101A6000CE55DF4F68817981C25AD04088E797E030
:101A70000E94491C88E797E00E94C91E11E0CE0130
:101A80008A5A9F4F0E945F18882309F423C3CE010E
:101A90008A5A9F4F0E94AA16892B89F3CE018A5A2F
:101AA0009F4F0E949016082F8091550890915608DC
:101AB0008436910550F409831A8241E050E0BE015A
:101AC0006F5F7F4F81E598E0ABD78091550890918B
:101AD0005608892B79F0E0905108F09052086FE396
:101AE00070E0C7010E945F2D009721F08E199F09B9
:101AF00097FF0FC00E3649F4112309F4BFCFCE0172
:101B00008A5A9F4F0E94C91EE5C2023709F4B7CF17
:101B100010E00A3009F0B3CF6EEB73E0CE0101960E
:101B20000E94FC1DCE01019624D67C01CE010196B7
:101B30000E94A7151E141F040CF0D4C165EC73E0BD
:101B400088E797E00E94CC1E6EEC73E0CE018A5AC3
:101B50009F4F0E94CC1E6EED73E0CE018A5A9F4FBC
:101B60000E94CC1E66EF73E0CE018A5A9F4F0E94FE
:101B7000CC1ECE018A5A9F4F0E94C91E68E074E0B5
:101B8000CE018A5A9F4F0E94CC1E6EE074E0CE01B7
:101B90008A5A9F4F0E94DC1ECA55DF4F48815981E7
:101BA000C65AD040CE55DF4F68817981C25AD040A5
:101BB000CE018A5A9F4F0E94AB1A65E174E0CE01B4
:101BC0008A5A9F4F0E94DC1E6DE174E0CE018A5A52
:101BD0009F4F0E94CC1E65E274E0CE018A5A9F4F4F
:101BE0000E94DC1E6AE274E0CE018A5A9F4F0E9476
:101BF000DC1E6CE274E0CE018A5A9F4F0E94DC1E0C
:101C000065E075E0CE018A5A9F4F0E94DC1E62E3B8
:101C100074E0CE018A5A9F4F0E94DC1E82E00E942F
:101C2000701FBC01CE018A5A9F4FBFD56BE374E091
:101C3000CE018A5A9F4F0E94DC1E65E474E0CE01FB
:101C40008A5A9F4F0E94CC1E6DE174E0CE018A5AE1
:101C50009F4F0E94CC1E65E274E0CE018A5A9F4FCE
:101C60000E94DC1E6EE474E0CE018A5A9F4F0E94EF
:101C7000DC1E6CE274E0CE018A5A9F4F0E94DC1E8B
:101C800065E075E0CE018A5A9F4F0E94DC1E62E338
:101C900074E0CE018A5A9F4F0E94DC1E83E00E94AE
:101CA000701FBC01CE018A5A9F4F7FD56BE374E051
:101CB000CE018A5A9F4F0E94DC1E65E474E0CE017B
:101CC0008A5A9F4F0E94CC1E6DE174E0CE018A5A61
:101CD0009F4F0E94CC1E65E274E0CE018A5A9F4F4E
:101CE0000E94DC1E60E574E0CE018A5A9F4F0E947C
:101CF000DC1E6CE274E0CE018A5A9F4F0E94DC1E0B
:101D000065E075E0CE018A5A9F4F0E94DC1E62E3B7
:101D100074E0CE018A5A9F4F0E94DC1E87E00E9429
:101D2000701FBC01CE018A5A9F4F3FD56BE374E010
:101D3000CE018A5A9F4F0E94DC1E65E474E0CE01FA
:101D40008A5A9F4F0E94CC1E6DE174E0CE018A5AE0
:101D50009F4F0E94CC1E65E274E0CE018A5A9F4FCD
:101D60000E94DC1E6BE674E0CE018A5A9F4F0E94EF
:101D7000DC1E6CE274E0CE018A5A9F4F0E94DC1E8A
:101D800065E075E0CE018A5A9F4F0E94DC1E62E337
:101D900074E0CE018A5A9F4F0E94DC1E85E00E94AB
:101DA000701FBC01CE018A5A9F4FFFD46BE374E0D1
:101DB000CE018A5A9F4F0E94DC1E65E474E0CE017A
:101DC0008A5A9F4F0E94CC1E6DE174E0CE018A5A60
:101DD0009F4F0E94CC1E65E274E0CE018A5A9F4F4D
:101DE0000E94DC1E62E574E0CE018A5A9F4F0E9479
:101DF000DC1E6CE274E0CE018A5A9F4F0E94DC1E0A
:101E000065E075E0CE018A5A9F4F0E94DC1E62E3B6
:101E100074E0CE018A5A9F4F0E94DC1E86E00E9429
:101E2000701FBC01CE018A5A9F4FBFD46BE374E090
:101E3000CE018A5A9F4F0E94DC1E65E474E0CE01F9
:101E40008A5A9F4F0E94CC1E6DE174E0CE018A5ADF
:101E50009F4F0E94CC1E65E274E0CE018A5A9F4FCC
:101E60000E94DC1E64E574E0CE018A5A9F4F0E94F6
:101E7000DC1E6CE274E0CE018A5A9F4F0E94DC1E89
:101E800065E075E0CE018A5A9F4F0E94DC1E62E336
:101E900074E0CE018A5A9F4F0E94DC1E86E10E94A8
:101EA000701FBC01CE018A5A9F4F7FD46BE374E050
:101EB000CE018A5A9F4F0E94DC1E65E474E0CE0179
:101EC0008A5A9F4F0E94CC1E68E574E0CE018A5A60
:101ED0009F4F0E94CC1E6FE574E0CE018A5A9F4F3F
:101EE0000E94CC1E6DE674E0CE0101960E94FC1D9E
:101EF000CE0101963ED47C01CE01019628D61E1457
:101F00001F04D4F461E086E10E94981F63E774E047
:101F100088E797E00E94CC1E68EE73E080E090E0D6
:101F20000E94C71F60E086E10E94981F6AE774E084
:101F300088E797E00E94CC1E62E874E0CE0101962B
:101F40000E94FC1DCE01019614D47C01CE010196A5
:101F5000FED51E141F0414F40E941C2668E874E0C9
:101F6000CE0101960E94FC1DCE01019602D47C0197
:101F7000CE010196ECD51E141F040CF04AC061E09E
:101F800086E10E94981F6FE874E088E797E00E945E
:101F9000CC1E88E797E00E94C91E8CEF93E00E9458
:101FA0001A26682F70E062567B4F88E797E00E9400
:101FB000CC1E88E797E00E94C91E86E10E94701F30
:101FC000019741F48CEF93E00E941A268A3069F061
:101FD0006AE007C08CEF93E00E941A26843129F052
:101FE00064E18CEF93E00E94182688E797E00E9456
:101FF000C91E8CEF93E00E941A26682F70E06F557F
:102000007B4F88E797E00E94CC1E88E797E00E940C
:10201000C91E64EA74E0CE0101960E94FC1DCE0147
:102020000196A7D37C01CE01019691D51E141F0401
:102030000CF04AC060E086E10E94981F6AEA74E0F2
:1020400088E797E00E94CC1E88E797E00E94C91EAF
:102050008CEF93E00E941A26682F70E062567B4F47
:1020600088E797E00E94CC1E88E797E00E94C91E8F
:1020700086E10E94701F019741F48CEF93E00E946B
:102080001A268A3069F06AE007C08CEF93E00E945C
:102090001A26843129F064E18CEF93E00E9418261F
:1020A00088E797E00E94C91E8CEF93E00E941A26F1
:1020B000682F70E06F557B4F88E797E00E94CC1E39
:1020C00088E797E00E94C91E69E075E081E598E025
:1020D00014D5D5CCCE018A5A9F4F0E94D819CE0173
:1020E0008E559F4F34D5CE018A5F9E4F30D5CE5E40
:1020F000DE4F0FB6F894DEBF0FBECDBFDF91CF919C
:102100001F910F91FF90EF90DF90CF90BF90AF9015
:102110009F908F907F906F905F904F903F902F9007
:10212000089510924906109248060C94B7068F92B3
:102130009F92AF92BF92CF92DF92EF92FF920F9356
:10214000CF93DF931F921F92CDB7DEB74C015B0197
:102150006A0179016CE271E080E090E00E94C71FA3
:102160000E948025249A00E021E040E059E06DE3E0
:1021700070E0CE0101960E94EC2289819A81C3D73A
:1021800060E880E090E00E94DF2065E58BE190E070
:102190000E94DF2065E58AE190E00E94DF20B2D74F
:1021A000E4E5F7E080E090E49183808380E090E6CE
:1021B0009187808780E098E49383828380E098E62B
:1021C0009387828780E090E59583848380E090E721
:1021D0009587848780E098E59783868380E098E7F9
:1021E0009787868721E040E059E06DE370E0CE01FB
:1021F00001960E94EC2289819A8185D746E050E0C1
:1022000060E172E089E090E00E94B620B4016E5F68
:102210007F4F44E050E08FE090E00E94B620B6018E
:102220006E5F7F4F44E050E081E090E00E94B62076
:10223000B7016E5F7F4F44E050E085E090E00E9480
:10224000B62060D7F50182819381A481B581809306
:10225000170890931808A0931908B0931A080F90C4
:102260000F90DF91CF910F91FF90EF90DF90CF9083
:10227000BF90AF909F908F900895CF92DF92EF9292
:10228000FF920F931F93CF93DF931F921F92CDB7AF
:10229000DEB7E82EF62EC72E00E021E040E050E049
:1022A000BA01CE0101960E94EC2289819A812BD736
:1022B00060E08091F1080E94981F82E10E948520D1
:1022C000DF2C0F2D1C2D802F8D198E1530F4F80169
:1022D00081918F010E948520F6CF61E08091F10805
:1022E0000E94981F0FD70F900F90DF91CF911F91F1
:1022F0000F91FF90EF90DF90CF9008950E94432DB3
:102300000F931F93CF93DF93EC01888199810097FE
:1023100029F02A813B812617370788F48B016F5FEC
:102320007F4F0E945F2C009761F0998388831B8305
:102330000A832C813D81232B11F4FC01108281E062
:1023400001C080E0DF91CF911F910F910895CF934D
:10235000DF93EC0188819981009711F00E94C72BCF
:10236000198218821D821C821B821A82DF91CF91F2
:102370000895EF92FF920F931F93CF93DF931F92D5
:102380001F92CDB7DEB7E82EF62E00E021E040E048
:1023900050E0BA01CE0101960E94EC2289819A8117
:1023A000B2D605EE18E060E0F80184850E94981F1F
:1023B0008E2D8E770E9485208F2D0E94852061E0D2
:1023C000F80184850E94981F9DD60F900F90DF9191
:1023D000CF911F910F91FF90EF900895EF92FF9290
:1023E0000F931F93CF93DF931F921F92CDB7DEB74A
:1023F000182F00E021E040E050E0BA01CE01019644
:102400000E94EC2289819A817ED685EEE82E88E0B2
:10241000F82E60E0F70184850E94981F812F8E7747
:1024200080680E94852080E00E948520182F61E04E
:10243000F70184850E94981F65D6812F0F900F9019
:10244000DF91CF911F910F91FF90EF900895CF935F
:10245000C82FC4DF682F60688C2FCF918ACFCF93AD
:10246000C82F462F61E070E00E94AF2561E070E068
:102470008C2F0E94B8258111F9CFCF910895AF928A
:10248000BF92CF92DF92EF92FF920F931F93CF9361
:10249000DF931F921F92CDB7DEB77A836983BA01AB
:1024A000A901E981FA81F770082F10E0000F111FD0
:1024B000045A184FD8018D919C918E0F9F1F2E0F9B
:1024C0003F1F2130384098F07A015B0120E038E06E
:1024D0006901CE1ADF0AA6010E948C20A7014C19BF
:1024E0005D09B5016C0D7D1DF801808191810F9012
:1024F0000F90DF91CF911F910F91FF90EF90DF90A0
:10250000CF90BF90AF900C948C20FF920F931F93AD
:10251000CF93DF93F82EC0E0D0E08F2D0E9459209A
:102520008C01892B21F08F2D0E945920EC01C017BE
:10253000D10799F7CE01DF91CF911F910F91FF90B5
:1025400008959F92AF92BF92CF92DF92EF92FF9247
:102550000F931F93CF93DF93982E8B015A0169013C
:1025600064E270E00E94B825E82EF12C65E270E08C
:10257000892D0E94B825FE2CEE24E82AE701C00F21
:10258000D11F9E013770E92CF12CC701880F991FCC
:10259000AC014C5A584F7A01FA0180819181820F27
:1025A000931FA9014C0D5D1D4130584090F000E093
:1025B00018E0021B130BA801B5010E94B620A6016A
:1025C000401B510BB501600F711FF7018081918194
:1025D00002C0A601B5010E94B620CC0DDD1D4D2F15
:1025E00064E270E0892D0E94AF254C2F65E270E017
:1025F000892DDF91CF911F910F91FF90EF90DF9088
:10260000CF90BF90AF909F900C94AF25EF92FF9228
:102610000F931F93CF93DF93CDB7DEB7C058D10987
:102620000FB6F894DEBF0FBECDBF7C018B0164E412
:1026300071E088E797E00E94DD1E8AED92E09A83C0
:102640008983F70182819381A481B5818B839C83E7
:10265000AD83BE83A8018E010F5F1F4FB8018AE6CC
:1026600098E00E94AF1B019709F06EC063E371E030
:1026700088E797E00E94011F84E197E09F938F9382
:102680008CEB94E09F938F931F930F930E94942D54
:10269000B8018AE698E00E94CC1E82E092E09F9307
:1026A0008F938CEC94E09F938F931F930F930E94D2
:1026B000942DB8018AE698E00E94CC1E6FE171E08B
:1026C0008AE698E00E94011F0FB6F894DEBF0FBEA5
:1026D000CDBF00E010E08AE698E0F1D4882329F12C
:1026E0008AE698E037D3892B31F08AE698E018D350
:1026F00000E010E0F5CF0F5F1F4F093893E1190795
:102700006CF088E797E00E94C91E67E171E088E7F6
:1027100097E00E94011F8AE698E04AD661E070E0E7
:1027200080E090E00E94C71FD6CF88E797E00E9424
:10273000C91E68E071E088E797E00E94011F8AE601
:1027400098E036D681E007C06DE371E088E797E056
:102750000E94011F80E0C058DF4F0FB6F894DEBF23
:102760000FBECDBFDF91CF911F910F91FF90EF90E2
:102770000895CF93DF932091550830915608232B6D
:1027800079F0FC01C0915108D091520860817181AB
:10279000CE010E947A2D009719F08C1B9D0B02C070
:1027A0008FEF9FEFDF91CF910895AB01770F660B0D
:1027B000770B77FD0C94591E2AE00C94111EEF92B2
:1027C000FF920F931F93CF93DF937C01C62F8A0153
:1027D00060E082E0CEDD64E08AE0CBDD84E137DEDC
:1027E000B7018C2F4ADD63E082E0C3DDC8E8D3E1A6
:1027F0008AE0F4DD82FD04C02197D1F783E00CC0AC
:1028000060E082E0B6DD84E4E9DDF801808382E403
:10281000E5DDF801818380E0DF91CF911F910F9179
:10282000FF90EF9008955F926F927F928F929F92A8
:10283000AF92BF92CF92DF92EF92FF920F931F93CE
:10284000CF93DF931F921F92CDB7DEB73C01F62ED8
:102850006A01490158010115110519F0F80190812B
:1028600001C090E0192FF0E1EF9E100D112460E0FF
:1028700082E07FDD6FE788E07CDD84E1E8DDB301A5
:102880008F2DFBDC612F8AE174DD6CE082E071DD6D
:102890008AE1DDDD00ED17E088E0A0DD982F907380
:1028A00031F480FD7DC001501109B1F779C08CE091
:1028B00095DDF82E837109F075C0C114D10409F4B7
:1028C0006BC08114910409F467C084E187DD182F7F
:1028D000F4018081811708F467C01083112309F483
:1028E00053C000E021E040E050E0BA01CE01019683
:1028F0000E94EC2289819A8106D460E08091F108DF
:102900000E94981F0FEF010F82E90E9485205C2C26
:10291000360188248394912C862D8519801738F5EB
:1029200081111CC0EE20D1F09E2D10E0983048F4AB
:102930009401092E01C0220F0A94EAF7122B9F5F1F
:10294000F5CF82E90E948520212F2095F601908104
:1029500092238123192F182B108305C082E90E942E
:102960008520F3018083FFEF6F1A7F0AD5CFC00E59
:10297000D11C80E00E948520F601808361E0809177
:10298000F1080E94981FBED388E128DD8770A1144A
:10299000B10411F0F5018083F3FC08C080E007C0AA
:1029A00083E005C081E003C084E001C082E00F90B5
:1029B0000F90DF91CF911F910F91FF90EF90DF90DB
:1029C000CF90BF90AF909F908F907F906F905F90CF
:1029D0000895FF920F931F93CF93DF93F82EC0E0DB
:1029E000D0E08F2D0E946F208C01892B21F08F2D3C
:1029F0000E946F20EC01C017D10799F7CE01DF913B
:102A0000CF911F910F91FF900895FC0180819181DA
:102A1000009711F00C94B23060E070E0CB010895A3
:102A2000EF92FF920F931F93CF93DF93FC012481CA
:102A300035816115710511F480E018C0411551050B
:102A4000A1F07B01EC018A01020F131FB80158DCD1
:102A5000882391F3288139818C819D81B701820F70
:102A6000931F0E94732D1D830C8381E0DF91CF9112
:102A70001F910F91FF90EF900895CF93DF93EC019A
:102A800041E050E06EE973E0CBDF811102C0CE017E
:102A90005EDCCE01DF91CF910895CF93DF93EC01FF
:102AA000FB014481558160817181BADF811102C0CF
:102AB000CE014DDCCE01DF91CF910895EF92FF92D0
:102AC0000F931F93CF93DF93EC017B018A01BA012F
:102AD00017DC811103C0CE013ADC07C01D830C83D3
:102AE000B701888199810E94732DCE01DF91CF912A
:102AF0001F910F91FF90EF900895CF93DF93EC011A
:102B00006115710551F0FB0101900020E9F7319743
:102B1000AF01461B570BD2DF01C019DCCE01DF919C
:102B2000CF910895CF93DF93EC01FB0186179707B0
:102B300051F0608171816115710521F044815581E9
:102B4000BDDF01C004DCCE01DF91CF910895FC010F
:102B5000808191810C94C72B0F931F93CF93DF93A8
:102B6000CDB7DEB762970FB6F894DEBF0FBECDBF0C
:102B70008C01CB01F801118210821382128215821E
:102B8000148250E0BE016F5F7F4F0E94D830BE01BB
:102B90006F5F7F4FC801B1DF62960FB6F894DEBF5A
:102BA0000FBECDBFDF91CF911F910F910895FC0112
:102BB000118210821382128215821482B3CFCF93B6
:102BC000DF931F92CDB7DEB76983DC01ED91FC91F5
:102BD0000280F381E02D41E050E0BE016F5F7F4F46
:102BE00019950F90DF91CF910895FC01818D928D01
:102BF0000895FC018489958908952AED32E0FC014D
:102C000031832083FB014089518962897389FC01EA
:102C100042835383648375830895DC01ED91FC91B5
:102C2000008CF18DE02D1994CF93DF931F92CDB7D7
:102C3000DEB76983DC01ED91FC910280F381E02D28
:102C400041E050E0BE016F5F7F4F19950F90DF911B
:102C5000CF910895FC019485FB018485981303C0EE
:102C600081E0943009F480E0089521E0FC0184853E
:102C7000843009F420E0822F08950895CF93DF93E4
:102C80001F92CDB7DEB76983DC01ED91FC91028024
:102C9000F381E02D41E050E0BE016F5F7F4F199559
:102CA0000F90DF91CF910895DC01ED91FC91048CA0
:102CB000F58DE02D199591E089270895862F0895C7
:102CC00081E0862708950F931F93CF93DF931F9280
:102CD000CDB7DEB7FC01218D328D232B61F08C0145
:102CE00041E050E0BE016F5F7F4F808D0E946B21FD
:102CF000181619061CF08FEF9FEF08C0F801818DA0
:102D0000928D0197928F818F898190E00F90DF9152
:102D1000CF911F910F910895FC0184850C946B2134
:102D2000CF93DF931F92CDB7DEB741E050E0BE01F5
:102D30006F5F7F4FFC0184850E946B211816190676
:102D40001CF4898190E002C08FEF9FEF0F90DF911C
:102D5000CF910895FC018485843011F00C944321B7
:102D600080E090E008950F931F93CF93DF93CDB74A
:102D7000DEB728970FB6F894DEBF0FBECDBF8C012B
:102D8000F801818D928D892B49F0D801ED91FC914C
:102D90000680F781E02DC8011995F2CF808D0E9441
:102DA0004321181619065CF548E050E0BE016F5F3C
:102DB0007F4FD80158968C910E946B219C01181668
:102DC0001906DCF489819A81AB81BC81F801808B82
:102DD000918BA28BB38B8D8190E0982F88272E81C9
:102DE000820F911D958B848B2F8130E0322F22270B
:102DF0008885280F311D328F218FC90102C080E0E4
:102E000090E028960FB6F894DEBF0FBECDBFDF91DD
:102E1000CF911F910F910895CF92DF92EF92FF9281
:102E20000F931F93CF93DF93CDB7DEB7AF970FB656
:102E3000F894DEBF0FBECDBF7C016A010AED12E03F
:102E40001A8309831C861B8688EE93E0A0E0B0E01D
:102E50008D879E87AF87B88B82E392E09A878987B8
:102E6000188F0F8B198E1A8E1B8E1C8E84E089A3EF
:102E70001DA30CA31EA21FA218A619A680911708B5
:102E800090911808A0911908B0911A088CA79DA7D5
:102E9000AEA7BFA78B839C83AD83BE8318861F829A
:102EA000AE014C5D5F4FCE0101960E94112381302F
:102EB0009105B1F4D701ED91FC910088F189E02DE5
:102EC0001BA70AA78EA19FA1A8A5B9A58CA79DA7FE
:102ED000AEA7BFA7A601BE01665D7F4FC7011995CA
:102EE000AF960FB6F894DEBF0FBECDBFDF91CF9186
:102EF0001F910F91FF90EF90DF90CF900895CF92A8
:102F0000DF92EF92FF920F931F93CF93DF93CDB792
:102F1000DEB7AF970FB6F894DEBF0FBECDBF7C0112
:102F20006A010AED12E01A8309831C861B8688EE6B
:102F300093E0A0E0B0E08D879E87AF87B88B82E3F7
:102F400092E09A878987188F0F8B198E1A8E1B8EA5
:102F50001C8E84E089A31DA30CA31EA21FA218A689
:102F600019A68091170890911808A0911908B0919E
:102F70001A088CA79DA7AEA7BFA78B839C83AD83A0
:102F8000BE8318861F82AE014C5D5F4FCE01019655
:102F90000E94112381309105B1F4D701ED91FC918C
:102FA0000484F585E02D1BA70AA78EA19FA1A8A5E3
:102FB000B9A58CA79DA7AEA7BFA7A601BE01665D58
:102FC0007F4FC7011995AF960FB6F894DEBF0FBEBD
:102FD000CDBFDF91CF911F910F91FF90EF90DF90C8
:102FE000CF900895CF93DF93EC01888D843061F00A
:102FF0000E94EE21E88DF0E0EE0FFF1FEC59F84F34
:103000001182108284E0888FDF91CF910895EF9232
:10301000FF921F93CF93DF93FC01208D243011F09A
:1030200080E01CC07B01EC0110E0812F0E94C722D0
:10303000811102C0188F05C08831E1F31F5F143081
:10304000A1F7888D843061F3FD86EC861A8E198E87
:1030500020E0A70162E00E94152281E0DF91CF917C
:103060001F91FF90EF9008950F931F93CF93DF93DD
:103070001F92CDB7DEB78C01DC01ED91FC9104808D
:10308000F581E02D1995892B51F0BE016F5F7F4FBF
:10309000F80184850E94FC20898190E002C08FEFB6
:1030A0009FEF0F90DF91CF911F910F910895FC0139
:1030B0008485843011F00C94C72280E00895CF936A
:1030C000DF93FC0124852430C9F0EC01F0DF84316A
:1030D00081F0882371F0883161F08C3161F4E881EE
:1030E000F9810480F581E02DCE01199521E0892B2D
:1030F00019F420E001C021E0822F01C080E0DF91BF
:10310000CF91089508958CBD9DBD08958F929F9293
:10311000AF92BF92CF92DF92EF92FF920F931F93E5
:10312000CF93DF931F921F92CDB7DEB76C014B0197
:103130007A01FC01A688B788108D00E021E040E00C
:1031400059E06DE370E0CE0101960E94EC22898186
:103150009A81D9DF812F3DDC8E159F0518F4812FD0
:1031600038DC7C019701A401B501812FEAD9F60171
:10317000868997898E0D9F1D978B868BC7010F902F
:103180000F90DF91CF911F910F91FF90EF90DF9003
:10319000CF90BF90AF909F908F9008950F931F9303
:1031A000CF93DF931F921F92CDB7DEB7FC01108D36
:1031B00000E021E040E059E06DE370E0CE010196CF
:1031C0000E94EC2289819A819EDF60E270E0812F6B
:1031D00046D962E070E0812F0E94B82584FD1CC0B2
:1031E00062E070E0812F0E94B82583FF07C068E18C
:1031F000812F0E94142680E090E014C000E021E0BE
:1032000040E059E06DE370E0CE0101960E94EC22AF
:1032100089819A8178DFDDCF60E1812F0E941426B9
:1032200081E090E00F900F90DF91CF911F910F916F
:103230000895CF92DF92EF92FF920F931F93CF9357
:10324000DF931F921F92CDB7DEB7FB01DC015796CB
:103250001C921E92569758961C918281811109C02A
:103260008381811106C08481811103C085818823F7
:10327000F9F041155105E1F06A017F0100E021E01C
:1032800040E059E06DE370E0CE0101960E94EC222F
:1032900089819A8138DFB7016E5F7F4F812F0E944D
:1032A000FD25B601812F0E94EE2581E090E002C04D
:1032B00080E090E00F900F90DF91CF911F910F91E0
:1032C000FF90EF90DF90CF9008958F929F92AF92F2
:1032D000BF92CF92DF92EF92FF920F931F93CF9303
:1032E000DF93CDB7DEB72F970FB6F894DEBF0FBED2
:1032F000CDBF6C01E12CF12C38EE832E33E0932E00
:10330000A12CB12C0AE912E01C821B828D829E82C4
:10331000AF82B8861A830983ED86CE010196C7DE97
:1033200081112BC0F6014481558120E061E08E2D92
:103330000E94152200E021E040E059E06DE370E0DA
:10334000CE010E960E94EC228E859F85DCDE63E026
:1033500070E08E2D0E94B825833121F462E070E088
:103360008E2D7DD8F60184819581F701EE0FFF1F28
:10337000EC59F84F9183808308C0FFEFEF1AFF0AE2
:1033800084E0E816F10409F0BFCF2F960FB6F89449
:10339000DEBF0FBECDBFDF91CF911F910F91FF9088
:1033A000EF90DF90CF90BF90AF909F908F90089557
:1033B0008F929F92AF92BF92EF92FF920F931F93C3
:1033C000CF93DF931F921F92CDB7DEB7DC011C961F
:1033D0001C91143009F43BC07C0100E021E040E086
:1033E00059E06DE370E0CE0101960E94EC228981E4
:1033F0009A8189DE68E070E0812F31D800D64B01D8
:103400005C01C70154DE8823A1F061E070E080E038
:1034100090E0BDD5F4D5DC01CB0188199909AA0942
:10342000BB09883E9340A105B10558F3F701848597
:10343000D5D7D7011C96EC911C97F0E0EE0FFF1F3B
:10344000EC59F84F1182108284E01C968C930F90F7
:103450000F90DF91CF911F910F91FF90EF90BF9050
:10346000AF909F908F9008954F925F926F927F924E
:103470008F929F92AF92BF92CF92DF92EF92FF9284
:103480001F93CF93DF93CDB7DEB72D970FB6F89488
:10349000DEBF0FBECDBF7C0194E6A92E97E0B92E0A
:1034A00010E0C12CD12C28EE422E23E0522E612CAC
:1034B000712C3AE9832E32E0932E1C821B824D82BE
:1034C0005E826F8278869A8289821D87D5012D91CE
:1034D0003D915D01F701848195812817390799F4A1
:1034E000CE010196E4DD843159F0CE010196DFDD95
:1034F0008C3149F4CE0101962DDC892B91F003C06B
:10350000CC24C394D12C1F5F1430B9F6CD2869F4B4
:10351000D701ED91FC910480F581E02DC70119954B
:1035200004C0CE01019644DFEECF2D960FB6F8947D
:10353000DEBF0FBECDBFDF91CF911F91FF90EF9007
:10354000DF90CF90BF90AF909F908F907F906F90C3
:103550005F904F9008956F927F928F929F92AF925B
:10356000BF92CF92DF92EF92FF920F931F93CF9370
:10357000DF931F921F92CDB7DEB75C014B016A014A
:10358000FC011485143041F481E090E0F50193834F
:10359000828380E090E064C07A014130584018F0A6
:1035A000E12C88E0F82E00E021E040E059E06DE3F6
:1035B00070E0CE0101960E94EC2289819A81A3DD00
:1035C000812F07DA3C0163E070E0812F0E94B8256B
:1035D000873111F08C3121F46E147F0420F302C086
:1035E000E12CF12C00E021E040E059E06DE370E0D7
:1035F000CE010196F1D789819A8185DD9701A401D9
:1036000060E070E0812F0E94A11260E270E0812FE3
:103610000E942F1262E070E0812F0E94B82584FD85
:1036200017C063E070E0812F0E94B825811103C0AC
:10363000812FD4D6A9CF00E021E040E059E06DE32E
:1036400070E0CE010196C8D789819A815CDDE2CF16
:1036500060E1812F0E941426EF2809F495CFC6015E
:103660000F900F90DF91CF911F910F91FF90EF90EE
:10367000DF90CF90BF90AF909F908F907F906F9092
:1036800008952F923F924F925F926F927F928F9206
:103690009F92AF92BF92CF92DF92EF92FF920F93E1
:1036A0001F93CF93DF93CDB7DEB72E970FB6F89465
:1036B000DEBF0FBECDBF7C016B015A01D5DE04E633
:1036C00017E020E0612C712C88EE282E83E0382E44
:1036D000412C512C9AE9892E92E0992E1C821B8252
:1036E0002D823E824F8258869A8289822D87F801E8
:1036F000419151918F01F7018481958148175907B4
:1037000039F4CE0101962E87D2DC2E858731E9F07F
:103710002F5F243019F7C3012E960FB6F894DEBF41
:103720000FBECDBFDF91CF911F910F91FF90EF9012
:10373000DF90CF90BF90AF909F908F907F906F90D1
:103740005F904F903F902F900895A501B601CE0154
:1037500001962E8700DF680E791E2E85D9CFAF9295
:10376000BF92CF92DF92EF92FF920F931F93CF936E
:10377000DF931F921F92CDB7DEB7FC012485243062
:1037800009F074C05A017B016C0110E0812FFFD653
:10379000811103C0F601148706C08B7F8831D1F3F5
:1037A0001F5F143099F7F6018485843009F45EC0F8
:1037B00020911602309117022F5F3F4F11F420E045
:1037C00030EC30931702209316024091160250916C
:1037D000170220E061E029D6F6011485F701828105
:1037E0008F3F51F483818F3F99F484818F3F81F41F
:1037F00085818F3F69F437C081110AC0F701838149
:10380000811106C08481811103C08581882359F10B
:10381000A114B10441F100E021E040E059E06DE382
:1038200070E0CE010196D8D689819A816CDCB7010F
:103830006E5F7F4F812F0E94FD25B501812F0E9471
:10384000EE2564E070E0812F0E942F12C6012FDC6C
:10385000873179F061E070E080E090E098D3C601B4
:1038600026DC8111F3CF84E0F601848780E090E0CC
:1038700002C081E090E00F900F90DF91CF911F91F7
:103880000F91FF90EF90DF90CF90BF90AF90089591
:103890000895CF92DF92EF92FF920F931F93CF93F1
:1038A000DF936C017A018B01C0E0D0E0CE15DF051B
:1038B00089F0D8016D918D01D601ED91FC910190B7
:1038C000F081E02DC6011995892B11F47E0102C00B
:1038D0002196ECCFC701DF91CF911F910F91FF90FF
:1038E000EF90DF90CF900895FC01918D828D981715
:1038F00061F0828DDF01A80FB11D5D968C91928DD4
:103900009F5F9F73928F90E008958FEF9FEF0895D0
:10391000FC01918D828D981731F0828DE80FF11D99
:10392000858D90E008958FEF9FEF0895FC01918DB4
:10393000228D892F90E0805C9F4F821B91098F73AD
:103940009927089588E797E0F1DF21E0892B09F4B2
:1039500020E0822F0895FC01848DDF01A80FB11DA6
:10396000A35ABF4F2C91848D90E001968F739927B5
:10397000848FA689B7892C93A089B1898C918064A2
:103980008C93938D848D981306C00288F389E02D63
:1039900080818F7D80830895EF92FF920F931F9314
:1039A000CF93DF93EC0181E0888F9B8D8C8D9813F2
:1039B00005C0E889F989808185FD23C0F62E0B8D2D
:1039C00010E00F5F1F4F0F731127E02E8C8DE81250
:1039D0000BC00FB607FCFACFE889F989808185FF13
:1039E000F5CFCE01B8DFF2CF8B8DFE01E80FF11DD0
:1039F000E35AFF4FF0820B8FEA89FB898081806256
:103A000007C0EE89FF896083E889F9898081806435
:103A1000808381E090E0DF91CF911F910F91FF9023
:103A2000EF900895CF93DF93EC01888D8823C1F048
:103A3000EA89FB89808185FD05C0A889B9898C91B7
:103A400086FD0EC00FB607FCF5CF808185FFF2CF53
:103A5000A889B9898C9185FFEDCFCE017CDFE8CFB5
:103A6000DF91CF91089580E090E0892B19F06ADF13
:103A7000811125C080E090E0892B41F080E090E04A
:103A8000892B21F00E94000081111CC080E090E091
:103A9000892B41F080E090E0892B21F00E9400000A
:103AA000811113C080E090E0892BA1F080E090E0CC
:103AB000892B81F00E94000081110AC008950E94A4
:103AC0000000D8CF0E940000E1CF0E940000EACFA2
:103AD0000C940000089590E0FC013197E231F1056B
:103AE00008F04EC08827EE58FF4F8F4F0C940F2BD5
:103AF000809180008F7703C0809180008F7D8093BC
:103B00008000089580918000877FF9CF84B58F77FA
:103B100002C084B58F7D84BD08958091B0008F77F9
:103B200003C08091B0008F7D8093B0000895809194
:103B300090008F7707C0809190008F7D03C08091A7
:103B40009000877F8093900008958091A0008F77E8
:103B500007C08091A0008F7D03C08091A000877F67
:103B60008093A0000895809120018F7707C08091F5
:103B700020018F7D03C080912001877F80932001E9
:103B800008953FB7F8948091730790917407A091BE
:103B90007507B091760726B5A89B05C02F3F19F091
:103BA0000196A11DB11D3FBFBA2FA92F982F8827BD
:103BB000820F911DA11DB11DBC01CD0142E0660F18
:103BC000771F881F991F4A95D1F7089508956115A9
:103BD000710579F0FB0101900020E9F73197AF0101
:103BE000461B570BDC01ED91FC910280F381E02D27
:103BF000199480E090E00895FC01118210821382F4
:103C00001282158214826115710551F0FB01019039
:103C10000020E9F73197AF01461B570B0C945E1556
:103C200008954F925F926F927F92EF92FF920F935F
:103C30001F93CF93DF93CDB7DEB7A1970FB6F8945C
:103C4000DEBF0FBECDBF7C01FA01CB0119A222302D
:103C500008F42AE08E010F5D1F4F422E512C612C7B
:103C6000712CBF01A30192010E946C31F901CA01BC
:103C7000015011096A3014F4605D01C0695CD8011B
:103C80006C93232B242B252B61F7B801C7019FDFF1
:103C9000A1960FB6F894DEBF0FBECDBFDF91CF91D6
:103CA0001F910F91FF90EF907F906F905F904F90DA
:103CB0000895CF92DF92EF92FF920F931F93CF93CD
:103CC000DF93EC016A017B01E881F9810190F081C9
:103CD000E02D6DE219958C0144275527BA014C1946
:103CE0005D096E097F092AE0CE019BDF800F911FDD
:103CF000DF91CF911F910F91FF90EF90DF90CF90C8
:103D000008958F929F92AF92BF92CF92DF92EF92DF
:103D1000FF920F931F93CF93DF937C01EB016C0114
:103D200082E0C80ED11C4701E5E08E0E911C00E038
:103D300010E0F60141916F0150E060E070E02AE090
:103D4000CE016FDF5C01E881F9810190F081E02D07
:103D50006EE2CE0119958A0D9B1D080F191FC8141C
:103D6000D90439F7F701458150E060E070E02AE0BE
:103D7000CE0157DF800F911FDF91CF911F910F91DF
:103D8000FF90EF90DF90CF90BF90AF909F908F907B
:103D9000089567E075E01BCF0F931F93CF93DF93D8
:103DA000EC0115DF8C01CE01F4DF800F911FDF9154
:103DB000CF911F910F9108950ACFEF92FF920F9329
:103DC0001F93CF93DF938C017B01C0E0D0E0F7011C
:103DD000EC0FFD1F6491662361F0D801ED91FC9119
:103DE0000190F081E02DC8011995892B11F02196E1
:103DF000EECFCE01DF91CF911F910F91FF90EF9009
:103E000008950F931F93CF93DF93EC01D6DF8C01BE
:103E1000CE01BFDF800F911FDF91CF911F910F91D6
:103E200008951F920F920FB60F9211240BB60F92A6
:103E30002F933F934F935F936F937F938F939F93B2
:103E4000AF93BF93EF93FF9388E797E084DDFF91F3
:103E5000EF91BF91AF919F918F917F916F915F9102
:103E60004F913F912F910F900BBE0F900FBE0F906F
:103E70001F9018951F920F920FB60F9211240BB638
:103E80000F922F938F939F93EF93FF93E091880767
:103E9000F09189078081E0918E07F0918F0782FD74
:103EA00012C09081809191078F5F8F73209192074C
:103EB000821751F0E0919107F0E0E858F84F958FA4
:103EC0008093910701C08081FF91EF919F918F9125
:103ED0002F910F900BBE0F900FBE0F901F90189553
:103EE000CF93DF93282F30E0F901E459FE4F8491FE
:103EF000F901E45DFD4FD491F901EA51FE4FC491FF
:103F0000CC2389F08111E7DDEC2FF0E0EE0FFF1FED
:103F1000EE5AFE4FA591B491EC91ED2381E090E033
:103F200021F480E002C080E090E0DF91CF9108951D
:103F30001F93CF93DF93282F30E0F901E459FE4F10
:103F40008491F901E45DFD4FD491F901EA51FE4FEE
:103F5000C491CC23C1F0162F8111BDDDEC2FF0E010
:103F6000EE0FFF1FEE54FE4FA591B4918FB7F8945A
:103F7000111105C09C91ED2FE095E92302C0EC9151
:103F8000ED2BEC938FBFDF91CF911F9108958F920E
:103F90009F92AF92BF92CF92DF92EF92FF926B010E
:103FA0007C01EFDD4B015C01C114D104E104F1049B
:103FB000E9F0E7DDDC01CB0188199909AA09BB0901
:103FC000883E9340A105B10578F321E0C21AD108DB
:103FD000E108F10888EE880E83E0981EA11CB11C50
:103FE000C114D104E104F10421F7DECFFF90EF907A
:103FF000DF90CF90BF90AF909F908F9008952FB794
:10400000F89460916F07709170078091710790919B
:1040100072072FBF08951F920F920FB60F921124AF
:104020002F933F938F939F93AF93BF9380916F078D
:1040300090917007A0917107B091720730916E074F
:1040400023E0230F2D3720F40196A11DB11D05C0DB
:1040500026E8230F0296A11DB11D20936E078093C1
:104060006F0790937007A0937107B09372078091C8
:10407000730790917407A0917507B0917607019628
:10408000A11DB11D8093730790937407A0937507CA
:10409000B0937607BF91AF919F918F913F912F91F0
:1040A0000F900FBE0F901F9018952C9A08952C9882
:1040B00008951F93CF93DF93182F66E270E058D5D1
:1040C000C82FD0E067E270E0812F52D5DC2FCC27DB
:1040D0009E01282BC901DF91CF911F9108951F9355
:1040E000CF93DF93182F60E270E042D5C82FD0E065
:1040F00061E270E0812F3CD5DC2FCC279E01282B7C
:10410000C901DF91CF911F9108958EBD00000DB4BC
:1041100007FEFDCF8EB50895CF92DF92EF92FF920A
:104120000F931F93CF93DF93EC017A018B016C0106
:10413000C40ED51ECC15DD0579F0B9DF8FE0E5DFC3
:104140008D2FE3DF8C2FE1DF219680E0DEDFF801A9
:1041500081938F01AADFEECFC701DF91CF911F912D
:104160000F91FF90EF90DF90CF900895CF92DF9264
:10417000EF92FF920F931F93CF93DF93EC017A019D
:104180008B016C01C40ED51ECC15DD0571F08FDFDF
:1041900080EFBBDF8D2FB9DF8C2FB7DF2196F801C1
:1041A00081918F01B2DF81DFEFCFC701DF91CF9126
:1041B0001F910F91FF90EF90DF90CF9008951F9384
:1041C000CF93DF931F921F92CDB7DEB7182F6A836C
:1041D00099836DDF80EF99DF9981892F96DF812F99
:1041E00094DF6A81862F91DF60DF81E00F900F906E
:1041F000DF91CF911F910895EF92FF920F931F933C
:10420000CF93DF931F921F92CDB7DEB7182F7B019C
:1042100000E021E040E059E06DE370E0CE0101965E
:10422000DBD189819A810E948318812FC1D421E03A
:1042300030E0A701BC01812F0E943F120E9482182A
:1042400081E090E00F900F90DF91CF911F910F913F
:10425000FF90EF900895CF93DF931F92CDB7DEB715
:10426000FC01218D328D232B41F0BE016F5F7F4F0A
:10427000808DC2DF898190E002C08FEF9FEF0F90A9
:10428000DF91CF9108950F931F93CF93DF9300D0C9
:104290001F92CDB7DEB7182F00E021E040E059E0D3
:1042A0006DE370E0CE01019697D189819A810E94D9
:1042B0008318812F0E9485128B839C830E94821811
:1042C0008B819C810F900F900F900F90DF91CF9179
:1042D0001F910F910895AF92BF92CF92DF92FF92FC
:1042E0000F931F93CF93DF931F921F92CDB7DEB72B
:1042F000F82E5B016A0100E021E040E059E06DE347
:1043000070E0CE01019668D189819A810E9483185C
:104310008F2D0E9485128C01009791F463E070E06C
:104320008F2D26D4843169F1882359F101E010E002
:104330008C3111F400E010E011950195110921C0B4
:10434000C816D9060CF4860110161106D4F48F2D68
:104350002FD46C019801A501BC018F2D0E943F1242
:10436000C00ED11E4D2D68E270E08F2DF8D34C2D7C
:1043700069E270E08F2DF3D360E470E08F2D0E942E
:104380002F120E948218C8010F900F90DF91CF91D9
:104390001F910F91FF90DF90CF90BF90AF90089545
:1043A000CF93DF93FC01218D328D2115310519F456
:1043B0008FEF9FEF10C0EC014217530708F0A901DF
:1043C000888D89DF181619069CF7298D3A8D281BD0
:1043D000390B3A8F298FDF91CF9108950F931F9357
:1043E000CF93DF931F921F92CDB7DEB7182F00E057
:1043F00021E040E059E06DE370E0CE010196ECD0A1
:1044000089819A810E94831860E170E0812F0E9467
:104410002F126FEF812F08D40E9482180F900F90F7
:10442000DF91CF911F910F910895CF92DF92EF927C
:10443000FF920F931F93CF93DF931F921F92CDB7DD
:10444000DEB7182FE62E6A01F22EC8DF00E021E069
:1044500040E059E06DE370E0CE010196BDD0898166
:104460009A810E9483184E2D4F2960E070E0812FC1
:1044700076D3C114D10411F0B6010AC060916C0763
:1044800070916D076F5F7F4F70936D0760936C073E
:10449000812FBBD361E070E0812F0E942F120E9418
:1044A000821881E00F900F90DF91CF911F910F91B3
:1044B000FF90EF90DF90CF900895BF92CF92DF9260
:1044C000EF92FF920F931F93CF93DF9300D000D012
:1044D000CDB7DEB7FC01208D243009F047C06A015A
:1044E0007B018C01B12C63E070E08B2D41D38111F5
:1044F00003C0F801B08E06C08831D9F3B394F4E05C
:10450000BF12F1CFF801808D843081F196E0E4E5AF
:10451000F2E0DE01119601900D929A95E1F7F70114
:1045200093819F779C8394819D8395819E83B7011E
:104530006E5F7F4F62D3B601F801808D4FD3F801D3
:10454000808D90E0982F882746E050E0BE016F5F95
:104550007F4F8A5F9B4F0ADEF801128E118E20E892
:10456000A60162E0808D61DF81E001C080E02696D7
:104570000FB6F894DEBF0FBECDBFDF91CF911F9174
:104580000F91FF90EF90DF90CF90BF9008950F9321
:104590001F93CF93DF9300D0CDB7DEB7182F00E085
:1045A00021E040E059E06DE370E0CE01019614D0C7
:1045B00089819A810E94831863E070E0812FD8D2AC
:1045C0008B830E9482188B810F900F900F90DF9148
:1045D000CF911F910F9108950F93FC0130E080E07F
:1045E00092E1AAE7B0E0481759076A077B0740F451
:1045F000B695A795979587953F5F3630A1F737E039
:1046000091E09327222311F020E501C020E7892FB4
:1046100086950C70082B022B0083917091830F916B
:1046200008952F923F924F925F926F927F928F9256
:104630009F92AF92BF92CF92DF92EF92FF920F9331
:104640001F93CF93DF93CDB7DEB765970FB6F8947E
:10465000DEBF0FBECDBF7C016B013A01FB0120E044
:1046600080E090E06AE03191332309F140ED430F9F
:104670004A3080F4689FA001699F500D1124CA013F
:10468000C097830F911D37FD9A958F3F910559F380
:1046900050F313C03E3289F4233079F0D301A20FD6
:1046A000B11D12968C932F5F80E090E0DCCF233019
:1046B00021F4F301858381E020C0F7014281538119
:1046C0006481758180911F0890912008A091210834
:1046D000B0912208481759076A077B0709F493C16C
:1046E0008EDC8701085F1F4F6F7077277C5FC801E2
:1046F0000E940718813019F080E090E0E8C18AED4F
:1047000092E09A838983F70182819381A481B581A4
:104710008B839C83AD83BE8345E350E0BE016F5F16
:104720007F4FC8010E941919892B19F4C12CD12C73
:1047300065C165DCF701778366837627672776276F
:104740007A83698342E050E0BE016F5F7F4FC8010A
:104750000E94861881E090E09E878D8742E050E0BD
:10476000BE01635F7F4FC8010E94861880E091E020
:104770009E878D8742E050E0BE01635F7F4FC80196
:104780000E9486181E861D8642E050E0BE01635FCF
:104790007F4FC8010E94861842E050E0BE01635F6F
:1047A0007F4FC8010E94861842E050E0BE01635F5F
:1047B0007F4FC8010E9486185601F5018081882329
:1047C00011F1F6015F018191811115C045018C182D
:1047D0009D081814190494F48F8641E050E0BE013E
:1047E000615F7F4FC8010E948618A401B601C8010D
:1047F0000E94861803C08E3229F7E8CF6501FFEFCB
:10480000CF1ADF0ADACF1F8641E050E0BE01615FB8
:104810007F4FC8010E948618C12CDD24D394DE8608
:10482000CD8642E050E0BE01635F7F4FC8010E9429
:104830008618DE86CD8642E050E0BE01635F7F4F82
:10484000C8010E948618C8010E94CE18892B09F45D
:104850006DCF63E0A62EB12CF2E06F0E711CCFDBA2
:104860001B012C01C8010E94B3161816190694F0FA
:10487000C6DBDC01CB0182199309A409B50989388B
:104880009341A105B105C8F462E370E080E090E0D7
:104890007EDBE8CFF7014281538164817581808D91
:1048A000918DA28DB38D481759076A077B0741F494
:1048B000848D958DC59721F406C02FEF3FEF94C0EE
:1048C0002EEF3FEF91C0F70181A192A10C970CF45C
:1048D000A0C04CE050E0BE016F5F7F4FC80160DDBB
:1048E0008B8190E0982F88272C81822B9A8B898B43
:1048F000298130E0322F22274A81242BF70146817B
:1049000057814217530709F081C097FF7FC08F700E
:104910009270892B09F0D8C0CF80D12CDC2CCC240C
:104920008885C82AC114D10409F4CBC0812C912CEC
:104930008D8190E0982F88272E81822B88169906EA
:1049400008F46AC0812C912C41E050E0BE016D5EFC
:104950007F4FC80125DD8B89982F907C09F08EC090
:10496000811181C08B898111EFCF42E050E0BE01FF
:10497000615F7F4FC80114DD42E050E0BE01635F1C
:104980007F4FC8010DDDC8010E946316C8010E9457
:104990006316C8010E946316C8010E94631642E0B4
:1049A00050E0BE016F5E7F4FC801FADC8F859889A9
:1049B0008115914009F067C02D853E853227232758
:1049C00032272130310509F05EC089899A89811525
:1049D000944009F073C044E050E0B301C8012C8B4F
:1049E0003D8BDEDC2C893D896901F1E0AF1AB1080D
:1049F00029F02FEFC216D20609F431CFC8010E9468
:104A0000F217C60164C08EEF9FEF61C02CEF3FEF3D
:104A1000EBCF2DEF3FEFE8CF41E050E0BE01635F09
:104A20007F4FC801BDDC8D85811113C08D8581113B
:104A3000F3CFC8010E946316C8010E946316C80123
:104A40000E946316C8010E946316FFEF8F1A9F0A27
:104A50006FCF8D859FEF980F9D87882339F3C8010D
:104A60000E946316F6CF8B899FEF980F9B8B88234C
:104A700009F478CFC8010E946316F5CFC8010E94DF
:104A800063161B8A6FCF412C512C89899A899827EC
:104A9000892798274816590638F4C8010E946316DA
:104AA0008FEF481A580AF1CFEFEF8E1A9E0A8C1436
:104AB0009D0409F049CF26EF3FEF96CF27EF3FEF58
:104AC00093CF2AEF3FEF90CF2BEF3FEF8DCF65963F
:104AD0000FB6F894DEBF0FBECDBFDF91CF911F910F
:104AE0000F91FF90EF90DF90CF90BF90AF909F908D
:104AF0008F907F906F905F904F903F902F90089590
:104B0000CF93CFB7F89480917707811120C0EBE164
:104B1000F2E08491E1E6F2E09491E82FF0E0EE0F0C
:104B2000FF1FE453FE4FA591B491EC91E92319F4D2
:104B300061E085E3FDD985E3BBD08CB580618CBD98
:104B40008CB580648CBD84E3B3D083E3B1D0809115
:104B500077078F5F80937707CFBFCF9108959B0131
:104B600090E00496982F8827642F820F931F27CBFD
:104B70000F931F93CF93DF931F92CDB7DEB790E0D3
:104B80000496982F88278C01060F171F90DA8FE064
:104B9000BCDA812FBADA802FB8DA80E0B6DA8983FE
:104BA00084DA89810F90DF91CF911F910F91089541
:104BB0001F93CF93DF93182F68E270E0D9DFC82FDF
:104BC000D0E069E270E0812FD3DFDC2FCC279E019B
:104BD000282BC901DF91CF911F910895CF93DF93C7
:104BE000C82FD62F472F60E170E0B9DF4D2F61E16C
:104BF00070E08C2FDF91CF91B2CF90E0982F882773
:104C000044E050E0845F9B4FB1CACF93DF93C82F3D
:104C1000D62F472F64E070E0A2DF4D2F65E070E0F3
:104C20008C2FDF91CF919BCF462F62E070E097CF22
:104C30000C9432310C942A3188E797E0AAD88CEF93
:104C400093E0F8DF682F70E062567B4F88E797E0CB
:104C5000A3D886E145D9019751F48CEF93E0EADFC0
:104C60008A3079F06AE08CEF93E0E2DF0AC08CEFE3
:104C700093E0E0DF843129F064E18CEF93E00E945F
:104C800032318CEF93E0D6DF682F70E06F557B4FA9
:104C900088E797E081D888E797E07BD868EE73E0F3
:104CA00080E090E074D988E003D060E088E040C9FB
:104CB00090E0FC01E45DFD4F2491FC01EA51FE4FC0
:104CC0008491882399F090E0880F991FFC01E453A8
:104CD000FE4FA591B491FC01EE54FE4F8591949145
:104CE0008FB7F894EC91E22BEC938FBF08955F920D
:104CF0006F927F928F929F92AF92BF92CF92DF92EC
:104D0000EF92FF920F931F93CF93DF937C018B0160
:104D1000542EDB011496CD90DC901597E601219777
:104D200080E090E0EFEFFFEFA12CB12C60E070E0AD
:104D3000582F992EC817D9079CF12617370744F129
:104D40008C159D0558F4D8016D907C906114710408
:104D500029F0D301A80FB91F8C9001C0812CDC0170
:104D60001196851431F08C179D0719F05E2F9F2E38
:104D70000BC06F5F7F4F5F014FEFA41AB40A8C170F
:104D80009D0711F45A2F9B2ECD01E52FF92DD0CF81
:104D9000EF016501EA15FB0560F46F01E50109C04B
:104DA00026173707ACF369E075E0C7010E94FC1DC8
:104DB00024C069E075E0C7010E94FC1DF8018481F0
:104DC0009581C816D906C8F48C179D0708F4EC0124
:104DD000D801ED91FC911197EC0FFD1FB08010826E
:104DE0006D917C916C0D7D1DC7010E947D15D801D0
:104DF000ED91FC91CE0FDF1FB882C701DF91CF91FB
:104E00001F910F91FF90EF90DF90CF90BF90AF90E8
:104E10009F908F907F906F905F900895CF93DF93D6
:104E2000CDB7DEB768970FB6F894DEBF0FBECDBF23
:104E3000789484B5826084BD84B5816084BD85B575
:104E4000826085BD85B5816085BD80916E00816081
:104E500080936E0010928100809181008260809327
:104E60008100809181008160809381008091800029
:104E70008160809380008091B10084608093B10054
:104E80008091B00081608093B00080919100826039
:104E90008093910080919100816080939100809136
:104EA00090008160809390008091A1008260809347
:104EB000A1008091A10081608093A1008091A00059
:104EC00081608093A0008091210182608093210104
:104ED0008091210181608093210180912001816076
:104EE0008093200180917A00846080937A00809181
:104EF0007A00826080937A0080917A00816080934A
:104F00007A0080917A00806880937A001092C100C4
:104F100086E1CEDE61E086E10BD887E1C9DE61E0A3
:104F200087E106D8E0918807F091890782E08083C5
:104F3000E0918407F09185071082E0918607F09157
:104F400087078FEC808310929007E0918C07F09197
:104F50008D0786E08083E0918A07F0918B0780813E
:104F600080618083E0918A07F0918B07808188605F
:104F70008083E0918A07F0918B078081806880832D
:104F8000E0918A07F0918B0780818F7D8083B8DD67
:104F90008091F1088DDE61E08091F1080E94981FF8
:104FA0008091F20885DE8091F2080E94701F892BA3
:104FB00061F461E08091F2080E94981F62E370E062
:104FC00080E090E00E94C71F0FC06FE082E00E9467
:104FD000B91162E370E080E090E00E94C71F82E0B8
:104FE0000E94EE1184FDFBCF60E884E50E94B911B8
:104FF00069EA86E50E94B91163E088E50E94B9116B
:1050000068EE8AE50E94B91160E48AE20E94B91153
:105010006DE382E20E94B91188E20E94EE11982F9E
:105020009370933029F0682F636088E20E94B91171
:1050300065ED74E088E797E00E94CC1E88E797E072
:105040000E94C91E0AED12E01A8309838091C308E9
:105050009091C408A091C508B091C6088B839C8329
:10506000AD83BE8318870F838091C9089091CA08C9
:10507000A091CB08B091CC0889879A87AB87BC8771
:105080001E870D878091CF089091D008A091D108FC
:10509000B091D2088F87988BA98BBA8B1C8B0B8B06
:1050A0008091330890913408A0913508B09136086A
:1050B0008D8B9E8BAF8BB88F9E012F5F3F4FAE01C4
:1050C000495F5F4FBE01635F7F4FCE0143960E94F1
:1050D000971064EF74E088E797E00E94DC1E1A8363
:1050E00009831B821C821D821E8200E021E040E0B9
:1050F00059E06DE370E0CE0107966EDA8F819885F6
:105100000E94831844E050E0BE016D5F7F4F8FE046
:1051100090E002D80E94821868E777E0CE010196FD
:105120000E94811E88E797E00E94C91E0E946D01BF
:105130000E94331DFBCF8FE398E00E94A71585E402
:1051400098E00E94A7158BE498E00E94A71581E5DE
:1051500098E00E94A71587E598E00E94A71589EDC1
:1051600098E00E94A7158FED98E00C94A715AF92D8
:10517000BF92CF92DF92EF92FF920F931F93CF9344
:10518000DF93CDB7DEB72C970FB6F894DEBF0FBE16
:10519000CDBFE9EFF8E00AED12E01183008312823F
:1051A000138214821582E8E7F7E01382128288EEF8
:1051B000C82E83E0D82EE12CF12CC482D582E68261
:1051C000F7828EE592E09183808385EC90E095876D
:1051D000848784EC90E09787868780EC90E0918BC1
:1051E000808B81EC90E0938B828B82EC90E0958BAE
:1051F000848B86EC90E0978B868B118E128E138EAB
:10520000148EEFEFF8E01183008312821382148270
:105210001582E5E0F9E01183008312821382148283
:105220001582EBE0F9E0118300831282138214826D
:105230001582E1E1F9E01183008312821382148266
:105240001582E5E1F8E01183008312821382148253
:105250001582EDE1F8E0118300831282138214823B
:105260001582E7E1F9E01183008312821382148230
:105270001582EDE1F9E0118300831282138214821A
:105280001582E3EFF8E01183008312821382148207
:105290001582E5EEF8E085E3848789E285876AE098
:1052A00075E08FED98E00E94FC1D69E175E089EDE5
:1052B00098E00E94FC1DE3EDF8E01183008388E094
:1052C0008283838384838583EDECF8E011830083FC
:1052D0009FEF9283938394831582E7ECF8E0118328
:1052E000008390EC928398EA93839AE5948391E00B
:1052F0009583E1ECF8E011830083828383838483C8
:10530000858324D72DE7A22E28E0B22E2FEF30E0A0
:1053100040E050E0B5D7F5016083118283E08283DD
:10532000138240E450E06AE170E081E898E0C0D385
:10533000E7E7F8E0138212828EEB92E0918380839C
:1053400080E590E095838483EAE6F8E01382128298
:10535000C482D582E682F7822AE932E03183208353
:1053600084E08487EDE5F8E013821282C482D5825E
:10537000E682F78231832083848769E075E087E5E0
:1053800098E00E94FC1D69E075E081E598E00E94CC
:10539000FC1D69E075E08BE498E00E94FC1D69E06B
:1053A00075E085E498E00E94FC1D69E075E08FE3FC
:1053B00098E00E94FC1D6FED78E0CE0101960E94FE
:1053C000D71520E030E04CE2BE016F5F7F4FCE0189
:1053D00007968DDCCE0107960E940515C62EC09259
:1053E0003D0870933E08CE0107960E94A715CE0196
:1053F00001960E94A7156FED78E0CE0101960E94FC
:10540000D71521E030E04CE2BE016F5F7F4FCE0147
:1054100007966DDCCE0107960E940515D62ED09218
:105420003B0870933C08CE0107960E94A715CE0159
:1054300001960E94A7156FED78E0CE0101960E94BB
:10544000D71522E030E04CE2BE016F5F7F4FCE0106
:1054500007964DDCCE0107960E940515E62EE092D8
:10546000390870933A08CE0107960E94A715CE011D
:1054700001960E94A7156FED78E0CE0101960E947B
:10548000D71523E030E04CE2BE016F5F7F4FCE01C5
:1054900007962DDCCE0107960E940515F62EF09298
:1054A000370870933808CE0107960E94A715CE01E1
:1054B00001960E94A715E1E3F8E011830083C28200
:1054C000D382E482F58269ED78E0CE0101960E94F4
:1054D000D71520E030E04EE2BE016F5F7F4FCE0176
:1054E000079605DCCE0107960E940515C62EC092D0
:1054F0002F0870933008CE0107960E94A715CE01A1
:1055000001960E94A71569ED78E0CE0101960E94F0
:10551000D71521E030E04EE2BE016F5F7F4FCE0134
:105520000796E5DBCE0107960E940515D62ED09290
:105530002D0870932E08CE0107960E94A715CE0164
:1055400001960E94A71569ED78E0CE0101960E94B0
:10555000D71522E030E04EE2BE016F5F7F4FCE01F3
:105560000796C5DBCE0107960E940515E62EE09250
:105570002B0870932C08CE0107960E94A715CE0128
:1055800001960E94A71569ED78E0CE0101960E9470
:10559000D71523E030E04EE2BE016F5F7F4FCE01B2
:1055A0000796A5DBCE0107960E940515F62EF09210
:1055B000290870932A08CE0107960E94A715CE01EC
:1055C00001960E94A715E3E2F8E011830083C282EE
:1055D000D382E482F5822C960FB6F894DEBF0FBE1C
:1055E000CDBFDF91CF911F910F91FF90EF90DF9092
:1055F000CF90BF90AF90089597FB072E16F40094BC
:1056000006D077FD08D01AD007FC05D03EF490955F
:1056100081959F4F0895709561957F4F0895EE0F86
:10562000FF1F881F8BBF0790F691E02D1994692703
:10563000962769277827872778270895AA1BBB1BF9
:1056400051E107C0AA1FBB1FA617B70710F0A61B82
:10565000B70B881F991F5A95A9F780959095BC01A3
:10566000CD010895CF93DF938230910510F482E04D
:1056700090E0E0912509F091260920E030E0C0E0BB
:10568000D0E0309711F14081518148175907C0F09F
:105690004817590761F482819381209719F09B8301
:1056A0008A832BC0909326098093250926C0211553
:1056B000310519F04217530718F49A01BE01DF01B2
:1056C000EF010280F381E02DDCCF2115310509F1D6
:1056D000281B390B2430310590F412968D919C9142
:1056E00013976115710521F0FB019383828304C038
:1056F0009093260980932509FD01329644C0FD014F
:10570000E20FF31F81939193225031092D933C9323
:105710003AC02091230930912409232B41F4209190
:105720001A0230911B0230932409209323092091FF
:105730001802309119022115310541F42DB73EB7F9
:1057400040911C0250911D02241B350BE09123094E
:10575000F0912409E217F307A0F42E1B3F0B281742
:10576000390778F0AC014E5F5F4F2417350748F0DA
:105770004E0F5F1F50932409409323098193919307
:1057800002C0E0E0F0E0CF01DF91CF9108950F93E8
:105790001F93CF93DF93009709F48CC0FC013297DD
:1057A0001382128200912509109126090115110515
:1057B00081F420813181820F931F20912309309140
:1057C00024092817390779F5F0932409E093230970
:1057D00071C0D80140E050E0AE17BF0750F41296F8
:1057E0002D913C911397AD012115310509F1D90196
:1057F000F3CF9D01DA013383228360817181860FAB
:10580000971F8217930769F4EC0128813981260FCD
:10581000371F2E5F3F4F318320838A819B81938383
:105820008283452B29F4F0932609E093250942C091
:105830001396FC93EE931297ED01499159919E01B5
:10584000240F351FE217F30771F480819181840FD3
:10585000951F029611969C938E9382819381139645
:105860009C938E931297E0E0F0E0D80112968D9110
:105870009C911397009719F0F8018C01F6CF8D9148
:105880009C9198012E5F3F4F820F931F2091230917
:10589000309124092817390769F4309729F41092B8
:1058A00026091092250902C013821282109324093E
:1058B00000932309DF91CF911F910F9108956F926B
:1058C0007F928F929F92AF92BF92CF92DF92EF9290
:1058D000FF920F931F93CF93DF93EC01009781F416
:1058E000CB01DF91CF911F910F91FF90EF90DF904F
:1058F000CF90BF90AF909F908F907F906F90B2CEDF
:10590000FC01E60FF71F9C0122503109E217F30753
:1059100008F4A8C0D9010D911C911197061717071B
:10592000A8F00530110508F49BC0C801049786173C
:10593000970708F495C002501109061B170B019335
:1059400011936D937C93CF0122DF8AC05B01A01A73
:10595000B10A4C01800E911EA0912509B091260933
:1059600040E050E0E12CF12C109709F44AC0A81552
:10597000B905D1F56D907C901197630182E0C80E56
:10598000D11CCA14DB0480F1A3014A195B096A0126
:1059900082E0C80ED11C1296BC9012971396AC915F
:1059A000B5E0CB16D10440F0B282A383518340838B
:1059B000D9016D937C930AC00E5F1F4FC301800F06
:1059C000911FF90191838083EB2DFA2FE114F104EB
:1059D00031F0D7011396FC93EE93129741C0F093E8
:1059E0002609E09325093CC08D919C911197481799
:1059F000590708F4AC017D0112960D90BC91A02DC1
:105A0000B3CF809123099091240988159905E1F479
:105A100046175707C8F48091180290911902009711
:105A200041F48DB79EB740911C0250911D02841B1A
:105A3000950BE817F907B0F4F0932409E0932309D4
:105A4000F901718360830CC0CB010CDE7C010097EF
:105A500049F0A801BE0123D0CE0199DEC70104C0E0
:105A6000CE0102C080E090E0DF91CF911F910F91B5
:105A7000FF90EF90DF90CF90BF90AF909F908F906E
:105A80007F906F90089581E090E0F89456C4911152
:105A9000089581568A5108F4805285580895FB0173
:105AA000DC0102C001900D9241505040D8F708959A
:105AB000DC0101C06D9341505040E0F70895FC01B6
:105AC0008191861721F08823D9F799270895319776
:105AD000CF010895FB01DC018D9101908019011027
