:1000000072C000009FC000009DC000009BC00000A7
:1000100099C0000097C0000095C0000093C0000088
:1000200091C000008FC000008DC000008BC0000098
:1000300089C0000087C0000085C0000083C00000A8
:1000400081C000007FC000007DC000007BC00000B8
:1000500079C0000077C0000075C000006BC20000CE
:1000600071C0000031C2000006C200006BC0000079
:1000700069C0000067C0000065C0000063C00000E8
:1000800061C000005FC000005DC000005BC00000F8
:1000900059C0000057C0000055C0000053C0000008
:1000A00051C000004FC000004DC000004BC0000018
:1000B00049C0000047C0000045C0000043C0000028
:1000C00041C000003FC000003DC000003BC0000038
:1000D00039C0000037C0000035C0000033C0000048
:1000E00031C00000840411241FBECFEFD1E2DEBF77
:1000F000CDBF00E00CBF12E0A0E0B2E0E8E7F1E124
:1001000000E00BBF02C007900D92AE33B107D9F7E4
:1001100022E0AEE3B2E001C01D92A83EB207E1F7D3
:1001200010E0C3E7D0E000E005C021970109802F6F
:10013000FE0139D4C237D10780E00807B1F744D2B5
:100140000C94BA085DCFCF92DF92EF92FF920F939B
:100150001F93CF93DF936C017A018B01C0E0D0E055
:10016000CE15DF0589F0D8016D918D01D601ED9195
:10017000FC910190F081E02DC6011995892B11F4B5
:100180007E0102C02196ECCFC701DF91CF911F9174
:100190000F91FF90EF90DF90CF900895FC01918D2B
:1001A000828D981761F0828DDF01A80FB11D5D96D9
:1001B0008C91928D9F5F9F73928F90E008958FEF47
:1001C0009FEF0895FC01918D828D981731F0828DFB
:1001D000E80FF11D858D90E008958FEF9FEF089552
:1001E000FC01918D228D892F90E0805C9F4F821BB6
:1001F00091098F739927089587E492E0F1DF21E058
:10020000892B09F420E0822F0895FC01848DDF0101
:10021000A80FB11DA35ABF4F2C91848D90E0019679
:100220008F739927848FA689B7892C93A089B18968
:100230008C9180648C93938D848D981306C0028872
:10024000F389E02D80818F7D80830895EF92FF9266
:100250000F931F93CF93DF93EC0181E0888F9B8DE9
:100260008C8D981305C0E889F989808185FD23C0AC
:10027000F62E0B8D10E00F5F1F4F0F731127E02E2E
:100280008C8DE8120BC00FB607FCFACFE889F9890C
:10029000808185FFF5CFCE01B8DFF2CF8B8DFE01D7
:1002A000E80FF11DE35AFF4FF0820B8FEA89FB89BB
:1002B0008081806207C0EE89FF896083E889F989BF
:1002C00080818064808381E090E0DF91CF911F91F5
:1002D0000F91FF90EF900895CF93DF93EC01888DFD
:1002E0008823C1F0EA89FB89808185FD05C0A88942
:1002F000B9898C9186FD0EC00FB607FCF5CF8081C1
:1003000085FFF2CFA889B9898C9185FFEDCFCE0109
:100310007CDFE8CFDF91CF91089580E090E0892BDA
:1003200019F06ADF811125C080E090E0892B41F04F
:1003300080E090E0892B21F00E94000081111CC018
:1003400080E090E0892B41F080E090E0892B21F063
:100350000E940000811113C080E090E0892BA1F081
:1003600080E090E0892B81F00E94000081110AC09A
:1003700008950E940000D8CF0E940000E1CF0E94A3
:100380000000EACF0C94000008953FB7F8948091E4
:10039000430290914402A0914502B091460226B5D5
:1003A000A89B05C02F3F19F00196A11DB11D3FBFAD
:1003B000BA2FA92F982F8827820F911DA11DB11D3B
:1003C000BC01CD0142E0660F771F881F991F4A9537
:1003D000D1F70895009761F0FC0101900020E9F742
:1003E0003197AF01481B590BBC0187E492E0ABCEBB
:1003F00080E090E008958F929F92AF92BF920F930A
:100400001F93CF93DF93CDB7DEB7A1970FB6F894C4
:10041000DEBF0FBECDBF19A2423008F44AE08E0104
:100420000F5D1F4F842E912CA12CB12CA50194019E
:1004300098D2E62FB901CA0101501109EA3014F42B
:10044000E05D01C0E95CD801EC93232B242B252B24
:1004500069F7C801BFDFA1960FB6F894DEBF0FBEE3
:10046000CDBFDF91CF911F910F91BF90AF909F9023
:100470008F9008954AD51F920F920FB60F921124B4
:100480000BB60F922F933F934F935F936F937F938E
:100490008F939F93AF93BF93EF93FF9387E492E083
:1004A000B4DEFF91EF91BF91AF919F918F917F91BA
:1004B0006F915F914F913F912F910F900BBE0F90D5
:1004C0000FBE0F901F9018951F920F920FB60F92AC
:1004D00011240BB60F922F938F939F93EF93FF935B
:1004E000E0915702F09158028081E0915D02F09115
:1004F0005E0282FD12C09081809160028F5F8F73D7
:1005000020916102821751F0E0916002F0E0E95B16
:10051000FD4F958F8093600201C08081FF91EF9124
:100520009F918F912F910F900BBE0F900FBE0F9048
:100530001F9018951F920F920FB60F9211242F93B0
:100540003F938F939F93AF93BF9380913F0290917E
:100550004002A0914102B091420230913E0223E05C
:10056000230F2D3720F40196A11DB11D05C026E8EB
:10057000230F0296A11DB11D20933E0280933F02DE
:1005800090934002A0934102B093420280914302B3
:1005900090914402A0914502B09146020196A11D9E
:1005A000B11D8093430290934402A0934502B093FF
:1005B0004602BF91AF919F918F913F912F910F90E4
:1005C0000FBE0F901F901895CF93DF9300D01F920E
:1005D000CDB7DEB7789484B5826084BD84B5816080
:1005E00084BD85B5826085BD85B5816085BD8091FE
:1005F0006E00816080936E00109281008091810076
:10060000826080938100809181008160809381006D
:10061000809180008160809380008091B10084602F
:100620008093B1008091B00081608093B000809190
:10063000910082608093910080919100816080930D
:100640009100809190008160809390008091A10042
:1006500082608093A1008091A10081608093A100BD
:100660008091A00081608093A00080912101826030
:1006700080932101809121018160809321018091EB
:10068000200181608093200180917A0084608093B2
:100690007A0080917A00826080937A0080917A005B
:1006A000816080937A0080917A00806880937A00DC
:1006B0001092C10061E070E080E090E042D38C01D4
:1006C000009729F0FC0110826DE372E02BD4E091D9
:1006D0005702F091580282E08083E0915302F0913A
:1006E00054021082E0915502F09156028FEC808303
:1006F00010925F02E0915B02F0915C0286E08083E1
:10070000E0915902F0915A02808180618083E091EA
:100710005902F0915A02808188608083E0915902E9
:10072000F0915A02808180688083E0915902F091B3
:100730005A0280818F7D808386E192E04BDEA12C7E
:10074000B12CCE0101964C011E0195E0290E311C01
:1007500074016501C818D908C7018C0D9D1D02D50B
:10076000F70181937F01E215F305B1F7C980DA80C3
:10077000EB80FC80A7019601C701B601B1D18823A7
:1007800019F08FE292E018C026013701E89477F85B
:100790002FEF3FEF4FE75FE7C301B201A1D1811116
:1007A0000DC02FEF3FEF4FE75FE7C301B201C1D3A9
:1007B000181624F483E392E00DDE72C02FEF3FEFB2
:1007C0004FE75FE4C701B60187D118161CF487E331
:1007D00092E0F2CF2FEF3FEF4FE75FECC701B6019A
:1007E000A8D387FDF4CF20E030E0A901C701B6010E
:1007F000A0D387FF0FC0E0914702F091480201901B
:10080000F081E02D6DE287E492E01995F7FAF0941B
:10081000F7F8F0942AE037ED43EA5BE3C701B6014D
:10082000CBD02B013C012CD16B017C0186D39B01E9
:10083000AC01C301B201BFD02B013C014AE0C701AA
:10084000B601D9DDE0914702F09148020190F081B4
:10085000E02D6EE287E492E0199520E030E040E27E
:1008600051E4C301B201CAD36B017C0109D12B0150
:10087000612C712C4AE0C301B201BDDDC301B2019C
:100880005CD39B01AC01C701B60195D020E030E0FC
:1008900040E251E4B3D3F4D080E090E04AE0ABDD35
:1008A0008BE392E097DDFFEFAF1ABF0A6EDD2B01FD
:1008B0003C0184EFC82EDD24D394E12CF12C65DDBE
:1008C000DC01CB0184199509A609B709883E93403C
:1008D000A105B10558F021E0C21AD108E108F108DC
:1008E00088EE480E83E0581E611C711CC114D104AF
:1008F000E104F10421F7FAEFAF16B10409F028CFB3
:10090000C80187D10ADDFECFE7E4F2E0138212824C
:1009100088EE93E0A0E0B0E084839583A683B7835C
:100920008AE092E09183808385EC90E095878487CC
:1009300084EC90E09787868780EC90E0918B808BA9
:1009400081EC90E0938B828B82EC90E0958B848B92
:1009500086EC90E0978B868B118E128E138E148E00
:100960000895A1E21A2EAA1BBB1BFD010DC0AA1FF0
:10097000BB1FEE1FFF1FA217B307E407F50720F008
:10098000A21BB30BE40BF50B661F771F881F991F83
:100990001A9469F760957095809590959B01AC01CC
:1009A000BD01CF010895EE0FFF1F881F8BBF079079
:1009B000F691E02D19945058BB27AA270ED098C362
:1009C00089D330F08ED320F031F49F3F11F41EF420
:1009D0007EC30EF4E095E7FB74C3E92F9AD380F34E
:1009E000BA17620773078407950718F071F49EF52C
:1009F000B2C30EF4E0950B2EBA2FA02D0B01B90156
:100A000090010C01CA01A0011124FF27591B99F084
:100A1000593F50F4503E68F11A16F040A22F232F90
:100A2000342F4427585FF3CF469537952795A795E0
:100A3000F0405395C9F77EF41F16BA0B620B730B87
:100A4000840BBAF09150A1F0FF0FBB1F661F771FF8
:100A5000881FC2F70EC0BA0F621F731F841F48F4AD
:100A6000879577956795B795F7959E3F08F0B3CF33
:100A70009395880F08F09927EE0F9795879508951D
:100A800050D388F09F5790F0B92F9927B751A0F015
:100A9000D1F0660F771F881F991F1AF0BA95C9F712
:100AA00012C0B13081F057D3B1E0089554C3672F1D
:100AB000782F8827B85F39F0B93FCCF386957795C2
:100AC0006795B395D9F73EF49095809570956195AB
:100AD0007F4F8F4F9F4F08956DD208F48FEF089589
:100AE00069D2880B990B0895CF93DF9382309105DB
:100AF00010F482E090E0E091E602F091E70220E05D
:100B000030E0C0E0D0E0309711F1408151814817CA
:100B10005907C0F04817590761F4828193812097E3
:100B200019F09B838A832BC09093E7028093E6029F
:100B300026C02115310519F04217530718F49A0100
:100B4000BE01DF01EF010280F381E02DDCCF211532
:100B5000310509F1281B390B2430310590F4129628
:100B60008D919C9113976115710521F0FB01938381
:100B7000828304C09093E7028093E602FD013296DF
:100B800044C0FD01E20FF31F81939193225031097C
:100B90002D933C933AC02091E4023091E502232B3F
:100BA00041F420910202309103023093E502209338
:100BB000E40220910002309101022115310541F437
:100BC0002DB73EB74091040250910502241B350B0E
:100BD000E091E402F091E502E217F307A0F42E1B86
:100BE0003F0B2817390778F0AC014E5F5F4F241791
:100BF000350748F04E0F5F1F5093E5024093E40223
:100C00008193919302C0E0E0F0E0CF01DF91CF91BA
:100C100008950F931F93CF93DF93009709F48CC02F
:100C2000FC013297138212820091E6021091E702D2
:100C30000115110581F420813181820F931F2091CC
:100C4000E4023091E5022817390779F5F093E502BF
:100C5000E093E40271C0D80140E050E0AE17BF0756
:100C600050F412962D913C911397AD012115310549
:100C700009F1D901F3CF9D01DA0133832283608129
:100C80007181860F971F8217930769F4EC01288101
:100C90003981260F371F2E5F3F4F318320838A8192
:100CA0009B8193838283452B29F4F093E702E093A1
:100CB000E60242C01396FC93EE931297ED01499120
:100CC00059919E01240F351FE217F30771F48081BB
:100CD0009181840F951F029611969C938E93828129
:100CE000938113969C938E931297E0E0F0E0D801E5
:100CF00012968D919C911397009719F0F8018C0131
:100D0000F6CF8D919C9198012E5F3F4F820F931FDC
:100D10002091E4023091E5022817390769F43097F1
:100D200029F41092E7021092E60202C013821282A6
:100D30001093E5020093E402DF91CF911F910F9190
:100D400008956F927F928F929F92AF92BF92CF92AF
:100D5000DF92EF92FF920F931F93CF93DF93EC01FB
:100D6000009781F4CB01DF91CF911F910F91FF90FC
:100D7000EF90DF90CF90BF90AF909F908F907F903B
:100D80006F90B2CEFC01E60FF71F9C012250310993
:100D9000E217F30708F4A8C0D9010D911C9111972F
:100DA00006171707A8F00530110508F49BC0C80105
:100DB00004978617970708F495C002501109061B7F
:100DC000170B019311936D937C93CF0122DF8AC09F
:100DD0005B01A01AB10A4C01800E911EA091E6029F
:100DE000B091E70240E050E0E12CF12C109709F4BB
:100DF0004AC0A815B905D1F56D907C901197630193
:100E000082E0C80ED11CCA14DB0480F1A3014A1988
:100E10005B096A0182E0C80ED11C1296BC90129741
:100E20001396AC91B5E0CB16D10440F0B282A38307
:100E300051834083D9016D937C930AC00E5F1F4F8D
:100E4000C301800F911FF90191838083EB2DFA2F4D
:100E5000E114F10431F0D7011396FC93EE9312974D
:100E600041C0F093E702E093E6023CC08D919C9173
:100E700011974817590708F4AC017D0112960D909F
:100E8000BC91A02DB3CF8091E4029091E50288152A
:100E90009905E1F446175707C8F480910002909134
:100EA0000102009741F48DB79EB740910402509122
:100EB0000502841B950BE817F907B0F4F093E502DF
:100EC000E093E402F901718360830CC0CB010CDE76
:100ED0007C01009749F0A801BE011BD0CE0199DE2C
:100EE000C70104C0CE0102C080E090E0DF91CF9145
:100EF0001F910F91FF90EF90DF90CF90BF90AF9038
:100F00009F908F907F906F90089581E090E0F8948B
:100F100031C1FB01DC0102C001900D9241505040F3
:100F2000D8F70895FB01DC0101900D920020E1F754
:100F3000089540D008F481E00895E89409C097FB33
:100F40003EF490958095709561957F4F8F4F9F4FA0
:100F50009923A9F0F92F96E9BB279395F6958795E4
:100F600077956795B795F111F8CFFAF4BB0F11F4A7
:100F700060FF1BC06F5F7F4F8F4F9F4F16C088234E
:100F800011F096E911C0772321F09EE8872F762F84
:100F900005C0662371F096E8862F70E060E02AF0C5
:100FA0009A95660F771F881FDAF7880F96958795B1
:100FB00097F90895990F0008550FAA0BE0E8FEEF86
:100FC00016161706E807F907C0F012161306E4070D
:100FD000F50798F0621B730B840B950B39F40A2606
:100FE00061F0232B242B252B21F408950A2609F4E4
:100FF000A140A6958FEF811D811D08950BD078C06B
:1010000069D028F06ED018F0952309F05AC05FC05F
:101010001124A2C07ED0A0F3959FD1F3950F50E08C
:10102000551F629FF001729FBB27F00DB11D639F9A
:10103000AA27F00DB11DAA1F649F6627B00DA11D40
:10104000661F829F2227B00DA11D621F739FB00DE6
:10105000A11D621F839FA00D611D221F749F332756
:10106000A00D611D231F849F600D211D822F762FEF
:101070006A2F11249F5750408AF0E1F088234AF0EC
:10108000EE0FFF1FBB1F661F771F881F9150504038
:10109000A9F79E3F510570F014C05EC05F3FECF3AE
:1010A000983EDCF3869577956795B795F795E79524
:1010B0009F5FC1F7FE2B880F911D9695879597F935
:1010C000089597F99F6780E870E060E008959FEFCA
:1010D00080EC089500240A941616170618060906CF
:1010E000089500240A94121613061406050608959E
:1010F000092E0394000C11F4882352F0BB0F40F426
:10110000BF2B11F460FF04C06F5F7F4F8F4F9F4F65
:10111000089557FD9058440F551F59F05F3F71F0E7
:101120004795880F97FB991F61F09F3F79F087954E
:101130000895121613061406551FF2CF4695F1DFD7
:1011400008C0161617061806991FF1CF8695710567
:10115000610508940895E894BB2766277727CB019B
:1011600097F90895F999FECF92BD81BDF89A992714
:0811700080B50895F894FFCF4B
:101178000000E8028000000000002601A300F00043
:10118800CE00E2006C015265616420666C6F617488
:101198002066726F6D20454550524F4D3A20006EC3
:0E11A800616E00696E66006F7666000D0A00CB
:00000001FF
