:1000000015C1000044C1000042C1000040C1000011
:100010003EC100003CC100003AC1000038C10000F0
:1000200036C1000034C1000032C1000030C1000000
:100030002EC100002CC100002AC1000028C1000010
:1000400026C1000024C1000022C1000020C1000020
:100050001EC100001CC100001AC100000C94ED0D6F
:1000600016C100000C941C0D0C94F30C10C1000080
:100070000EC100000CC100000AC1000008C1000050
:1000800006C1000004C1000002C1000000C1000060
:10009000FEC00000FCC00000FAC00000F8C0000074
:1000A000F6C00000F4C00000F2C00000F0C0000084
:1000B000EEC00000ECC00000EAC00000E8C0000094
:1000C000E6C00000E4C00000E2C00000E0C00000A4
:1000D000DEC00000DCC00000DAC00000D8C00000B4
:1000E000D6C00000220B250B140B180B1E0B5C0B4B
:1000F000290B2D0B330B370B3B0B410B450B490BDE
:100100005C0B4F0B530B570B000020002300260005
:1001100029002C002F00320000010000030106011D
:10012000090100000A0B02090C0D0E080703040167
:1001300000000000000000000000000000000000BF
:10014000000000000000000000000000000012118C
:10015000100000000000000000000000000000008F
:100160000000000000000000000022002500280020
:100170002B002E00310034000201000005010801AF
:100180000B0100002100240027002A002D00300070
:10019000330001010000040107010A0105050505FE
:1001A000070508080808020202020A0A08080404EF
:1001B000040401010101010101010303030303031D
:1001C0000303040707070C0C0C0C0C0C0C0C0202AC
:1001D000020206060606060606060B0B0B0B0B0BA9
:1001E0000B0B010210202008081020401020408036
:1001F00002010201080402010102040810204080EB
:100200008040201008040201800402018040201078
:1002100008040201080402010102040810204080C1
:1002200001020408102040801C1F0C1F11241FBE57
:10023000CFEFD1E2DEBFCDBF00E00CBF17E0A0E002
:10024000B2E0E8E7FFE400E00BBF02C007900D92C8
:10025000A235B107D9F72AE0A2E5B7E001C01D92A7
:10026000AE32B207E1F711E0C5E1D1E000E006C02F
:1002700021970109802FFE010E946B21C431D10713
:1002800080E00807A9F70E945A130C94AB27B8CE58
:10029000DC01ED91FC91048CF58DE02D199591E038
:1002A00089270895862F089581E086270895089567
:1002B0008CBD9DBD08952F923F924F925F926F9299
:1002C0007F928F929F92AF92BF92CF92DF92EF92E6
:1002D000FF920F931F93CF93DF93CDB7DEB7659750
:1002E0000FB6F894DEBF0FBECDBF7C016B013A01A3
:1002F000FB0120E080E090E06AE03191332309F1D6
:1003000040ED430F4A3080F4689FA001699F500D73
:100310001124CA01C097830F911D37FD9A958F3F15
:10032000910559F350F313C03E3289F4233079F02C
:10033000D301A20FB11D12968C932F5F80E090E045
:10034000DCCF233021F4F301858381E020C0F70165
:10035000428153816481758180912609909127099A
:10036000A0912809B0912909481759076A077B0706
:1003700009F49CC10E94E10D8701085F1F4F6F7057
:1003800077277C5FC801F8D4813019F080E090E0D5
:10039000F2C180E393E09A838983F701828193819C
:1003A000A481B5818B839C83AD83BE8345E350E0FC
:1003B000BE016F5F7F4FC8010E945010892B19F456
:1003C000C12CD12C6FC10E94E10DF70177836683A8
:1003D0007627672776277A83698342E050E0BE015B
:1003E0006F5F7F4FC8010E941B1081E090E09E87E5
:1003F0008D8742E050E0BE01635F7F4FC8010E94DD
:100400001B1080E091E09E878D8742E050E0BE01A6
:10041000635F7F4FC8010E941B101E861D8642E04D
:1004200050E0BE01635F7F4FC8010E941B1042E095
:1004300050E0BE01635F7F4FC8010E941B1042E085
:1004400050E0BE01635F7F4FC8010E941B10560140
:10045000F5018081882311F1F6015F0181918111FD
:1004600015C045018C189D081814190494F48F8642
:1004700041E050E0BE01615F7F4FC8010E941B1048
:10048000A401B601C8010E941B1003C08E3229F7D7
:10049000E8CF6501FFEFCF1ADF0ADACF1F8641E010
:1004A00050E0BE01615F7F4FC8010E941B10C12C4C
:1004B000DD24D394DE86CD8642E050E0BE01635F4A
:1004C0007F4FC8010E941B10DE86CD8642E050E0BF
:1004D000BE01635F7F4FC8010E941B10C8010E94CC
:1004E0008910892B09F46CCF63E0A62EB12CF2E0C1
:1004F0006F0E711C0E94E10D1B012C01C8010E94AE
:10050000C40F18161906A4F00E94E10DDC01CB01FE
:1005100082199309A409B50989389341A105B10548
:10052000D0F462E370E080E090E00E94A90DE6CF95
:10053000F7014281538164817581808D918DA28DF7
:10054000B38D481759076A077B0741F4848D958D51
:10055000C59721F406C02FEF3FEF9AC02EEF3FEF73
:1005600097C0F70181A192A10C970CF4A5C04CE0B3
:1005700050E0BE016F5F7F4FC8010E947E0F8B81EC
:1005800090E0982F88272C81822B9A8B898B298148
:1005900030E0322F22274A81242BF70146815781F0
:1005A0004217530709F085C097FF83C08F70927080
:1005B000892B09F0DDC0CF80D12CDC2CCC248885A0
:1005C000C82AC114D10409F4D0C0812C912C8D818A
:1005D00090E0982F88272E81822B8816990608F4A0
:1005E0006EC0812C912C41E050E0BE016D5E7F4FCA
:1005F000C8010E947E0F8B89982F907C09F092C0D1
:10060000811185C08B898111EECF42E050E0BE019F
:10061000615F7F4FC8010E947E0F42E050E0BE0143
:10062000635F7F4FC8010E947E0FC8010E949C0F2C
:10063000C8010E949C0FC8010E949C0FC8010E9423
:100640009C0F42E050E0BE016F5E7F4FC8010E94E8
:100650007E0F8F8598898115914009F068C02D859E
:100660003E853227232732272130310509F05FC02C
:1006700089899A898115944009F074C044E050E05A
:10068000B301C8012C8B3D8B0E947E0F2C893D89C4
:100690006901F1E0AF1AB10829F02FEFC216D206B6
:1006A00009F428CFC80153D3C60165C08EEF9FEF70
:1006B00062C02CEF3FEFECCF2DEF3FEFE9CF41E0F1
:1006C00050E0BE01635F7F4FC8010E947E0F8D85A1
:1006D000811113C08D858111F2CFC8010E949C0F3A
:1006E000C8010E949C0FC8010E949C0FC8010E9473
:1006F0009C0FFFEF8F1A9F0A6ACF8D859FEF980F8F
:100700009D87882339F3C8010E949C0FF6CF8B89FF
:100710009FEF980F9B8B882309F474CFC8010E9428
:100720009C0FF5CFC8010E949C0F1B8A6BCF412CF8
:10073000512C89899A89982789279827481659061C
:1007400038F4C8010E949C0F8FEF481A580AF1CF65
:10075000EFEF8E1A9E0A8C149D0409F044CF26EF09
:100760003FEF96CF27EF3FEF93CF2AEF3FEF90CFAA
:100770002BEF3FEF8DCF65960FB6F894DEBF0FBE1F
:10078000CDBFDF91CF911F910F91FF90EF90DF9040
:10079000CF90BF90AF909F908F907F906F905F9021
:1007A0004F903F902F900895CF92DF92EF92FF925B
:1007B0000F931F93CF93DF93CDB7DEB7AF970FB6ED
:1007C000F894DEBF0FBECDBF7C016A0100E313E0E9
:1007D0001A8309831C861B8688EE93E0A0E0B0E0B4
:1007E0008D879E87AF87B88B8EE892E09A8789873E
:1007F000188F0F8B198E1A8E1B8E1C8E84E089A386
:100800001DA30CA31EA21FA218A619A680911E0943
:1008100090911F09A0912009B09121098CA79DA753
:10082000AEA7BFA78B839C83AD83BE8318861F8230
:10083000AE014C5D5F4FCE0101963DDD81309105EB
:10084000B1F4D701ED91FC910484F585E02D1BA74F
:100850000AA78EA19FA1A8A5B9A58CA79DA7AEA701
:10086000BFA7A601BE01665D7F4FC7011995AF9670
:100870000FB6F894DEBF0FBECDBFDF91CF911F91B1
:100880000F91FF90EF90DF90CF900895CF93CFB767
:10089000F89480917508811124C0E1EDF1E0849114
:1008A000E7E1F2E09491E82FF0E0EE0FFF1FEE5742
:1008B000FE4FA591B491EC91E92321F461E085E329
:1008C0000E947A0D85E30E94C30E8CB580618CBDB9
:1008D0008CB580648CBD84E30E94C30E83E30E94C8
:1008E000C30E809175088F5F80937508CFBFCF913D
:1008F00008959B0190E00496982F8827642F820F1B
:10090000931F0C948E0E0F931F93CF93DF931F9220
:10091000CDB7DEB790E00496982F88278C01060F9C
:10092000171F0E94390E8FE00E94D410812F0E9461
:10093000D410802F0E94D41080E00E94D4108983AC
:100940000E94370E89810F90DF91CF911F910F91F7
:1009500008951F93CF93DF93182F68E270E0D3DFE1
:10096000C82FD0E069E270E0812FCDDFDC2FCC27EB
:100970009E01282BC901DF91CF911F910895CF933C
:10098000DF93C82FD62F472F60E170E0B2DF4D2FE5
:1009900061E170E08C2FDF91CF91ABCF90E0982F89
:1009A000882744E050E0845F9B4F0C94650ECF9302
:1009B000DF93C82FD62F472F64E070E09ADF4D2FCA
:1009C00065E070E08C2FDF91CF9193CF462F62E0EE
:1009D00070E08FCF0C9438270F931F93CF93DF9342
:1009E00068E277E08FE798E0EDD708E412E0C3E231
:1009F000D0E0F80180810E5F1F4F0E94520D0197D9
:100A000041F4CE01E7DF843111F08A3061F06AE011
:100A100007C0CE01DFDF8A3011F0843121F064E1BC
:100A2000CE010E9440272196C034D10511F768EE0F
:100A300073E080E090E00E94A90D88E00E94C30E60
:100A400060E088E0DF91CF911F910F910C947A0DB7
:100A50006F927F928F929F92AF92BF92CF92DF92CE
:100A6000EF92FF920F931F93CF93DF938C017B0143
:100A7000DB011496AD90BC9015973501B1E06B1A6F
:100A80007108A0E0B0E0EFEFFFEFC12CD12C80E0C7
:100A900090E05A2F9B2E6A167B069CF12817390787
:100AA00044F1AA15BB0558F4E70168817981611505
:100AB000710529F06A0F7B1FEB01888001C0812C32
:100AC000BD016F5F7F4F841631F0A615B70519F091
:100AD0005E2F9F2E0AC001966F01CFEFCC1ADC0A61
:100AE000A615B70511F4562F972EDB01E52FF92D2A
:100AF000D0CFEF015601EC15FD0558F45F01E6017A
:100B000008C028173907ACF365E377E0C8018BD636
:100B10003DC065E377E0C80186D6F7018481958101
:100B2000A816B90698F58C179D0708F4EC01F70193
:100B3000A081B181AC0FBD1FDC901C920190F081AF
:100B4000E02DBF016A0D7B1D6115710559F0DB01B8
:100B50000D900020E9F71197AD01461B570BC80116
:100B60001AD60EC0D8018D919C91009711F00E9469
:100B70002322F801118210821582148213821282BC
:100B8000D701ED91FC91CE0FDF1FD882C801DF9114
:100B9000CF911F910F91FF90EF90DF90CF90BF907A
:100BA000AF909F908F907F906F900895FC01818D02
:100BB000928D0895FC0184899589089520E333E09E
:100BC000FC0131832083FB0140895189628973894B
:100BD000FC0142835383648375830895DC01ED91A6
:100BE000FC91008CF18DE02D1994CF93DF931F922F
:100BF000CDB7DEB76983DC01ED91FC910280F38112
:100C0000E02D41E050E0BE016F5F7F4F19950F90DE
:100C1000DF91CF910895FC019485FB0184859813A1
:100C200003C081E0943009F480E0089521E0FC01E4
:100C30008485843009F420E0822F08950895CF93AD
:100C4000DF931F92CDB7DEB76983DC01ED91FC9194
:100C50000280F381E02D41E050E0BE016F5F7F4FE5
:100C600019950F90DF91CF910895CF92DF92EF9277
:100C7000FF920F931F93CF93DF93CDB7DEB7AF975C
:100C80000FB6F894DEBF0FBECDBF7C016A0100E352
:100C900013E01A8309831C861B8688EE93E0A0E08C
:100CA000B0E08D879E87AF87B88B8EE892E09A87F9
:100CB0008987188F0F8B198E1A8E1B8E1C8E84E0DD
:100CC00089A31DA30CA31EA21FA218A619A680917A
:100CD0001E0990911F09A0912009B09121098CA7AC
:100CE0009DA7AEA7BFA78B839C83AD83BE831886C9
:100CF0001F82AE014C5D5F4FCE010196DCDA813080
:100D00009105B1F4D701ED91FC910088F189E02DB6
:100D10001BA70AA78EA19FA1A8A5B9A58CA79DA7CF
:100D2000AEA7BFA7A601BE01665D7F4FC70119959B
:100D3000AF960FB6F894DEBF0FBECDBFDF91CF9157
:100D40001F910F91FF90EF90DF90CF900895CF9378
:100D5000DF93EC01888D843061F00E946211E88D90
:100D6000F0E0EE0FFF1FEE5AF84F1182108284E080
:100D7000888FDF91CF910895EF92FF921F93CF93C9
:100D8000DF93FC01208D243011F080E01CC07B013A
:100D9000EC0110E0812F0E94AF11811102C0188F69
:100DA00005C08831E1F31F5F1430A1F7888D8430CE
:100DB00061F3FD86EC861A8E198E20E0A70162E0B1
:100DC0000E94731181E0DF91CF911F91FF90EF900E
:100DD00008950F931F93CF93DF931F92CDB7DEB784
:100DE0008C01DC01ED91FC910480F581E02D1995D9
:100DF000892B51F0BE016F5F7F4FF80184850E94FF
:100E0000DB10898190E002C08FEF9FEF0F90DF91A0
:100E1000CF911F910F910895FC0184850C940F11BF
:100E2000CF93DF931F92CDB7DEB741E050E0BE0114
:100E30006F5F7F4FFC0184850E940F111816190601
:100E40001CF4898190E002C08FEF9FEF0F90DF913B
:100E5000CF910895FC018485843011F00C94F51035
:100E600080E090E008958F929F92AF92BF92CF92D0
:100E7000DF92EF92FF920F931F93CF93DF936C015A
:100E80005B017A01FC01C485C43041F481E090E04B
:100E9000F6019383828380E090E04AC08A0141306A
:100EA000584010F000E018E080E590E001DA8C2F67
:100EB0000E9440134C0163E070E08C2F24DDD82F9A
:100EC000F6D9D73111F0DC3121F48016910660F3A8
:100ED00002C000E010E080E590E0EAD99801A501A9
:100EE00060E070E08C2F0E94B91260E270E08C2FFD
:100EF0000E944B1262E070E08C2F05DD84FD10C073
:100F000063E070E08C2FFFDC811105C0D0D98C2FFD
:100F10000E946211BBCFCBD980E590E0C9D9EACF5E
:100F200060E18C2F53DDC3D9012B09F4AFCFC7018A
:100F3000DF91CF911F910F91FF90EF90DF90CF90B5
:100F4000BF90AF909F908F900895FC01848584306E
:100F500011F00C94AF1180E008958F929F92AF92A0
:100F6000BF92CF92DF92EF92FF920F931F93CF9396
:100F7000DF93CDB7DEB72D970FB6F894DEBF0FBE67
:100F8000CDBF7C0100E010E038EE832E33E0932EDD
:100F9000A12CB12C40EFC42E42E0D42E1C821B8227
:100FA0008D829E82AF82B886DA82C9820D87CE0199
:100FB0000196CBDF811122C0F7014481558120E0E9
:100FC00061E0802F0E94731180E590E071D963E0A9
:100FD00070E0802F98DC833129F462E070E0802F8C
:100FE0000E944B1264D9F70184819581000F111F73
:100FF000F801EE5AF84F9183808305C00F5F1F4FB1
:101000000430110559F62D960FB6F894DEBF0FBEC9
:10101000CDBFDF91CF911F910F91FF90EF90DF90A7
:10102000CF90BF90AF909F908F900895CF93DF9314
:10103000FC0124852430C9F0EC0187DF843181F084
:10104000882371F0883161F08C3161F4E881F98195
:101050000480F581E02DCE01199521E0892B19F44A
:1010600020E001C021E0822F01C080E0DF91CF911C
:101070000895CF92DF92EF92FF921F93CF93DF9369
:10108000FC011485143079F1EC0180E590E010D971
:1010900068E070E0812F0E944B1209D992D56B0154
:1010A0007C01CE0152DF8823A1F061E070E080E096
:1010B00090E04FD586D5DC01CB018C199D09AE0996
:1010C000BF09883E9340A105B10558F38C850E9465
:1010D0006211EC85F0E0EE0FFF1FEE5AF84F11821F
:1010E000108284E08C87DF91CF911F91FF90EF9069
:1010F000DF90CF9008954F925F926F927F928F9280
:101100009F92AF92BF92CF92DF92EF92FF921F9386
:10111000CF93DF93CDB7DEB72D970FB6F894DEBF30
:101120000FBECDBF7C0192E5A92E97E0B92E10E04D
:10113000C12CD12C28EE422E23E0522E612C712C92
:1011400030EF832E32E0932E1C821B824D825E8212
:101150006F8278869A8289821D87D5012D913D9173
:101160005D01F701848195812817390799F4CE0133
:101170000196EBDE843159F0CE010196E6DE8C312A
:1011800049F4CE01019666DE892B91F003C0CC2490
:10119000C394D12C1F5F1430B9F6CD2869F4D70160
:1011A000ED91FC910480F581E02DC701199504C0F3
:1011B000CE0101965EDFEECF2D960FB6F894DEBF1E
:1011C0000FBECDBFDF91CF911F91FF90EF90DF90C9
:1011D000CF90BF90AF909F908F907F906F905F90D7
:1011E0004F9008952F923F924F925F926F927F920D
:1011F0008F929F92AF92BF92CF92DF92EF92FF9227
:101200000F931F93CF93DF93CDB7DEB72E970FB613
:10121000F894DEBF0FBECDBF7C016B015A016BDFBE
:1012200002E517E020E0612C712C88EE282E83E087
:10123000382E412C512C90EF892E92E0992E1C8251
:101240001B822D823E824F8258869A8289822D8708
:10125000F801419151918F01F701848195814817DF
:10126000590739F4CE0101962E876FDE2E8587311E
:10127000E9F02F5F243019F7C3012E960FB6F894CA
:10128000DEBF0FBECDBFDF91CF911F910F91FF90B9
:10129000EF90DF90CF90BF90AF909F908F907F9016
:1012A0006F905F904F903F902F900895A501B601E9
:1012B000CE0101962E87D7DD680E791E2E85D9CFF7
:1012C000CF92DF92FF920F931F93CF93DF93FC0196
:1012D0002485243009F06CC06A01EB018C01F12CEB
:1012E0008F2D0E94AF11811103C0F801F48607C051
:1012F0008B7F8831D1F3F394F4E0FF12F1CFF80142
:101300008485843009F454C0209148023091490208
:101310002F5F3F4F11F420E030EC309349022093CF
:101320004802409148025091490220E061E0DBD739
:10133000F801F4848A818F3F51F48B818F3F91F4BF
:101340008C818F3F79F48D818F3F61F42EC08111A4
:1013500009C08B81811106C08C81811103C08D81F0
:10136000882319F1C114D10401F180E590E00E94B5
:101370005801BE016E5F7F4F8F2D10DBB6018F2DA0
:10138000FEDA64E070E08F2D0E944B120E9457013C
:10139000C801DBDD873179F061E070E080E090E04A
:1013A000D8D3C801D2DD8111F3CF84E0F80184875E
:1013B00080E090E002C081E090E0DF91CF911F914A
:1013C0000F91FF90DF90CF900895CF92DF92EF9230
:1013D000FF920F931F93CF93DF936C017A018B01E0
:1013E000C0E0D0E0CE15DF0589F0D8016D918D0108
:1013F000D601ED91FC910190F081E02DC601199587
:10140000892B11F47E0102C02196ECCFC701DF9138
:10141000CF911F910F91FF90EF90DF90CF900895A3
:10142000FC01918D828D981761F0828DDF01A80FEC
:10143000B11D5D968C91928D9F5F9F73928F90E00E
:1014400008958FEF9FEF0895FC01918D828D98177D
:1014500031F0828DE80FF11D858D90E008958FEFBA
:101460009FEF0895FC01918D228D892F90E0805C83
:101470009F4F821B91098F73992708958FE798E0FA
:10148000F1DF21E0892B09F420E0822F0895FC018F
:10149000848DDF01A80FB11DA35ABF4F2C91848DFD
:1014A00090E001968F739927848FA689B7892C9332
:1014B000A089B1898C9180648C93938D848D9813CD
:1014C00006C00288F389E02D80818F7D8083089596
:1014D000EF92FF920F931F93CF93DF93EC0181E084
:1014E000888F9B8D8C8D981305C0E889F989808140
:1014F00085FD23C0F62E0B8D10E00F5F1F4F0F737D
:101500001127E02E8C8DE8120BC00FB607FCFACF26
:10151000E889F989808185FFF5CFCE01B8DFF2CF68
:101520008B8DFE01E80FF11DE35AFF4FF0820B8F08
:10153000EA89FB898081806207C0EE89FF89608328
:10154000E889F98980818064808381E090E0DF917F
:10155000CF911F910F91FF90EF900895CF93DF935C
:10156000EC01888D8823C1F0EA89FB89808185FDA3
:1015700005C0A889B9898C9186FD0EC00FB607FCFD
:10158000F5CF808185FFF2CFA889B9898C9185FF3D
:10159000EDCFCE017CDFE8CFDF91CF91089580E0E1
:1015A00090E0892B19F06ADF811125C080E090E07E
:1015B000892B41F080E090E0892B21F00E9400000F
:1015C00081111CC080E090E0892B41F080E090E028
:1015D000892B21F00E940000811113C080E090E06F
:1015E000892BA1F080E090E0892B81F00E9400001F
:1015F00081110AC008950E940000D8CF0E94000007
:10160000E1CF0E940000EACF0C940000089590E022
:10161000FC013197E231F10508F04EC08827EE5801
:10162000FF4F8F4F0C946B21809180008F7703C008
:10163000809180008F7D809380000895809180004C
:10164000877FF9CF84B58F7702C084B58F7D84BD45
:1016500008958091B0008F7703C08091B0008F7D96
:101660008093B0000895809190008F7707C080919B
:1016700090008F7D03C080919000877F80939000C1
:1016800008958091A0008F7707C08091A0008F7D82
:1016900003C08091A000877F8093A000089580916F
:1016A00020018F7707C0809120018F7D03C080913A
:1016B0002001877F8093200108953FB7F89480919F
:1016C0007B0890917C08A0917D08B0917E0826B59A
:1016D000A89B05C02F3F19F00196A11DB11D3FBF6A
:1016E000BA2FA92F982F8827820F911DA11DB11DF8
:1016F000BC01CD0142E0660F771F881F991F4A95F4
:10170000D1F708950E949F236115710579F0FB01BF
:1017100001900020E9F73197AF01461B570BDC0120
:10172000ED91FC910280F381E02D199480E090E02E
:101730000895FC0180819181009711F00C94FD26A1
:1017400060E070E0CB0108950F931F93CF93DF9378
:10175000EC0188819981009729F02A813B81261725
:10176000370788F48B016F5F7F4F0E94BB22009781
:1017700061F0998388831B830A832C813D81232B0D
:1017800011F4FC01108281E001C080E0DF91CF9173
:101790001F910F910895EF92FF920F931F93CF9394
:1017A000DF93EC017B018A01BA01CEDF2881398108
:1017B00081110DC02115310519F0C9010E942322A4
:1017C000198218821D821C821B821A8206C01D8308
:1017D0000C83B701C9010E94BE23CE01DF91CF91D6
:1017E0001F910F91FF90EF900895FC0180819181EE
:1017F0000C942322FB01DC0111961C921E9213967D
:101800001C921E92129715961C921E921497861780
:10181000970741F0608171816115710519F044816C
:101820005581B9CF0895FC01118210821382128272
:10183000158214826115710549F0FB0101900020A9
:10184000E9F73197AF01461B570BA5CF08954F928B
:101850005F926F927F92EF92FF920F931F93CF93BD
:10186000DF93CDB7DEB7A1970FB6F894DEBF0FBEFA
:10187000CDBF7C01FA01CB0119A2223008F42AE085
:101880008E010F5D1F4F422E512C612C712CBF0118
:10189000A30192010E947A27F901CA01015011099E
:1018A0006A3014F4605D01C0695CD8016C93232B2D
:1018B000242B252B61F7B801C70126DFA1960FB6AF
:1018C000F894DEBF0FBECDBFDF91CF911F910F9176
:1018D000FF90EF907F906F905F904F900895CF9220
:1018E000DF92EF92FF920F931F93CF93DF93EC0160
:1018F0006A017B01E881F9810190F081E02D6DE2C0
:1019000019958C0144275527BA014C195D096E09B8
:101910007F092AE0CE019BDF800F911FDF91CF91DD
:101920001F910F91FF90EF90DF90CF9008958F92CD
:101930009F92AF92BF92CF92DF92EF92FF920F935E
:101940001F93CF93DF937C01EB016C0182E0C80E03
:10195000D11C4701E5E08E0E911C00E010E0F6017D
:1019600041916F0150E060E070E02AE0CE016FDF4E
:101970005C01E881F9810190F081E02D6EE2CE01F9
:1019800019958A0D9B1D080F191FC814D90439F722
:10199000F701458150E060E070E02AE0CE0157DFBA
:1019A000800F911FDF91CF911F910F91FF90EF90CA
:1019B000DF90CF90BF90AF909F908F90089563E39A
:1019C00077E0A2CE0F931F93CF93DF93EC019CDEC1
:1019D0008C01CE01F4DF800F911FDF91CF911F9119
:1019E0000F91089591CE1F920F920FB60F9211246E
:1019F0000BB60F922F933F934F935F936F937F9309
:101A00008F939F93AF93BF93EF93FF938FE798E0EC
:101A10003EDDFF91EF91BF91AF919F918F917F91AB
:101A20006F915F914F913F912F910F900BBE0F904F
:101A30000FBE0F901F9018951F920F920FB60F9226
:101A400011240BB60F922F938F939F93EF93FF93D5
:101A5000E0918F08F09190088081E0919508F091D5
:101A6000960882FD12C09081809198088F5F8F73D5
:101A700020919908821751F0E0919808F0E0E15820
:101A8000F74F958F8093980801C08081FF91EF9167
:101A90009F918F912F910F900BBE0F900FBE0F90C3
:101AA0001F901895CF93DF93282F30E0F901EE5D5A
:101AB000FE4F8491F901EE51FE4FD491F901E456A5
:101AC000FE4FC491CC2389F08111A1DDEC2FF0E011
:101AD000EE0FFF1FE85FFE4FA591B491EC91ED234F
:101AE00081E090E021F480E002C080E090E0DF91AE
:101AF000CF9108951F93CF93DF93282F30E0F90102
:101B0000EE5DFE4F8491F901EE51FE4FD491F90143
:101B1000E456FE4FC491CC23C1F0162F811177DD1E
:101B2000EC2FF0E0EE0FFF1FE859FE4FA591B491A6
:101B30008FB7F894111105C09C91ED2FE095E92322
:101B400002C0EC91ED2BEC938FBFDF91CF911F91F1
:101B500008958F929F92AF92BF92CF92DF92EF92B1
:101B6000FF926B017C01A9DD4B015C01C114D10422
:101B7000E104F104E9F0A1DDDC01CB018819990948
:101B8000AA09BB09883E9340A105B10578F321E07D
:101B9000C21AD108E108F10888EE880E83E0981E89
:101BA000A11CB11CC114D104E104F10421F7DECF62
:101BB000FF90EF90DF90CF90BF90AF909F908F906D
:101BC00008952FB7F8946091770870917808809104
:101BD000790890917A082FBF08951F920F920FB63F
:101BE0000F9211242F933F938F939F93AF93BF93A3
:101BF0008091770890917808A0917908B0917A083F
:101C00003091760823E0230F2D3720F40196A11D93
:101C1000B11D05C026E8230F0296A11DB11D20931A
:101C200076088093770890937808A0937908B0930A
:101C30007A0880917B0890917C08A0917D08B091F2
:101C40007E080196A11DB11D80937B0890937C08AE
:101C5000A0937D08B0937E08BF91AF919F918F9123
:101C60003F912F910F900FBE0F901F9018952C9AB7
:101C700008952C980895CF92DF92EF92FF920F93E0
:101C80001F93CF93DF93EC017A018B016C01C40E9B
:101C9000D51ECC15DD0579F0ECDF8FE085D28D2FD8
:101CA00083D28C2F81D2219680E07ED2F80181935D
:101CB0008F01DDDFEECFC701DF91CF911F910F9133
:101CC000FF90EF90DF90CF900895CF92DF92EF9248
:101CD000FF920F931F93CF93DF93EC017A018B0157
:101CE0006C01C40ED51ECC15DD0571F0C2DF80EF8E
:101CF0005BD28D2F59D28C2F57D22196F80181912A
:101D00008F0152D2B4DFEFCFC701DF91CF911F9186
:101D10000F91FF90EF90DF90CF9008951F93CF9396
:101D2000DF931F921F92CDB7DEB7182F6A83998376
:101D3000A0DF80EF39D29981892F36D2812F34D21A
:101D40006A81862F31D293DF81E00F900F90DF916F
:101D5000CF911F9108951F93CF93DF93182F66E2C1
:101D600070E00E948304C82FD0E067E270E0812F0A
:101D70000E948304DC2FCC279E01282BC901DF9110
:101D8000CF911F91089590E0FC01EE51FE4F2491F8
:101D9000FC01E456FE4F8491882399F090E0880F6F
:101DA000991FFC01EE57FE4FA591B491FC01E85933
:101DB000FE4F859194918FB7F894EC91E22BEC93C0
:101DC0008FBF08950895CF93DF931F92CDB7DEB7ED
:101DD0006983DC01ED91FC910280F381E02D41E00B
:101DE00050E0BE016F5F7F4F19950F90DF91CF914B
:101DF0000895BF92CF92DF92EF92FF920F931F93BD
:101E0000CF93DF9300D000D0CDB7DEB7FC01208D9B
:101E1000243009F04AC06A017B018C01B12C63E0D7
:101E200070E08B2D0E948304811103C0F801B08EF5
:101E300006C08831D9F3B394F4E0BF12F0CFF801B3
:101E4000808D843091F196E0E8E3F3E0DE011196B5
:101E500001900D929A95E1F7F70193819F779C830A
:101E600094819D8395819E83B7016E5F7F4F0E9411
:101E7000CE04B601F801808D0E94BF04F801808D68
:101E800090E0982F882746E050E0BE016F5F7F4FBB
:101E90008A5F9B4F1ADFF801128E118E20E8A6018F
:101EA00062E0808D20D281E001C080E026960FB6EE
:101EB000F894DEBF0FBECDBFDF91CF911F910F9180
:101EC000FF90EF90DF90CF90BF900895CF93DF9376
:101ED0001F92CDB7DEB7FC01218D328D232B41F04F
:101EE000BE016F5F7F4F808D66D1898190E002C017
:101EF0008FEF9FEF0F90DF91CF910895CF93DF93F6
:101F0000FC01218D328D2115310519F48FEF9FEFE2
:101F100010C0EC014217530708F0A901888D7FD14A
:101F2000181619069CF7298D3A8D281B390B3A8F04
:101F3000298FDF91CF9108950F931F93CF93DF9354
:101F40001F92CDB7DEB7FC01218D328D232B59F0C6
:101F50008C0141E050E0BE016F5F7F4F808D5FD10B
:101F6000181619061CF08FEF9FEF08C0F801818D3D
:101F7000928D0197928F818F898190E00F90DF91F0
:101F8000CF911F910F9108950F931F93CF93DF93DC
:101F9000CDB7DEB728970FB6F894DEBF0FBECDBF22
:101FA0008C01F801818D928D892B49F0D801ED913A
:101FB000FC910680F781E02DC8011995F2CF808D44
:101FC00014D11816190654F548E050E0BE016F5FB1
:101FD0007F4FD80158968C9122D19C011816190672
:101FE000DCF489819A81AB81BC81F801808B918B73
:101FF000A28BB38B8D8190E0982F88272E81820F42
:10200000911D958B848B2F8130E0322F222788857C
:10201000280F311D328F218FC90102C080E090E06E
:1020200028960FB6F894DEBF0FBECDBFDF91CF91DB
:102030001F910F910895AF92BF92CF92DF92FF92BE
:102040000F931F93CF93DF938C015B01EA01FC0197
:10205000C688D788F08C80E590E00E9458018F2DCB
:102060000FD38C179D0718F48F2D0AD3EC019E0116
:10207000A501B6018F2D7DD20E945701F8018689F6
:1020800097898C0F9D1F978B868BCE01DF91CF9107
:102090001F910F91FF90DF90CF90BF90AF90089568
:1020A000FF920F931F93CF93DF93FB01DC015796B1
:1020B0001C921E9256975896FC908281811109C0FD
:1020C0008381811106C08481811103C085818823A9
:1020D000C1F041155105A9F08A01EF0180E590E0BA
:1020E0000E945801BE016E5F7F4F8F2D0E94CE046B
:1020F000B8018F2D0E94BF040E94570181E090E03B
:1021000002C080E090E0DF91CF911F910F91FF908E
:102110000895CF93FC01C08D80E590E00E945801A6
:1021200060E270E08C2FB7D162E070E08C2F0E94EB
:10213000830484FD17C062E070E08C2F0E9483044A
:1021400083FF09C068E18C2F0E94E6040E945701BA
:1021500080E090E00FC00E94570180E590E00E946F
:102160005801E2CF60E18C2F0E94E6040E945701E3
:1021700081E090E0CF9108951F93CF93DF93182FC4
:1021800060E270E00E948304C82FD0E061E270E05A
:10219000812F0E948304DC2FCC279E01282BC901AC
:1021A000DF91CF911F9108958EBD00000DB407FE01
:1021B000FDCF8EB508950F931F93CF93C82F8B013A
:1021C00080E590E00E9458018C2F0E94A90421E034
:1021D00030E0A801BC018C2F6ED10E94570181E034
:1021E00090E0CF911F910F9108951F93CF93DF93AC
:1021F0001F921F92CDB7DEB7182F80E590E00E94A6
:102200005801812F9CD189839A830E94570189812B
:102210009A810F900F90DF91CF911F910895CF92E7
:10222000DF92EF92FF921F93CF93DF93182F6B01F2
:102230007A0180E590E00E945801812F80D1EC0165
:10224000009799F463E070E0812F0E948304843149
:1022500071F1882361F1C1E0D0E08C3111F4C0E06C
:10226000D0E0D195C195D10922C0E816F9060CF449
:10227000E7011C161D06DCF4812F0E94A9047C01D5
:102280009E01A601BC01812F16D1EC0EFD1E4F2D23
:1022900068E270E0812F0E9479044E2D69E270E0BF
:1022A000812F0E94790460E470E0812FF4D00E94B5
:1022B0005701CE01DF91CF911F91FF90EF90DF90FA
:1022C000CF900895CF93C82F80E590E00E945801E9
:1022D00060E170E08C2FDFD06FEF8C2F0E94E6045E
:1022E000CF910C945701FF920F931F93CF93DF93DD
:1022F0001F921F92CDB7DEB7F82E8A012A83698319
:10230000E1DF80E590E00E9458012A816981462F33
:10231000422B60E070E08F2D0E94790401151105B9
:1023200011F0B8010AC06091180A7091190A6F5F24
:102330007F4F7093190A6093180A8F2D0E94D7045B
:1023400061E070E08F2DA7D00E94570181E00F90CF
:102350000F90DF91CF911F910F91FF9008951F93E0
:10236000CF93DF931F92CDB7DEB7182F80E590E0B3
:102370000E94580163E070E0812F0E9483048983EA
:102380000E94570189810F90DF91CF911F9108958D
:10239000CF92DF92EF92FF920F931F93CF93DF9331
:1023A0006C017B018A01E9016CE271E080E090E060
:1023B000D0DB0E944604249A80E590E00E945801F8
:1023C00060E880E090E0AADC65E58BE190E0A6DCC7
:1023D00065E58AE190E0A2DC0E945701EAE1FAE0BB
:1023E00080E090E49183808380E090E6918780870D
:1023F00080E098E49383828380E098E693878287E5
:1024000080E090E59583848380E090E795878487DA
:1024100080E098E59783868380E098E797878687B2
:1024200080E590E00E94580146E050E06AE472E0E6
:1024300089E090E04ADCB6016E5F7F4F44E050E0F7
:102440008FE090E042DCB8016E5F7F4F44E050E0E7
:1024500081E090E03ADCBE016E5F7F4F44E050E0E7
:1024600085E090E032DC0E945701F7018281938180
:10247000A481B58180931E0990931F09A093200920
:10248000B0932109DF91CF911F910F91FF90EF90B1
:10249000DF90CF900895CF93C82F462F61E070E072
:1024A0000E94790461E070E08C2F0E948304811106
:1024B000F9CFCF910895AF92BF92CF92DF92EF9272
:1024C000FF920F931F93CF93DF931F921F92CDB76D
:1024D000DEB77A836983BA01A901E981FA81F770CD
:1024E000082F10E0000F111F0E5D154FD8018D91C0
:1024F0009C918E0F9F1F2E0F3F1F2130384090F070
:102500007A015B0120E038E06901CE1ADF0AA601FA
:10251000B2DBA7014C195D09B5016C0D7D1DF801F9
:10252000808191810F900F90DF91CF911F910F913A
:10253000FF90EF90DF90CF90BF90AF909CCBFF9239
:102540000F931F93CF93DF93F82EC0E0D0E08F2D31
:1025500002DC8C01892B19F08F2DFDDBEC01C017FB
:10256000D107A9F7CE01DF91CF911F910F91FF9075
:1025700008959F92AF92BF92CF92DF92EF92FF9217
:102580000F931F93CF93DF93982E8B015A0169010C
:1025900064E270E00E948304E82EF12C65E270E0B2
:1025A000892D0E948304FE2CEE24E82AE701C00F47
:1025B000D11F9E013770E92CF12CC701880F991F9C
:1025C000AC01465E554F7A01FA0180819181820FFC
:1025D000931FA9014C0D5D1D4130584088F000E06B
:1025E00018E0021B130BA801B5016FDBA601401B0D
:1025F000510BB501600F711FF7018081918102C0FD
:10260000A601B50162DBCC0DDD1D4D2F64E270E04B
:10261000892D0E9479044C2F65E270E0892DDF91AD
:10262000CF911F910F91FF90EF90DF90CF90BF90CF
:10263000AF909F900C947904CF93DF9320914A0937
:1026400030914B09232B79F0FC01C0914609D091C0
:10265000470960817181CE010E94C523009719F05E
:102660008C1B9D0B02C08FEF9FEFDF91CF910895E0
:10267000AB01770F660B770B77FD31C92AE0E7C80E
:10268000FF920F931F93CF93DF93F82EC0E0D0E01B
:102690008F2D72DD8C01892B19F08F2D6DDDEC01F2
:1026A000C017D107A9F7CE01DF91CF911F910F91EC
:1026B000FF900895CF93DF93CDB7DEB7C35FD10905
:1026C0000FB6F894DEBF0FBECDBF789484B582609C
:1026D00084BD84B5816084BD85B5826085BD85B5C6
:1026E000816085BD80916E00816080936E00109244
:1026F00081008091810082608093810080918100BF
:10270000816080938100809180008160809380004F
:102710008091B10084608093B1008091B0008160AD
:102720008093B000809191008260809391008091AD
:1027300091008160809391008091900081608093EE
:1027400090008091A10082608093A1008091A100FF
:1027500081608093A1008091A00081608093A0009F
:10276000809121018260809321018091210181600B
:1027700080932101809120018160809320018091CC
:102780007A00846080937A0080917A0082608093DE
:102790007A0080917A00816080937A0080917A003B
:1027A000806880937A001092C100E8E4F2E087E14B
:1027B00090E081939193019684339105D1F708E4D9
:1027C00012E0F80180810E5F1F4FDDDAF2E002387F
:1027D0001F07B9F761E0809148028CD961E08091D0
:1027E0004A0288D961E080914C0284D961E08091ED
:1027F0004E0280D961E0809150027CD961E08091E5
:10280000520278D961E08091540274D961E08091DC
:10281000560270D961E0809158026CD961E08091D4
:102820005A0268D961E080915C0264D961E08091CC
:102830005E0260D961E0809160025CD961E08091C4
:10284000620258D961E08091640254D961E08091BC
:10285000660250D961E0809168024CD961E08091B4
:102860006A0248D961E080916C0244D961E08091AC
:102870006E0240D961E0809170023CD961E08091A4
:10288000720238D961E08091740234D961E080919C
:10289000760230D961E0809178022CD961E0809194
:1028A0007A0228D961E080917C0224D961E080918C
:1028B0007E0220D961E0809180021CD9E0918F08CE
:1028C000F091900882E08083E0918B08F0918C0871
:1028D0001082E0918D08F0918E088FEC8083109229
:1028E0009708E0919308F091940886E08083E09146
:1028F0009108F0919208808180618083E091910835
:10290000F0919208808188608083E0919108F09135
:102910009208808180688083E0919108F09192080C
:1029200080818F7D80830E94460400E313E01A8338
:1029300009838091B8099091B909A091BA09B09121
:10294000BB098B839C83AD83BE8368961FAF0EAF9C
:1029500068978091BE099091BF09A091C009B0917C
:10296000C1096C968CAF9DAFAEAFBFAF6C97CE5523
:10297000DF4F19830883C25AD0408091C4099091D7
:10298000C509A091C609B091C709CC55DF4F88830E
:102990009983AA83BB83C45AD040C251DF4F1983A5
:1029A0000883CE5ED04080913A0990913B09A09176
:1029B0003C09B0913D09C051DF4F88839983AA83B8
:1029C000BB83C05FD0409E012F5F3F4FAE014A5A8C
:1029D0005F4FBE016E557F4FCE0182519F4FD8DCB5
:1029E0006EE373E08FE798E00E94F20C1A8309838C
:1029F0001B821C821D821E8280E590E00E9458018D
:102A000044E050E0BE016D5F7F4F8FE090E033D92E
:102A10000E9457016FE778E0CE0101960E94970C63
:102A20008FE798E00E94DF0C2090000230900102B6
:102A3000C8D8C0906207D0906307E0906407F09018
:102A400065078B019C010C191D092E093F09809116
:102A5000660790916707A0916807B0916907083EE3
:102A6000134021053105D0F00196A11DB11D8093C1
:102A7000660790936707A0936807B0936907B7014B
:102A8000A60148515C4F6F4F7F4F409362075093B0
:102A900063076093640770936507CACF40915E0730
:102AA00050915F07609160077091610784179507E7
:102AB000A607B70708F455C0E0915C07F0915D07E1
:102AC000309709F44EC0199561157105810591057E
:102AD00031F160936607709367078093680790935E
:102AE0006907DC01CB01845D9E4FAF4FBF4F8093E0
:102AF0005E0790935F07A0936007B093610782E041
:102B000090E090935B0780935A075BD860936207CD
:102B100070936307809364079093650722C0809148
:102B2000660790916707A0916807B0916907845D77
:102B30009E4FAF4FBF4F80935E0790935F07A09368
:102B40006007B093610781E090E020915A073091CF
:102B50005B07232B11F480E090E090935B07809358
:102B60005A078090660790906707A0906807B0901A
:102B7000690780916A0790916B07A0916C07B091EB
:102B80006D0788169906AA06BB0609F4C2C03CE385
:102B9000C32ED12CE12CF12CC501B401A701960163
:102BA0000E947A2760936E07CA01B901A7019601B6
:102BB0000E947A2760936F07CA01B90128E130E0CB
:102BC00040E050E00E947A2769017A016093700723
:102BD000CA01B9016C5F7F4F8F4F9F4F27E030E0F4
:102BE00040E050E00E947A276F5F60937107412CAC
:102BF000512C320140E000E911E0242F30E02E5446
:102C0000384FF901E370FF27309791F4C90164E66A
:102C100070E00E945821892B31F4C901B8010E944B
:102C20005821892B29F48EE691E0A0E0B0E004C0A1
:102C30008DE691E0A0E0B0E0480E591E6A1E7B1EB2
:102C4000D301C201AA27BB27C816D906EA06FB068C
:102C500010F04F5FD2CF40937407309799F4C901B9
:102C600064E670E00E945821892B39F4C90160E9BB
:102C700071E00E945821892B29F48EE691E0A0E0B2
:102C8000B0E004C08DE691E0A0E0B0E0481A590A37
:102C90006A0A7B0AC418D508E608F708C90164E681
:102CA00070E00E9458218C01C90160E971E00E9426
:102CB0005821AAE5B2E020E0213041F4309751F4E8
:102CC0000115110529F4009729F402C04C9103C0A5
:102CD0004DE101C04CE150E060E070E0C416D50663
:102CE000E606F70640F0C41AD50AE60AF70A2F5F8F
:102CF00011962C3009F72F5F20937307C394C0926D
:102D0000720780926A0790926B07A0926C07B0924C
:102D10006D0780916E0790E02816390609F053C3BD
:102D200080910002909101028733910511F0059680
:102D300002C085E090E090930102809300021E8221
:102D40001D8218861F8219861A861B861C868E0194
:102D5000035F1F4FB0E4FB2EF8012F2D11922A952F
:102D6000E9F71A8219821C821B8280E393E0629643
:102D70009FAF8EAF629766961CAE1DAE1EAE1FAEA5
:102D8000669760E170E08091740985DB6FEF809158
:102D900074090E94E60443E060E070E080917409E9
:102DA0000E94790441E064E170E0809174090E941E
:102DB000790460E070E0809174090E94D70461E0BA
:102DC00070E08091740967DB8091730991E0980F3E
:102DD000909373092091720930E0CA55DF4F39830F
:102DE0002883C65AD04090E0C855DF4F9983888326
:102DF000C85AD0400E94E10DC655DF4F68837983E1
:102E00008A839B83CA5AD040E6E7F9E0A2EAB0E0A1
:102E1000AC0FBD1F1C9601900D92FA94E1F788E06B
:102E2000CE55DF4F8883C25AD040CD55DF4F188230
:102E3000C35AD04020E038E0C855DF4F488159815F
:102E4000C85AD040CA55DF4F88819981C65AD040B0
:102E5000480F591FC455DF4F68817981CC5AD04043
:102E6000C655DF4F88819981CA5AD040860F971F77
:102E7000A0E0B0E0840F951FA11DB11D820F931F2C
:102E8000A11DB11D22EAE22EF12CEC0EFD1E4DE03B
:102E9000E40EF11CAE0141515F4FB7016150710961
:102EA000F7012081FB013081820F931FA11DB11D0D
:102EB000F2E0EF0EF11CE416F50679F7AD01662796
:102EC0007727AA27BB27840F951FA61FB71FAD0121
:102ED00066277727840F951FA61FB71F80959095AB
:102EE000CC55DF4F99838883C45AD040109275091E
:102EF000A6E5CA2ED12CCC0EDD1E28E0C20ED11CB8
:102F0000809175098111EFC18091CA09C251DF4FCB
:102F10008883CE5ED0408091CB09C151DF4F88833A
:102F2000CF5ED0408091CC09C051DF4F8883C05F15
:102F3000D0408091CD09CF50DF4F8883C15FD04012
:102F4000BE0162517F4F809174090E94CE0440E817
:102F500066E170E0809174090E94790460E070E09D
:102F6000809174090E94BF04CE55DF4F8881C25AF8
:102F7000D04067968FAF6797CD55DF4F8881C35A92
:102F8000D04068968FAF6897CC55DF4F8881998184
:102F9000C45AD0409827892798276A969FAF8EAF4A
:102FA0006A97CA55DF4F88819981C65AD0409827C1
:102FB000892798276C969FAF8EAF6C97C855DF4FC7
:102FC00088819981C85AD0409827892798276E967A
:102FD0009FAF8EAF6E97C655DF4F688179818A812A
:102FE0009B81CA5AD0400E947321A2966CAF7DAFDC
:102FF0008EAF9FAFA29780E4E2EAF0E0EC0FFD1FF6
:103000003C96A6E5B0E0AC0FBD1F1C9601900D925A
:103010008A95E1F72CE430E0AE014A5A5F4F60E058
:1030200070E080917409A5DA60E270E08091740923
:1030300032DA62E070E0809174090E94830484FDBA
:1030400010C062E070E0809174090E94830483FFE5
:10305000F0CF68E1809174090E94E60481E090E07D
:1030600007C060E1809174090E94E60480E090E06E
:1030700060969FAF8EAF6097892B09F02EC10E949A
:10308000E10D2B013C0160E4962E76E5A72EB12CD4
:10309000AC0EBD1E4CE0A40EB11C0E94E10DDC0183
:1030A000CB0184199509A609B709883E9340A1056B
:1030B000B10508F00CC18091740941DA892B69F3DC
:1030C000809174090E94A9047C01BC01772726E045
:1030D00030E0AE0142515F4F80917409ECD986E037
:1030E000E80EC251DF4F8881CE5ED04063968FAF2D
:1030F0006397C151DF4F8881CF5ED04064968FAF18
:103100006497C051DF4F8881C05FD04065968FAF14
:103110006597CF50DF4F8881C15FD04066968FAFF3
:103120006697CD50DF4FF880C35FD0409CE49F1579
:1031300010F45CE4F52E2F2D30E06E2D70E0AE0122
:103140004A5A5F4F80917409B6D967962FAD679739
:10315000298368968FAD68978A836A968EAD9FADF6
:103160006A979827892798279C838B836C968EADC6
:103170009FAD6C979827892798279E838D836E969D
:103180008EAD9FAD6E9798278927982798878F8354
:103190002B3071F0A2966CAD7DAD8EAD9FADA29738
:1031A0000E94732169877A878B879C87F50101C00C
:1031B000F601D801892D01900D928A95E1F7EF0C67
:1031C000F090740940E068E270E08F2D0E9479046D
:1031D0004E2D69E270E08F2D0E94790460E470E06A
:1031E0008091740958D966E170E0809174090E9459
:1031F00083042E968FAF2E978981882319F08B3008
:10320000F1F04BCF2D813E81CA55DF4F88819981E6
:10321000C65AD0402817390709F03FCF2F8138858B
:10322000C855DF4F88819981C85AD040281739077F
:1032300009F033CF60961FAE1EAE60974EC0ED858D
:10324000EF7024E0E29FF0011124A1E0B0E0AC0FA8
:10325000BD1FAE0FBF1F18964D915D916D917C9172
:103260001B978091CA099091CB09A091CC09B0918C
:10327000CD09481759076A077B0709F00ECF3C961E
:1032800081E090E08C0F9D1FE80FF91F86819781E8
:1032900024813581322723273227CA55DF4F4881C1
:1032A0005981C65AD0402417350709F0F6CE982721
:1032B00089279827C855DF4F28813981C85AD040BF
:1032C0008217930709F0E9CE83E090E002C082E024
:1032D00090E060969FAF8EAF609760968EAD9FAD89
:1032E0006097892B19F560E170E080917409D3D85B
:1032F0006FEF809174090E94E60460968EAD9FADD9
:1033000060970097C9F41F921F9281E593E09F9305
:103310008F9385E797E09F938F930E94DF230F9011
:103320000F900F900F900F900F902FC08091750904
:103330008F5F80937509E4CD8230910509F51F9266
:1033400082E08F938CE693E09F938F9385E797E0DD
:103350009F938F930E94DF2385E00E94520D0F9070
:103360000F900F900F900F900F90892B71F468E8D9
:1033700073E08FE798E00E94E20C0E94EC0405C025
:103380009F938F9381E993E0DFCF65E777E08FE745
:1033900098E00E94E20C4091000250910102052E3B
:1033A000000C660B770B77FF05C08FE798E00E9453
:1033B0006F0C05C02AE08FE798E00E94270C8FE78A
:1033C00098E00E94DF0C48E4E42E42E0F42E03E291
:1033D00010E0C8010E94EA048A3011F461E001C0E3
:1033E00060E0F70180810E947A0D0F5F1F4FF2E0CD
:1033F000EF0EF11C0034110561F78CE699E00E9494
:103400007B0892E5E92E97E0F92E10E028EE822E57
:1034100023E0922EA12CB12C30EFC32E32E0D32E1C
:103420001C821B828D829E82AF82B886DA82C9821C
:103430001D87F701219131917F0180917009909151
:1034400071092817390799F5CE0101960E94A50741
:10345000873111F08C3159F5CE0101960E942A076F
:10346000892B29F18B819C816A969FAF8EAF6A97D9
:103470008D819E81AF81B8856E968CAF9DAFAEAFCA
:10348000BFAF6E9789859A85AB85BC85A2968CAFB8
:103490009DAFAEAFBFAFA29780EF92E068969FAFAF
:1034A0008EAF68978D85A3968FAFA3971BC01F5FC4
:1034B000143009F0B5CF6A961FAE1EAE6A9788EE3B
:1034C00093E0A0E0B0E06E968CAF9DAFAEAFBFAF23
:1034D0006E9780EF92E068969FAF8EAF6897A39645
:1034E0001FAFA397A3968FADA397843009F490C420
:1034F00062EA73E08FE798E00E94E20C4091500985
:103500005091510960914C0970914D098FE798E0F5
:103510000E94E5098FE798E00E94DF0CEE24E39417
:1035200082E0C82E82E0D82ECE018A5A9F4F0E9498
:103530001608882309F467C4CE018A5A9F4F0E9457
:103540002A07892B89F3CE018A5A9F4F0E941007C0
:10355000F82E00914A0910914B0904361105F0F438
:1035600089831A820F5F1F4FB80186E499E00E9499
:10357000A40B882399F02091460930914709809146
:103580004A0990914B09BE016F5F7F4F820F931FD5
:103590000E94BE2310934B0900934A0940914A09A7
:1035A00050914B0960914609709147098FE798E067
:1035B0000E94E50980914A0990914B09892B81F07D
:1035C00000914609109147096FE370E0C8010E941D
:1035D000B323009729F09C01201B310B37FF11C04A
:1035E000FEE6FF1209C0EE2009F40AC4CE018A5A91
:1035F0009F4F0E94DF0C07C422E7F21609F494CF14
:10360000E12C4AE0F41290CF6FEA73E08FE798E084
:103610000E94F20C69EB73E0CE0101960E94130C3C
:10362000CE01019609D88C01CE0101960E94F50BBE
:10363000101611060CF0CFC160EC73E08FE798E034
:103640000E94E20C69EC73E0CE018A5A9F4F0E94FF
:10365000E20C69ED73E0CE018A5A9F4F0E94E20CA2
:1036600061EF73E0CE018A5A9F4F0E94E20CCE01B7
:103670008A5A9F4F0E94DF0C63E074E0CE018A5AA1
:103680009F4F0E94E20C69E074E0CE018A5A9F4F7E
:103690000E94F20C409150095091510960914C09DF
:1036A00070914D09CE018A5A9F4F0E94330760E105
:1036B00074E0CE018A5A9F4F0E94F20C68E174E0D8
:1036C000CE018A5A9F4F0E94E20C60E274E0CE0164
:1036D0008A5A9F4F0E94F20C65E274E0CE018A5A2A
:1036E0009F4F0E94F20C67E274E0CE018A5A9F4F0E
:1036F0000E94F20C6FE473E0CE018A5A9F4F0E9441
:10370000F20C6DE274E0CE018A5A9F4F0E94F20CD7
:1037100082E00E94520DBC01CE018A5A9F4F0E9446
:10372000381366E374E0CE018A5A9F4F0E94F20C70
:1037300060E474E0CE018A5A9F4F0E94E20C68E177
:1037400074E0CE018A5A9F4F0E94E20C60E274E05E
:10375000CE018A5A9F4F0E94F20C62E477E0CE01BC
:103760008A5A9F4F0E94F20C67E274E0CE018A5A97
:103770009F4F0E94F20C6FE473E0CE018A5A9F4F74
:103780000E94F20C6DE274E0CE018A5A9F4F0E94B3
:10379000F20C83E00E94520DBC01CE018A5A9F4F69
:1037A0000E94381366E374E0CE018A5A9F4F0E944C
:1037B000F20C60E474E0CE018A5A9F4F0E94E20C42
:1037C00068E174E0CE018A5A9F4F0E94E20C60E2E9
:1037D00074E0CE018A5A9F4F0E94F20C69E474E0B3
:1037E000CE018A5A9F4F0E94F20C67E274E0CE012C
:1037F0008A5A9F4F0E94F20C6FE473E0CE018A5AFE
:103800009F4F0E94F20C6DE274E0CE018A5A9F4FE6
:103810000E94F20C84E00E94520DBC01CE018A5A33
:103820009F4F0E94381366E374E0CE018A5A9F4F7F
:103830000E94F20C60E474E0CE018A5A9F4F0E940D
:10384000E20C68E174E0CE018A5A9F4F0E94E20CBC
:1038500060E274E0CE018A5A9F4F0E94F20C6BE442
:1038600074E0CE018A5A9F4F0E94F20C67E274E026
:10387000CE018A5A9F4F0E94F20C6FE473E0CE0192
:103880008A5A9F4F0E94F20C6DE274E0CE018A5A70
:103890009F4F0E94F20C85E00E94520DBC01CE01A8
:1038A0008A5A9F4F0E94381366E374E0CE018A5A09
:1038B0009F4F0E94F20C60E474E0CE018A5A9F4F41
:1038C0000E94E20C68E174E0CE018A5A9F4F0E9488
:1038D000E20C60E274E0CE018A5A9F4F0E94F20C23
:1038E0006DE474E0CE018A5A9F4F0E94F20C67E2A9
:1038F00074E0CE018A5A9F4F0E94F20C6FE473E08D
:10390000CE018A5A9F4F0E94F20C6DE274E0CE0104
:103910008A5A9F4F0E94F20C86E00E94520DBC0111
:10392000CE018A5A9F4F0E94381366E374E0CE019D
:103930008A5A9F4F0E94F20C60E474E0CE018A5ACA
:103940009F4F0E94E20C68E174E0CE018A5A9F4FBB
:103950000E94E20C60E274E0CE018A5A9F4F0E94FE
:10396000F20C6FE474E0CE018A5A9F4F0E94F20C71
:1039700067E274E0CE018A5A9F4F0E94F20C6FE416
:1039800073E0CE018A5A9F4F0E94F20C6DE274E000
:10399000CE018A5A9F4F0E94F20C8C2D0E94520D2C
:1039A000BC01CE018A5A9F4F0E94381366E374E02F
:1039B000CE018A5A9F4F0E94F20C60E474E0CE015F
:1039C0008A5A9F4F0E94E20C63E574E0CE018A5A46
:1039D0009F4F0E94E20C6AE574E0CE0101960E94BE
:1039E000130CCE0101960E941C138C01CE0101968E
:1039F0000E94F50B1016110614F40E94EC0460E608
:103A000074E0CE0101960E94130CCE0101960E9433
:103A10001C138C01CE0101960E94F50B10161106A5
:103A2000E4F4809148020E94520D019759F460E03D
:103A3000809148020E947A0D69E774E08FE798E070
:103A40000E94E20C83E290E00E94EA04843129F0B3
:103A500064E183E290E00E9440276AE874E0CE01CE
:103A600001960E94130CCE0101960E941C138C013A
:103A7000CE0101960E94F50B10161106E4F4809118
:103A800048020E94520D019759F461E0809148026A
:103A90000E947A0D6FE974E08FE798E00E94E20CD3
:103AA00083E290E00E94EA04843129F064E183E239
:103AB00090E00E9440276DEA74E0CE0101960E94DA
:103AC000130CCE0101960E941C138C01CE010196AD
:103AD0000E94F50B101611065CF460E08091040260
:103AE0000E947A0D6EEC74E08FE798E00E94E20C81
:103AF0006FED74E0CE0101960E94130CCE01019689
:103B00000E941C138C01CE0101960E94F50B101629
:103B100011065CF461E0809104020E947A0D6AEF64
:103B200074E08FE798E00E94E20C68E075E0CE0157
:103B300001960E94130CCE0101960E941C138C0169
:103B4000CE0101960E94F50B101611065CF460E0A0
:103B5000809106020E947A0D69E275E08FE798E095
:103B60000E94E20C6AE375E0CE0101960E94130CFC
:103B7000CE0101960E941C138C01CE0101960E9479
:103B8000F50B101611065CF461E0809106020E94AC
:103B90007A0D65E575E08FE798E00E94E20C63E638
:103BA00075E0CE0101960E94130CCE0101960E9491
:103BB0001C138C01CE0101960E94F50B1016110604
:103BC0005CF460E0809108020E947A0D64E875E080
:103BD0008FE798E00E94E20C65E975E0CE0101965E
:103BE0000E94130CCE0101960E941C138C01CE0181
:103BF00001960E94F50B101611065CF461E08091AD
:103C000008020E947A0D60EB75E08FE798E00E9451
:103C1000E20C6EEB75E0CE0101960E94130CCE0112
:103C200001960E941C138C01CE0101960E94F50B97
:103C3000101611065CF460E080910A020E947A0D71
:103C40006FED75E08FE798E00E94E20C60EF75E0A1
:103C5000CE0101960E94130CCE0101960E941C1306
:103C60008C01CE0101960E94F50B101611065CF432
:103C700061E080910A020E947A0D69E076E08FE7A8
:103C800098E00E94E20C67E176E0CE0101960E9486
:103C9000130CCE0101960E941C138C01CE010196DB
:103CA0000E94F50B101611065CF460E080910C0286
:103CB0000E947A0D68E376E08FE798E00E94E20CBC
:103CC00069E476E0CE0101960E94130CCE010196C4
:103CD0000E941C138C01CE0101960E94F50B101658
:103CE00011065CF461E080910C020E947A0D64E69A
:103CF00076E08FE798E00E94E20C62E776E0CE0182
:103D000001960E94130CCE0101960E941C138C0197
:103D1000CE0101960E94F50B101611065CF460E0CE
:103D200080910E020E947A0D63E976E08FE798E0B9
:103D30000E94E20C64EA76E0CE0101960E94130C28
:103D4000CE0101960E941C138C01CE0101960E94A7
:103D5000F50B101611065CF461E080910E020E94D2
:103D60007A0D6FEB76E08FE798E00E94E20C6DEC45
:103D700076E0CE0101960E94130CCE0101960E94BE
:103D80001C138C01CE0101960E94F50B1016110632
:103D90005CF460E0809110020E947A0D6EEE76E095
:103DA0008FE798E00E94E20C6FEF76E0CE0101967B
:103DB0000E94130CCE0101960E941C138C01CE01AF
:103DC00001960E94F50B101611065CF461E08091DB
:103DD00010020E947A0D6AE177E08FE798E00E9476
:103DE000E20C40E050E065E377E086E499E00E9471
:103DF000CB0B6AE070E080E090E00E94A90D94CBCC
:103E0000EE24E39491CBCE018A5A9F4F0E94390849
:103E10000E94CF0A0C94141586E499E00E94F50BD9
:103E20008CE499E00E94F50B8EEC99E00E94F50B72
:103E300084ED99E00C94F50BAF92BF92CF92DF9294
:103E4000EF92FF920F931F93CF93DF93CDB7DEB71F
:103E50002C970FB6F894DEBF0FBECDBFEEEEF9E0A3
:103E600000E313E01183008312821382148215820F
:103E7000EFE7F8E01382128288EEC82E83E0D82E96
:103E8000E12CF12CC482D582E682F78284EB92E0A9
:103E90009183808385EC90E09587848784EC90E023
:103EA0009787868780EC90E0918B808B81EC90E007
:103EB000938B828B82EC90E0958B848B86EC90E0E8
:103EC000978B868B118E128E138E148EE4EFF9E091
:103ED000118300831282138214821582EAEFF9E0C3
:103EE000118300831282138214821582E0E0FAE0CB
:103EF000118300831282138214821582E6E0FAE0B5
:103F0000118300831282138214821582ECE1F9E09E
:103F1000118300831282138214821582E4E2F9E095
:103F2000118300831282138214821582ECE0FAE07E
:103F3000118300831282138214821582E2E1FAE077
:103F4000118300831282138214821582E8EEF9E055
:103F5000118300831282138214821582EAEDF9E044
:103F600085E3848789E2858766E377E084ED99E0DD
:103F70000E94130C64E477E08EEC99E00E94130C2D
:103F8000E8ECF9E01183008388E0828383838483F3
:103F90008583E2ECF9E0118300838FEF82838383D2
:103FA0008EEF84831582ECEBF9E01183008390ECB3
:103FB000928388EA8383148221E02583E6EBF9E08B
:103FC000118300839283838314828EE1858309D7D2
:103FD00022E7A22E29E0B22E2FEF30E040E050E0A1
:103FE0005DD7F5016083118283E08283138240E410
:103FF00050E06AE170E086E799E0AED3ECE6F9E0E4
:104000001382128284E193E09183808380E590E0C3
:1040100095838483EFE5F9E013821282C482D5820E
:10402000E682F78220EF32E03183208384E08487C8
:10403000E2E5F9E013821282C482D582E682F78239
:1040400031832083848765E377E08CE499E00E94E4
:10405000130C65E377E086E499E00E94130C64EDAD
:1040600079E0CE0101960E94FA0B20E030E04CE2AC
:10407000BE016F5F7F4FCE0107960E942805CE01DB
:1040800007960E94990BC62EC09244097093450969
:10409000CE0107960E94F50BCE0101960E94F50B0A
:1040A00064ED79E0CE0101960E94FA0B21E030E048
:1040B0004CE2BE016F5F7F4FCE0107960E9428053C
:1040C000CE0107960E94990BD62ED092420970938A
:1040D0004309CE0107960E94F50BCE0101960E947E
:1040E000F50B64ED79E0CE0101960E94FA0B22E017
:1040F00030E04CE2BE016F5F7F4FCE0107960E9419
:104100002805CE0107960E94990BE62EE092400901
:1041100070934109CE0107960E94F50BCE010196DE
:104120000E94F50B64ED79E0CE0101960E94FA0B36
:1041300023E030E04CE2BE016F5F7F4FCE01079677
:104140000E942805CE0107960E94990BF62EF09248
:104150003E0970933F09CE0107960E94F50BCE01F0
:1041600001960E94F50BE8E3F9E011830083C28217
:10417000D382E482F5826EEC79E0CE0101960E9452
:10418000FA0B20E030E04EE2BE016F5F7F4FCE01C0
:1041900007960E942805CE0107960E94990BC62E0D
:1041A000C092360970933709CE0107960E94F50B2D
:1041B000CE0101960E94F50B6EEC79E0CE010196DE
:1041C0000E94FA0B21E030E04EE2BE016F5F7F4FAC
:1041D000CE0107960E942805CE0107960E94990BF2
:1041E000D62ED092340970933509CE0107960E94DD
:1041F000F50BCE0101960E94F50B6EEC79E0CE0135
:1042000001960E94FA0B22E030E04EE2BE016F5FA1
:104210007F4FCE0107960E942805CE0107960E9487
:10422000990BE62EE092320970933309CE0107967E
:104230000E94F50BCE0101960E94F50B6EEC79E021
:10424000CE0101960E94FA0B23E030E04EE2BE015F
:104250006F5F7F4FCE0107960E942805CE0107961B
:104260000E94990BF62EF092300970933109CE011D
:1042700007960E94F50BCE0101960E94F50BEAE22B
:10428000F9E011830083C282D382E482F5822C9606
:104290000FB6F894DEBF0FBECDBFDF91CF911F9157
:1042A0000F91FF90EF90DF90CF90BF90AF90089567
:1042B00097FB072E16F4009406D077FD08D01AD08D
:1042C00007FC05D03EF4909581959F4F0895709519
:1042D00061957F4F0895EE0FFF1F881F8BBF0790DA
:1042E000F691E02D19946927962769277827872763
:1042F00078270895AA1BBB1B51E107C0AA1FBB1F4B
:10430000A617B70710F0A61BB70B881F991F5A9561
:10431000A9F780959095BC01CD010895CF93DF93C7
:104320008230910510F482E090E0E0912C0AF09147
:104330002D0A20E030E0C0E0D0E0309711F140815C
:10434000518148175907C0F04817590761F4828115
:104350009381209719F09B838A832BC090932D0A19
:1043600080932C0A26C02115310519F042175307F6
:1043700018F49A01BE01DF01EF010280F381E02D04
:10438000DCCF2115310509F1281B390B243031050B
:1043900090F412968D919C9113976115710521F0FF
:1043A000FB019383828304C090932D0A80932C0A8F
:1043B000FD01329644C0FD01E20FF31F81939193FA
:1043C000225031092D933C933AC020912A0A309112
:1043D0002B0A232B41F42091520230915302309347
:1043E0002B0A20932A0A2091500230915102211564
:1043F000310541F42DB73EB740915402509155021A
:10440000241B350BE0912A0AF0912B0AE217F307DF
:10441000A0F42E1B3F0B2817390778F0AC014E5F34
:104420005F4F2417350748F04E0F5F1F50932B0A3C
:1044300040932A0A8193919302C0E0E0F0E0CF011B
:10444000DF91CF9108950F931F93CF93DF93009740
:1044500009F48CC0FC0132971382128200912C0A5D
:1044600010912D0A0115110581F420813181820FEF
:10447000931F20912A0A30912B0A2817390779F5C2
:10448000F0932B0AE0932A0A71C0D80140E050E073
:10449000AE17BF0750F412962D913C911397AD01C2
:1044A0002115310509F1D901F3CF9D01DA013383DB
:1044B000228360817181860F971F8217930769F4A9
:1044C000EC0128813981260F371F2E5F3F4F318342
:1044D00020838A819B8193838283452B29F4F093E7
:1044E0002D0AE0932C0A42C01396FC93EE93129788
:1044F000ED01499159919E01240F351FE217F307F1
:1045000071F480819181840F951F029611969C937E
:104510008E938281938113969C938E931297E0E001
:10452000F0E0D80112968D919C911397009719F0A5
:10453000F8018C01F6CF8D919C9198012E5F3F4F31
:10454000820F931F20912A0A30912B0A28173907CE
:1045500069F4309729F410922D0A10922C0A02C0A7
:104560001382128210932B0A00932A0ADF91CF91B3
:104570001F910F9108956F927F928F929F92AF92A9
:10458000BF92CF92DF92EF92FF920F931F93CF9340
:10459000DF93EC01009781F4CB01DF91CF911F9164
:1045A0000F91FF90EF90DF90CF90BF90AF909F90D2
:1045B0008F907F906F90B2CEFC01E60FF71F9C01A9
:1045C00022503109E217F30708F4A8C0D9010D9170
:1045D0001C91119706171707A8F00530110508F46C
:1045E0009BC0C80104978617970708F495C002502E
:1045F0001109061B170B019311936D937C93CF0147
:1046000022DF8AC05B01A01AB10A4C01800E911E04
:10461000A0912C0AB0912D0A40E050E0E12CF12C41
:10462000109709F44AC0A815B905D1F56D907C9092
:104630001197630182E0C80ED11CCA14DB0480F11B
:10464000A3014A195B096A0182E0C80ED11C1296C7
:10465000BC9012971396AC91B5E0CB16D10440F004
:10466000B282A38351834083D9016D937C930AC0A6
:104670000E5F1F4FC301800F911FF901918380834B
:10468000EB2DFA2FE114F10431F0D7011396FC93CE
:10469000EE93129741C0F0932D0AE0932C0A3CC090
:1046A0008D919C9111974817590708F4AC017D0131
:1046B00012960D90BC91A02DB3CF80912A0A9091B3
:1046C0002B0A88159905E1F446175707C8F480911D
:1046D000500290915102009741F48DB79EB74091DE
:1046E000540250915502841B950BE817F907B0F45A
:1046F000F0932B0AE0932A0AF901718360830CC0BE
:10470000CB010CDE7C01009749F0A801BE011BD053
:10471000CE0199DEC70104C0CE0102C080E090E066
:10472000DF91CF911F910F91FF90EF90DF90CF908D
:10473000BF90AF909F908F907F906F90089581E091
:1047400090E0F89408C4FB01DC0102C001900D92D6
:1047500041505040D8F70895DC0101C06D9341509D
:104760005040E0F70895FC018191861721F08823DD
:10477000D9F7992708953197CF010895FB01DC01FE
:1047800001900D920020E1F70895FB01519155230E
:10479000A9F0BF01DC014D9145174111E1F759F432
:1047A000CD010190002049F04D9140154111C9F310
:1047B000FB014111EFCF81E090E0019708950F9345
:1047C0001F93CF93DF93CDB7DEB72E970FB6F89434
:1047D000DEBF0FBECDBF0E891F8986E08C831A8392
:1047E00009838FEF9FE79E838D83AE01465E5F4F07
:1047F000688D798DCE01019611D02F813885F80111
:10480000E20FF31F10822E960FB6F894DEBF0FBE94
:10481000CDBFDF91CF911F910F9108952F923F92BD
:104820004F925F926F927F928F929F92AF92BF92C0
:10483000CF92DF92EF92FF920F931F93CF93DF936C
:10484000CDB7DEB72C970FB6F894DEBF0FBECDBF45
:104850007C016B018A01FC0117821682838181FF32
:10486000B0C1CE0101964C01F7019381F60193FD91
:10487000859193FF81916F01882309F49EC1853250
:1048800039F493FD859193FF81916F01853221F475
:10489000B70190E0C7D1E8CF512C312C20E0203275
:1048A000A0F48B3269F030F4803259F0833269F42D
:1048B00020612CC08D3239F0803339F4216026C05C
:1048C0002260246023C0286021C027FD27C030ED6E
:1048D000380F3A3078F426FF06C0FAE05F9E300DBC
:1048E0001124532E13C08AE0389E300D1124332E2C
:1048F00020620CC08E3221F426FD5FC1206406C008
:104900008C3611F4206802C0883641F4F60193FD1C
:10491000859193FF81916F018111C1CF982F9F7D68
:104920009554933028F40C5F1F4FFFE3F9830DC0BB
:10493000833631F0833771F0833509F057C021C0D9
:10494000F801808189830E5F1F4F44244394512CCA
:10495000540114C03801F2E06F0E711CF801A08000
:10496000B18026FF03C0652D70E002C06FEF7FEFBE
:10497000C5012C874CD12C0183012C852F77222E49
:1049800016C03801F2E06F0E711CF801A080B180F2
:1049900026FF03C0652D70E002C06FEF7FEFC501F9
:1049A0002C872AD12C012C852068222E830123FC00
:1049B00019C0832D90E048165906A0F4B70180E293
:1049C00090E030D13A94F5CFF50127FC859127FE90
:1049D00081915F01B70190E025D131103A94F1E067
:1049E0004F1A51084114510479F7DEC0843611F092
:1049F000893631F5F80127FF07C060817181828116
:104A000093810C5F1F4F08C060817181072E000CDD
:104A1000880B990B0E5F1F4F2F76722E97FF09C0E0
:104A200090958095709561957F4F8F4F9F4F20682F
:104A3000722E2AE030E0A4012DD1A82EA81843C080
:104A4000853729F42F7EB22E2AE030E025C0F22FE0
:104A5000F97FBF2E8F36C1F018F4883579F0ADC0DC
:104A6000803719F0883721F0A8C02F2F2061B22E8F
:104A7000B4FE0DC08B2D8460B82E09C024FF0AC07F
:104A80009F2F9660B92E06C028E030E005C020E1D7
:104A900030E002C020E132E0F801B7FE07C06081DB
:104AA0007181828193810C5F1F4F06C0608171818B
:104AB00080E090E00E5F1F4FA401ECD0A82EA81854
:104AC000FB2DFF777F2E76FE0BC0372D3E7FA51482
:104AD00050F474FE0AC072FC08C0372D3E7E05C03B
:104AE000BA2C372D03C0BA2C01C0B52C34FF0DC031
:104AF000FE01EA0DF11D8081803311F4397E09C079
:104B000032FF06C0B394B39404C0832F867809F0B3
:104B1000B39433FD12C030FF06C05A2CB31418F4FE
:104B2000530C5B18B32CB31460F4B70180E290E02F
:104B30003C8778D0B3943C85F6CFB31410F43B187F
:104B400001C0312C34FF11C0B70180E390E03C87F5
:104B500069D03C8532FF16C031FD03C088E790E084
:104B600002C088E590E0B7010CC0832F867851F031
:104B700031FF02C08BE201C080E237FD8DE2B70158
:104B800090E050D0A51430F4B70180E390E04AD013
:104B90005A94F8CFAA94F401EA0DF11D8081B7016F
:104BA00090E040D0A110F6CF332009F45DCEB701DC
:104BB00080E290E037D03A94F7CFF7018681978171
:104BC00002C08FEF9FEF2C960FB6F894DEBF0FBE9A
:104BD000CDBFDF91CF911F910F91FF90EF90DF90AC
:104BE000CF90BF90AF909F908F907F906F905F908D
:104BF0004F903F902F900895FC01059061507040B8
:104C00000110D8F7809590958E0F9F1F0895FC0195
:104C10006150704001900110D8F7809590958E0FEB
:104C20009F1F08950F931F93CF93DF93FB01238161
:104C300021FD03C08FEF9FEF28C022FF16C04681E1
:104C40005781248135814217530744F4A081B181F3
:104C50009D012F5F3F4F318320838C9326813781C5
:104C60002F5F3F4F3783268310C0EB01092F182F8A
:104C70000084F185E02D1995892BE1F68E819F81C5
:104C800001969F838E83812F902FDF91CF911F916B
:104C90000F910895FA01AA27283051F1203181F1AE
:104CA000E8946F936E7F6E5F7F4F8F4F9F4FAF4F34
:104CB000B1E03ED0B4E03CD0670F781F891F9A1F47
:104CC000A11D680F791F8A1F911DA11D6A0F711DFB
:104CD000811D911DA11D20D009F468943F912AE007
:104CE000269F11243019305D3193DEF6CF010895EF
:104CF000462F4770405D4193B3E00FD0C9F7F6CF20
:104D0000462F4F70405D4A3318F0495D31FD4052E7
:104D1000419302D0A9F7EACFB4E0A695979587957D
:104D200077956795BA95C9F700976105710508955C
:104D30009B01AC010A2E0694579547953795279508
:104D4000BA95C9F7620F731F841F951FA01D0895A0
:104D50008F929F92AF92BF92CF92DF92EF92FF928B
:104D6000CF93DF93EC01688179818A819B81611502
:104D700071058105910521F464E279ED8BE597E0F9
:104D80002DE133EF41E050E089D049015A019B0108
:104D9000AC01A7EAB1E49ED06B017C01ACEEB4EFAC
:104DA000A5019401A3D0DC01CB018C0D9D1DAE1D8E
:104DB000BF1DB7FF03C00197A109B048888399833D
:104DC000AA83BB83BC01CD019F77DF91CF91FF9078
:104DD000EF90DF90CF90BF90AF909F908F9008950D
:104DE000B7CF86E592E0B4CF609356027093570236
:104DF000809358029093590208951F93FC019927BC
:104E00008827BC01E89411911032E9F3193010F0B1
:104E10001E30C8F31B3249F01D3241F4689405C0BE
:104E200012D0610F711D811D911D119110531A3007
:104E3000B8F33EF490958095709561957F4F8F4FB4
:104E40009F4F1F910895592F482F372F262F660FF8
:104E5000771F881F991F660F771F881F991F620F82
:104E6000731F841F951F660F771F881F991F089552
:104E7000F999FECF92BD81BDF89A992780B5089522
:104E8000262FF999FECF1FBA92BD81BD20BD0FB666
:104E9000F894FA9AF99A0FBE01960895052E97FB99
:104EA00016F400940FD057FD05D024D007FC02D093
:104EB00046F408C050954095309521953F4F4F4F8F
:104EC0005F4F089590958095709561957F4F8F4FB6
:104ED0009F4F089531D0A59F900DB49F900DA49F32
:104EE000800D911D11240895B7FFF4CFF3DF821BCD
:104EF000930B0895A1E21A2EAA1BBB1BFD010DC046
:104F0000AA1FBB1FEE1FFF1FA217B307E407F50779
:104F100020F0A21BB30BE40BF50B661F771F881F55
:104F2000991F1A9469F760957095809590959B01EB
:104F3000AC01BD01CF010895A29FB001B39FC00194
:104F4000A39F700D811D1124911DB29F700D811DB5
:104F50001124911D089511E0C5E1D1E000E005C0E4
:104F6000802FFE01B8D92196011DC631D10780E0FE
:084F70000807B1F7F894FFCF28
:104F78000A00160000000000000000000000000009
:104F88000000000000000000000000000000000019
:104F98000000000000000000000000000000000009
:104FA80000000000000000000000000000000000F9
:104FB800000000000000000000C0003D002C447804
:104FC80000002E0A8000010000001F1C1F1E1F1E6B
:104FD8001F1F1E1F1E1F00000000820B820B820B6A
:104FE800820B820B820B820B820B820B820B820B51
:104FF800820B820B820B820B820B00000000E30EF7
:105008001B10D6059C0F660FE20EBC06A7065010B3
:1050180035068910C40F7E0FEE05DE05DA05F90E98
:1050280000000000680AE509320A100A240AAE0ADC
:1050380000000000820B820B820B820B820B820B1A
:10504800820B820B820B820B820B820B000000000A
:10505800820BE509820B820B820B820B0000000099
:105068001F0633072A071007E9061E066009D4033E
:105078000C07390816081606540152010B06480198
:1050880000000000F505F208AD0700000000820BE3
:10509800E509820B00000000820BE5090000000012
:1050A800970C00000000820B01005E0000004F20FA
:1050B800536572766572206573746120656D3A2058
:1050C80000436F6D756E69636163616F204F6B2C70
:1050D800205374617475733A2025640053656D20FC
:1050E800436F6D756E69636163616F2C20537461E2
:1050F8007475733A202564005265696E6963696145
:10510800004572726F2C205374617475733A2025B0
:1051180064006E6F766F20636C69656E74650065F8
:1051280020707261206C657200737461747573000D
:10513800526573706F73746100485454502F312E48
:105148003120323030204F4B00436F6E74656E74DF
:105158002D547970653A20746578742F68746D6C75
:1051680000436F6E6E656374696F6E3A20636C6F8F
:105178007365003C584D4C3E003C524649443E0045
:105188003C2F524649443E003C706F7274613E00A9
:105198003C69643E0032003C2F69643E003C7374F5
:1051A800617475733E003C2F7374617475733E00AF
:1051B8003C2F706F7274613E003400350036003148
:1051C8003030003C2F786D6C3E007265736574005A
:1051D80064484A68626D4E684D7A55765A47567AE1
:1051E80059585270646D453D007472616E63613147
:1051F8002F64657361746976610064484A68626DFA
:105208004E684D7A557659585270646D453D007414
:1052180072616E6361312F6174697661003734376A
:1052280032363136653633363133323266363436D5
:1052380035373336313734363937363631007472CC
:10524800616E6361322F64657361746976610037DA
:1052580034373236313665363336313332326636A4
:10526800313734363937363631007472616E6361DE
:10527800322F6174697661003734373236313665DA
:1052880036333631333332663634363537333631A2
:105298003734363937363631007472616E636133AC
:1052A8002F6465736174697661003734373236313B
:1052B800366536333631333332663631373436393C
:1052C80037363631007472616E6361332F617469E9
:1052D8007661003734373236313665363336313316
:1052E8003432663634363537333631373436393733
:1052F800363631007472616E6361342F6465736190
:10530800746976610037343732363136653633366C
:105318003133343266363137343639373636310040
:105328007472616E6361342F617469766100373419
:1053380037323631366536333631333532663634C0
:1053480036353733363137343639373636310074F7
:1053580072616E6361352F6465736174697661008B
:105368003732363136653633363133353266363193
:105378003734363937363631007472616E636135C9
:105388002F617469766100373437323631366536C5
:10539800333631333632663634363537333631378D
:1053A80034363937363631007472616E6361362FA0
:1053B8006465736174697661003734373236313623
:1053C8006536333631333632663631373436393727
:1053D800363631007472616E6361362F6174697696
:1053E8006100373437323631366536333631333744
:1053F8003266363436353733363137343639373620
:105408003631007472616E6361372F64657361743D
:10541800697661003734373236313665363336319E
:1054280033373266363137343639373636310074E9
:1054380072616E6361372F61746976610037343742
:1054480032363136653633363133383266363436AD
:1054580035373336313734363937363631007472AA
:10546800616E6361382F64657361746976610037B2
:10547800343732363136653633363133383266367C
:10548800313734363937363631007472616E6361BC
:10549800382F6174697661005265736574616E6452
:1054A8006F21000D0A003139322C3136382C312C5D
:1054B8003232330031332E36352E3234392E3131F3
:0254C8003900A9
:00000001FF
